:020000040800F2
:100000004017002005090008D1040008D3040008A7
:10001000D7040008DB040008DF040008000000002B
:10002000000000000000000000000000E3040008E1
:10003000E504000800000000E7040008E9040008E7
:100040001F0900081F0900081F0900081F090008F0
:100050001F0900081F0900081F0900081F090008E0
:100060001F0900081F0900081F0900081F090008D0
:100070001F0900081F0900081F0900081F090008C0
:100080001F0900081F0900081F0900081F090008B0
:100090001F0900081F0900081F0900081F090008A0
:1000A0001F0900081F0900081F0900081F09000890
:1000B0001F0900081F0900081F0900081F09000880
:1000C0001F0900081F0900081F0900081F09000870
:1000D0001F0900087B0800081F0900081F09000805
:1000E0001F0900081F0900081F0900081F09000850
:1000F0001F0900081F0900081F0900081F09000840
:100100001F0900081F0900081F0900081F0900082F
:100110001F0900081F0900081F0900081F0900081F
:100120001F0900081F0900081F0900081F0900080F
:1001300000F002F800F03AF80AA090E8000C8244BF
:100140008344AAF10107DA4501D100F02FF8AFF29C
:10015000090EBAE80F0013F0010F18BFFB1A43F0A5
:100160000103184794C60000B4C60000103A24BF2B
:1001700078C878C1FAD8520724BF30C830C144BF0C
:1001800004680C607047000000230024002500264E
:10019000103A28BF78C1FBD8520728BF30C148BFEA
:1001A0000B6070471FB51FBD10B510BD02F06AFD92
:1001B0001146FFF7F7FF00F009F802F088FD03B4DD
:1001C000FFF7F2FF03BC00F0FDFA00008EB000F074
:1001D0007DFA00F0F1FA01F053FE59E101F052FA14
:1001E000AC4801F08EFB01F059FC022000F0CFFA80
:1001F00001F048FA01F05DFC01F050FC022000F033
:10020000C6FA01F03FFAA44801F0C4FB00273EE023
:10021000002438E0002632E000252CE04021202296
:100220009E4800EB0720CE23CDE90930CDE90B2114
:1002300010219A4800EB0420AE22CDE90512CDE949
:100240000701974984221023944800EB0620CDE94A
:100250000232049101905C200090904800EB05224E
:100260003C21184601F039FC1CB916B9092D00D102
:1002700010E0681CC5B20A2DD0DB701CC6B2062E79
:10028000CADB601CC4B20A2CC4DB781CC7B2062FC0
:10029000BEDB00BF01F0F6F901F00BFC01F0FEFB44
:1002A000022000F074FAFF204FF48773FA228021B5
:1002B00000907C4801F074FE7A4801F0B0FE01F035
:1002C0007AFAFF2001F066FF0120034600220A218E
:1002D0000090052001F093FF012002230022192144
:1002E0000090052001F08BFF01200323002228212C
:1002F0000090052001F083FF012004230022372114
:100300000090052001F07BFF0120002100913C239B
:100310004622CDE901100A21142001F0C1FF01207D
:10032000002100913C231422CDE901100A2146202E
:1003300001F0B6FF0120002100913C234622CDE9C7
:1003400001100A21142002F02AF801200022CDE930
:1003500000203C2382220A210290552002F01FF83F
:10036000012000210B461E22CDE900105A219620C3
:1003700002F06EF80120009000231E225A21019005
:10038000C82002F065F8474801F051F901F086FBFA
:10039000022000F0FCF901F00EFAFF2001F0FAFE55
:1003A0000020FF21404B41A2CDE90010014602F0A0
:1003B000CFF90020FF21414B3CA2CDE900100A21DA
:1003C00002F0C6F90020FF213D4B38A2CDE9001014
:1003D000192102F0BDF90020FF213A4B33A2CDE9EB
:1003E00000102D2102F0B4F90020FF21364B2FA27E
:1003F000CDE90010502102F0ABF92A4801F017F9BD
:1004000001F04CFB022000F0C2F901F0D4F9FF200A
:1004100001F0C0FE0020FF21234B2C4ACDE9001043
:10042000014602F0DBFA0020FF21244B274ACDE9E8
:1004300000100A2102F0D2FA0020FF21204B234AAB
:10044000CDE90010192102F0C9FA0020FF211D4B4F
:100450001E4ACDE900102D2102F0C0FA0020FF2134
:10046000194B1A4ACDE90010462102F0B7FA0D489F
:1004700001F0DDF801F012FB022000F088F901F034
:1004800001F901F016FB01F009FB022000F07FF9F1
:10049000A4E60000044C0008643C00086431000835
:1004A000643B00085C00002034000020476F6F644C
:1004B00020446973706C6179000000003C000020EA
:1004C000440000204C0000205400002015CD5B07A4
:1004D000704700BFFEE700BFFEE700BFFEE700BFBA
:1004E000FEE7704770477047704700000CB500206A
:1004F000019000906C48006840F480306A490860C0
:1005000000BF6948006800F4003000900198401C6A
:100510000190009818B90198B0F5A06FF1D1624828
:10052000006800F4003010B10120009001E00020CC
:1005300000900098012843D15C48006840F010000A
:100540005A4908600846006820F003000860084621
:10055000006840F002000860534840685249486013
:100560000846406848600846406840F4806048603B
:100570000846406820F47C1048600846406840F413
:10058000E81048600846006840F08070086000BFCE
:100590004548006800F000700028F9D042484068E3
:1005A00020F00300404948600846406840F00200DF
:1005B000486000BF3C48406800F00C000828F9D1B2
:1005C0000CBD10B5FFF792FF10BD10B5364800689E
:1005D00040F001003449086008464068344908404A
:1005E0003149486008460068324908402E49086091
:1005F0000846006820F4802008600846406820F41F
:10060000FE0048604FF41F008860FFF7DAFF4FF0EC
:1006100000602949086010BD10B5002100200022AB
:10062000214B5B6803F00C0121B1042906D0082995
:1006300028D107E0214B224C236027E01F4B204CA0
:10064000236023E0184B5B6803F47010164B5B6863
:1006500003F48032022303EB904022B9194B434349
:10066000174C23600DE0104B5B6803F4003323B19B
:10067000144B4343124C236003E0104B4343104C94
:10068000236003E00D4B0E4C236000BF00BF064B00
:100690005B68C3F303130C4CE15C094B1B68CB4054
:1006A000074C236010BD00000010024000200240F3
:1006B0000000FFF8FFFFF6FE08ED00E000127A00F0
:1006C0000000002000093D000400002010B56FF07C
:1006D000040000F086F9344800683449B0FBF1F0BA
:1006E000334908700846007800EB4001C1EBC010A8
:1006F0004FF6FF7101EAC0002E49088010BD014687
:100700002B4A12784A434FF0E0235A6100229A6143
:100710001A46126942F001021A6100BF4FF0E0224E
:10072000106900F001021AB100F48032002AF5D0FD
:100730004FF0E022126922F001024FF0E0231A612B
:1007400000229A61704701461A4A12884A434FF0C4
:10075000E0235A6100229A611A46126942F00102AE
:100760001A6100BF4FF0E022106900F001021AB1D7
:1007700000F48032002AF5D04FF0E022126922F016
:1007800001024FF0E0231A6100229A61704730B5F0
:100790000446002505E04FF47A70FFF7D4FF681C8B
:1007A00085B2A542F7DB30BD0000002000127A00C0
:1007B000140000201600002010B54FF4A06000F0D7
:1007C000C1F810BD014600BF704700BF494A1288FA
:1007D00002F04002002AF9D0C2B2464B1B1D1A801B
:1007E000704710B586B00446012144F2050000F0C0
:1007F00033FC4FF40070ADF8140003208DF81600A0
:1008000018208DF8170005A93B4800F069F94FF44E
:100810008060ADF8140004208DF8170005A9364853
:1008200000F05EF925208DF8000003208DF801000E
:100830008DF8020001208DF80300684600F087F86B
:1008400001940020ADF80800ADF80A00ADF80C00E6
:10085000ADF810000C20ADF80E0001A9254800F0FD
:10086000A2FC012240F22551224800F034FD012172
:10087000204800F024FD06B010BD10B540F225510F
:100880001C4800F00DFE10B31A4800F089FDC4B2F8
:100890001A48008800F40040C8B91848008800F4DD
:1008A000804060B10A2C03D000201449088020E069
:1008B0001248008840F400401049088019E00D2CCF
:1008C00006D10E48008840F480400C49088010E0B2
:1008D0000A480088C0F30D0009490C5407480088F5
:1008E000401C0649088008460088C72801DD002012
:1008F000088010BD00380140000801401C000020A5
:10090000FC0F00200948804709480047FEE7FEE742
:10091000FEE7FEE7FEE7FEE7FEE7FEE7FEE7FEE7AF
:1009200004480549054A064B70470000CB050008FE
:100930003101000840110020401700204013002022
:100940004013002031490143314A1160704770B5AE
:10095000002100230F22C47804B32D4C246804F432
:10096000E064C4F5E064210AC1F10403CA4044789C
:1009700004FA03F18478144021430901254C0678D8
:10098000A155047804F01F050124AC4005786D11D1
:10099000AD0005F1E025C5F8004109E0047804F058
:1009A0001F050124AC401C4D0678761145F8264001
:1009B00070BD1A4A0A400243154B1B1F1A6070474C
:1009C00039B1134A121D12680243114B1B1D1A60E4
:1009D00006E00F4A121D126882430D4B1B1D1A6060
:1009E0007047042808D14FF0E021096941F0040163
:1009F0004FF0E022116107E04FF0E021096921F09A
:100A000004014FF0E0221161704700000000FA0578
:100A10000CED00E000E400E080E100E080FFFF1F5B
:100A200010B50446CC48844208D10121042000F0CE
:100A30002DFB0021042000F029FB46E0C74884423A
:100A400008D10121082000F021FB0021082000F03E
:100A50001DFB3AE0C248844208D10121102000F079
:100A600015FB0021102000F011FB2EE0BD48844250
:100A700008D10121202000F009FB0021202000F0F6
:100A800005FB22E0B848844208D10121402000F053
:100A9000FDFA0021402000F0F9FA16E0B348844244
:100AA00008D10121802000F0F1FA0021802000F01F
:100AB000EDFA0AE0AE48844207D10121801500F02A
:100AC000E5FA0021A01500F0E1FA10BD10B50121F2
:100AD000084600F0DBFA0021012000F0D7FA10BD33
:100AE0002DE9F041024600250026002000230024C5
:100AF000002791F803C00CF00F0591F803C00CF02B
:100B0000100CBCF1000F03D091F802C04CEA0505AF
:100B100091F800C0BCF1000F31D0146800202BE028
:100B20004FF0010C0CFA00F3B1F800C00CEA030618
:100B30009E4220D183004FF00F0C0CFA03F7BC4308
:100B400005FA03FC4CEA040491F803C0BCF1280F39
:100B500006D14FF0010C0CFA00FCC2F814C00AE0F8
:100B600091F803C0BCF1480F05D14FF0010C0CFA0D
:100B700000FCC2F810C0401C0828D1D31460B1F8A2
:100B800000C0BCF1FF0F34DD546800202EE000F1FE
:100B9000080C4FF0010808FA0CF3B1F800C00CEA99
:100BA00003069E4221D183004FF00F0C0CFA03F78D
:100BB000BC4305FA03FC4CEA040491F803C0BCF101
:100BC000280F05D100F1080C08FA0CF8C2F81480BF
:100BD00091F803C0BCF1480F07D100F1080C4FF0A9
:100BE000010808FA0CF8C2F81080401C0828CED37F
:100BF0005460BDE8F0814FF6FF71018002218170E1
:100C00000421C17070470246002093680B400BB16D
:100C1000012000E0002070470146886880B27047DC
:100C200002460020D3680B400BB1012000E00020F9
:100C300070470146C86880B27047016170474161E2
:100C400070470AB1016100E041617047C1607047BF
:100C50004FF480320A4382618161826182698269D4
:100C6000704702460020434B18684FF680731840C7
:100C700040EA021008433F4B186070473E49C86184
:100C80007047F0B50A46002300240021002500F03B
:100C90000046B6F1004F02D1364EF16901E0354E03
:100CA0007168C0F3034583B200F44016B6F5401FE7
:100CB00008D121F070612F4E766826F070662D4FB6
:100CC0007E6012E000F48016B6F5801F06D1032680
:100CD00006FA05F4A14341F0706106E0460D3601C5
:100CE00003FA06F6B14341F0706122B1460D3601B8
:100CF00003FA06F6314300F00046B6F1004F02D188
:100D00001C4EF16101E01B4E7160F0BD30B5002258
:100D10008B071C0F0F2303FA04F2164B08338C10B9
:100D200053F824309343134C08348D1044F8253085
:100D300023468C1053F824308C07240F00FA04F457
:100D400023430C4C08348D1044F8253030BD0A493B
:100D5000DC3108607047000000080140000C0140D1
:100D6000001001400014014000180140001C014027
:100D7000002001400000014000002042DF480068E0
:100D800040F00100DD49086008464068DC49084041
:100D9000DA49486008460068DA490840D7490860DF
:100DA0000846006820F4802008600846406820F467
:100DB000FE0048604FF41F0088607047CF49096803
:100DC00021F48031CD4A11601146096821F4802157
:100DD0001160B0F5803F03D0B0F5802F0ED106E052
:100DE000C649096841F48031C44A116007E0C3492B
:100DF000096841F4A021C14A116000E000BF00BFB2
:100E0000704710B501460022002300204A11012A34
:100E100002D1BA4C236806E0022A02D1B74C236AF9
:100E200001E0B64C636A01F01F02012494401C40AB
:100E30000CB1012000E0002010BD38B5002000906A
:100E40000024002500BF3120FFF7DBFF0546009896
:100E5000401C00900098B0F5A06F01D0002DF2D09A
:100E60003120FFF7CEFF08B1012400E00024204626
:100E700038BD01460020A14A106820F0F80040EA81
:100E8000C10010607047A04908607047024600200A
:100E90009A4B586820F47C1042EA01031843974BA0
:100EA0005860704798490866704701460020934A89
:100EB000506820F003000843506070478F48406836
:100EC00000F00C007047014600208C4A506820F06A
:100ED000F00008435060704701460020874A506880
:100EE00020F4E06008435060704701460020834AC8
:100EF000506820F4605040EAC1005060704729B14A
:100F00007E4A527A02437D4B5A7204E07B4A527AFF
:100F100082437A4B5A7270477B49D83108607047D8
:100F200001460020754A506820F440400843506054
:100F300070470021714A20321170704A82F82010E7
:100F4000012802D004280AD104E001216B4A203292
:100F5000117005E00521694A2032117000E000BFE0
:100F600000BF70476949086070476449096A0143D6
:100F7000624A11627047654944390860704730B56C
:100F800000210022002400235C4D6D6805F00C0157
:100F900021B1042905D0082923D105E05C4D056065
:100FA00022E05B4D05601FE0544D6D6805F4701242
:100FB000524D6D6805F48034022505EB92421CB950
:100FC000544D554305600BE04C4D6D6805F40035FC
:100FD0001DB1504D5543056002E04D4D5543056030
:100FE00002E04B4D056000BF00BF444D6D6805F049
:100FF000F0010909484D6B5C0568DD4045603F4DD7
:101000006D6805F4E061090A434D6B5C4568DD409D
:1010100085603A4D6D6805F46051C90A3E4D6B5CC0
:101020004568DD40C560354D6D6805F44041890B6C
:101030003A4D6B5CC568B5FBF3F5056130BD29B170
:101040002E4A526902432D4B5A6104E02B4A5269E1
:1010500082432A4B5A61704729B1284A9269024358
:10106000264B9A6104E0254A92698243234B9A6198
:10107000704729B1214AD2690243204BDA6104E06A
:101080001E4AD26982431D4BDA61704729B11B4A5F
:10109000D2680243194BDA6004E0184AD2688243EE
:1010A000164BDA60704729B1144A12690243134B98
:1010B0001A6104E0114A12698243104B1A617047A9
:1010C00012494039086070470F49C86470470B499E
:1010D000C87170470948406A40F08070074948620B
:1010E000704701460020054A92680A400AB1012073
:1010F00000E00020704701498872704700100240EC
:101100000000FFF8FFFFF6FE00004242800442426A
:1011100000127A0000093D001E0000202E00002071
:1011200010B50446FB48844209D101218803FFF72A
:10113000ADFF00214FF48040FFF7A8FF32E0F648F2
:10114000844209D101214804FFF7ADFF00214FF48B
:101150000030FFF7A8FF25E0F048844209D10121C3
:101160008804FFF7A0FF00214FF48020FFF79BFFCA
:1011700018E0EB48844209D10121C804FFF793FF2E
:1011800000214FF40020FFF78EFF0BE0E54884427A
:1011900008D101210805FFF786FF00214FF48010D8
:1011A000FFF781FF10BD2DE9F04786B005460E46DA
:1011B0000024A24600BFA1460027B08900B100BFAD
:1011C0002F462C8A4CF6FF700440F08804432C8292
:1011D000AC894EF6F3100440B08831890843718918
:1011E00008430443AC81AC8A4FF6FF400440B08909
:1011F0000443AC8201A8FFF7C2FEC648874202D171
:10120000DDF810A001E0DDF80CA0A88900F4004092
:1012100040B10AEBCA0000EB0A1031684900B0FB8C
:10122000F1F807E00AEBCA0000EB0A103168890008
:10123000B0FBF1F86420B8FBF0F004012009642150
:1012400001FB1089A88900F4004040B1322000EB76
:10125000C900B0FBF1F000F00700044308E03220C1
:1012600000EB09106421B0FBF1F000F00F00044323
:101270002C8106B0BDE8F0874FF4165101600021C3
:101280008180C18001810C214181002181817047D1
:1012900010B502460020108A4FF2FF0318400B8859
:1012A0004C8823438C882343CC88234318431082E3
:1012B00010BD0021018041808180C180704721B133
:1012C000828942F40052828104E082894DF6FF73E4
:1012D0001A4082817047F0B503460024002600259D
:1012E000002040F66A17B94200D100BF1846C1F38A
:1012F000421401F01F06012707FA06F5012C01D15F
:101300000C3004E0022C01D1103000E014301AB18E
:1013100007682F43076002E00768AF430760F0BD2E
:101320001AB1838A0B43838202E0838A8B438382D0
:101330007047028A4FF6F0731A400282028A0A430B
:101340000282704782894FF2FF731A40828182893C
:101350000A438281704721B1828942F00202828170
:1013600004E082894FF6FD731A4082817047028A39
:101370004FF6DF731A400282028A0A4302827047E4
:1013800021B1028A42F48042028204E0028A4BF6D2
:10139000FF731A4002827047C1F3080282807047CF
:1013A00001468888C0F308007047818941F0010137
:1013B00081817047028BD2B20283028B42EA012202
:1013C00002837047028B02F47F420283028B0A433E
:1013D0000283704721B1828A42F02002828204E0B7
:1013E000828A4FF6DF731A408282704721B1828A67
:1013F00042F01002828204E0828A4FF6EF731A40B4
:101400008282704721B1828A42F00802828204E01F
:10141000828A4FF6F7731A408282704721B182891F
:1014200042F40042828103E08289C2F30E0282818B
:10143000704721B1828A42F40062828204E0828A8B
:101440004FF2FF731A4082827047828A4FF6FB7315
:101450001A408282828A0A438282704721B1828A3C
:1014600042F00202828204E0828A4FF6FD731A4043
:101470008282704702460020B1F5007F00D100BF94
:1014800013880B400BB1012000E00020704701F4ED
:101490000072B2F5007F00D100BFCA4302807047DE
:1014A00070B50246002400230025002040F66A168D
:1014B000B14200D100BFC1F3421501F01F03012664
:1014C00006FA03F3012D02D19689334006E0022D7E
:1014D00002D1168A334001E0968A33400C1201266D
:1014E00006FA04F41688344013B10CB1012000E070
:1014F000002070BD10B50022002340F66A14A142FE
:1015000000D100BF0A1201249440A3B2DC4304803E
:1015100010BD000000380140004400400048004079
:10152000004C00400050004006E042F6E06100BF81
:101530000A00A1F10101FBD10200A0F10100F4D1E8
:10154000704710B506E04FF40051F748FFF75BFB1A
:1015500000B900E0F7E700BF10BD70B504462546AE
:101560004FF40071F148FFF76AFB00261BE005F01D
:10157000800028B14FF48061EC48FFF75EFB04E087
:101580004FF48061E948FFF75AFB4FF40071E748D8
:10159000FFF753FB4FF40071E448FFF750FB680678
:1015A000050E701CC6B2082EE1DB70BD10B50446F6
:1015B0004FF48071DD48FFF740FB4FF48071DB484A
:1015C000FFF73DFB4FF40041D748FFF738FB2046BB
:1015D000FFF7C3FF4FF48071D448FFF72EFB10BD17
:1015E00010B504464FF48071D048FFF726FB4FF446
:1015F0008071CE48FFF723FB4FF40041CA48FFF744
:101600001CFB2046FFF7A9FF4FF48071C748FFF786
:1016100014FB10BD10B52220FFF7C8FFC720FFF74D
:10162000DFFF2020FFF7C2FFFFF78BFF10BD2DE982
:10163000F041064610274FF0FA08242000F081FC04
:1016400000250AE0002405E005FB0741705C00F07E
:101650008DFC641CBC42F7D36D1C4545F2D3FFF7EB
:10166000D9FFBDE8F08170B505463220FFF79EFF37
:10167000002404E0285DFFF7B3FF601CC4B2462CD1
:10168000F8DB70BD10B54FF48041A748FFF7D7FADB
:101690000A20FFF749FF4FF48041A348FFF7CDFA36
:1016A0000A20FFF741FFFFF74CFF1220FFF77EFFF4
:1016B000FFF747FF7420FFF779FF5420FFF790FFF3
:1016C0007E20FFF773FF3B20FFF78AFF0120FFF723
:1016D0006DFFF920FFF784FF0020FFF781FF002056
:1016E000FFF77EFF1120FFF761FF0120FFF778FF72
:1016F0004420FFF75BFF0020FFF772FF0F20FFF78A
:101700006FFF4520FFF752FFF920FFF769FF002028
:10171000FFF766FF0020FFF763FF0020FFF760FF81
:101720003C20FFF743FF0320FFF75AFF2C20FFF771
:101730003DFF7020FFF754FF0320FFF737FF7C4980
:1017400091F84600FFF74CFF0420FFF72FFF784980
:1017500091F84700FFF744FF754991F84800FFF7FB
:101760003FFF734991F84900FFF73AFF3A20FFF72E
:101770001DFF6F4991F84A00FFF732FF3B20FFF74A
:1017800015FF6B4991F84B00FFF72AFF6848FFF7F8
:101790006AFF4E20FFF70AFF0020FFF721FF4F20CE
:1017A000FFF704FFF920FFF71BFF0020FFF718FFEA
:1017B000FFF7C7FE10BD10B54FF480415A48FFF740
:1017C0003EFA0A20FFF7B0FE4FF480415648FFF77B
:1017D00034FA0A20FFF7A8FEFFF7B3FE1220FFF746
:1017E000E5FEFFF7AEFE7420FFF7E0FE5420FFF7A2
:1017F000F7FE7E20FFF7DAFE3B20FFF7F1FE012027
:10180000FFF7D4FE2720FFF7EBFE0120FFF7E8FEED
:101810000120FFF7E5FE1120FFF7C8FE0120FFF7CA
:10182000DFFE4420FFF7C2FE0020FFF7D9FE0F20A5
:10183000FFF7D6FE4520FFF7B9FE2720FFF7D0FEC1
:101840000120FFF7CDFE0020FFF7CAFE0020FFF7C2
:10185000C7FE3C20FFF7AAFE0320FFF7C1FE2C20A5
:10186000FFF7A4FE7020FFF7BBFE0320FFF79EFEEC
:101870002F4991F84600FFF7B3FE0420FFF796FECC
:101880002B4991F84700FFF7ABFE294991F8480032
:10189000FFF7A6FE264991F84900FFF7A1FE3A207E
:1018A000FFF784FE224991F84A00FFF799FE3B209A
:1018B000FFF77CFE1E4991F84B00FFF791FE1C4894
:1018C000FFF7D1FE4E20FFF771FE0020FFF788FEE4
:1018D0004F20FFF76BFE2720FFF782FE0120FFF766
:1018E0007FFEFFF72EFE10BD10B52220FFF75EFE33
:1018F0000C20FFF775FE2020FFF758FEFFF721FEB2
:1019000010BD70B504462420FFF750FE002504E00A
:101910002078FFF765FE641C6D1CB5F57A6FF7D370
:10192000FFF778FE70BD0000001801400014014070
:10193000848A000810B52C20FFF738FE2620FFF718
:101940004FFEFFF7FEFDFE48FFF78DFE3720FFF745
:101950002DFE0020FFF744FE0020FFF741FE00208F
:10196000FFF73EFE0020FFF73BFE4020FFF738FE6A
:101970000020FFF735FE0020FFF732FE2220FFF7A0
:1019800015FEC020FFF72CFE2020FFF70FFEFFF70B
:10199000D8FD10BD70B5044626462420FFF706FE8C
:1019A000002504E02078FFF71BFE641C6D1CB5F5D4
:1019B0007A6FF7D334462620FFF7F8FD002504E0C0
:1019C0002078FFF70DFE641C6D1CB5F57A6FF7D318
:1019D000FFF720FEFFF7AEFF70BD2DE9FE4F044676
:1019E0000F4690469946DDF830B0E40804EBDB0082
:1019F000401E0290002001903D46FF2F02D9280A88
:101A00000190EDB20020009007EB0900461EFF2E6A
:101A100002D9300A0090F6B24420FFF7C7FDE0B2C9
:101A2000FFF7DEFD0299C8B2FFF7DAFD4520FFF7A8
:101A3000BDFDE8B2FFF7D4FD0199C8B2FFF7D0FDB4
:101A4000F0B2FFF7CDFD0099C8B2FFF7C9FD4E20F7
:101A5000FFF7ACFDE0B2FFF7C3FD4F20FFF7A6FD97
:101A6000E8B2FFF7BDFD0199C8B2FFF7B9FD242028
:101A7000FFF79CFD4FF0000A07E098F80000FFF721
:101A8000AFFD08F101080AF1010A09FB0BF0BAEBFE
:101A9000D00FF2D3FFF728FFBDE8FE8F10B510205E
:101AA000FFF784FD0120FFF79BFD6420FFF73CFD5D
:101AB00010BD70B52420FFF779FD002408E0002553
:101AC00003E0FF20FFF78CFD6D1C192DF9D3641C7A
:101AD000FA2CF4D3FFF79EFD70BD2DE9FF4F81B0C6
:101AE0008346DDE919784FEADB0B0BEBD800401E8B
:101AF00000904FF000090298451E0298FF2802D975
:101B00004FEA1529EDB24FF0000A02983844441EFE
:101B1000FF2C02D94FEA142AE4B24420FFF746FD15
:101B20000BF0FF00FFF75CFD0099C8B2FFF758FD0E
:101B30004520FFF73BFDE8B2FFF752FD09F0FF003B
:101B4000FFF74EFDE0B2FFF74BFD0AF0FF00FFF795
:101B500047FD4E20FFF72AFD0BF0FF00FFF740FD89
:101B60004F20FFF723FDE8B2FFF73AFD09F0FF0031
:101B7000FFF736FD2420FFF719FD002607E0039943
:101B80000878FFF72DFD0398401C0390761C07FB97
:101B900008F0B6EBD00FF2D30498C0080490049874
:101BA00000EBD800401E00904FF000090E98451E33
:101BB0000E98FF2802D94FEA1529EDB24FF0000A1E
:101BC0000E983844441EFF2C02D94FEA142AE4B27E
:101BD0004420FFF7EBFC0499C8B2FFF701FD009920
:101BE000C8B2FFF7FDFC4520FFF7E0FCE8B2FFF7C5
:101BF000F7FC09F0FF00FFF7F3FCE0B2FFF7F0FCA1
:101C00000AF0FF00FFF7ECFC4E20FFF7CFFC049931
:101C1000C8B2FFF7E5FC4F20FFF7C8FCE8B2FFF7BA
:101C2000DFFC09F0FF00FFF7DBFC2420FFF7BEFC20
:101C3000002607E00F990878FFF7D2FC0F98401CA8
:101C40000F90761C07FB08F0B6EBD00FF2D310987C
:101C5000C0081090109800EBD800401E00904FF084
:101C600000091198451E1198FF2802D94FEA15293D
:101C7000EDB24FF0000A11983844441EFF2C02D9EF
:101C80004FEA142AE4B24420FFF790FC1099C8B23E
:101C9000FFF7A6FC0099C8B2FFF7A2FC4520FFF7AA
:101CA00085FCE8B2FFF79CFC09F0FF00FFF798FC09
:101CB000E0B2FFF795FC0AF0FF00FFF791FC4E2021
:101CC000FFF774FC1099C8B2FFF78AFC4F20FFF7AA
:101CD0006DFCE8B2FFF784FC09F0FF00FFF780FC21
:101CE0002420FFF763FC002607E012990878FFF72D
:101CF00077FC1298401C1290761C07FB08F0B6EB9C
:101D0000D00FF2D31398C0081390139800EBD800AB
:101D1000401E00904FF000091498451E1498FF28AB
:101D200002D94FEA1529EDB24FF0000A1498384451
:101D3000441EFF2C02D94FEA142AE4B2442001E0E9
:101D4000D08A0008FFF732FC1399C8B2FFF748FCAD
:101D50000099C8B2FFF744FC4520FFF727FCE8B222
:101D6000FFF73EFC09F0FF00FFF73AFCE0B2FFF797
:101D700037FC0AF0FF00FFF733FC4E20FFF716FC9C
:101D80001399C8B2FFF72CFC4F20FFF70FFCE8B205
:101D9000FFF726FC09F0FF00FFF722FC2420FFF7E5
:101DA00005FC002607E015990878FFF719FC15983F
:101DB000401C1590761C07FB08F0B6EBD00FF2D351
:101DC0001698C0081690169800EBD800401E009098
:101DD0004FF000091798451E1798FF2802D94FEABF
:101DE0001529EDB24FF0000A17983844441EFF2C15
:101DF00002D94FEA142AE4B24420FFF7D7FB169920
:101E0000C8B2FFF7EDFB0099C8B2FFF7E9FB452028
:101E1000FFF7CCFBE8B2FFF7E3FB09F0FF00FFF7A9
:101E2000DFFBE0B2FFF7DCFB0AF0FF00FFF7D8FBB7
:101E30004E20FFF7BBFB1699C8B2FFF7D1FB4F202E
:101E4000FFF7B4FBE8B2FFF7CBFB09F0FF00FFF7A9
:101E5000C7FB2420FFF7AAFB002607E018990878A3
:101E6000FFF7BEFB1898401C1890761C07FB08F083
:101E7000B6EBD00FF2D3FFF737FD05B0BDE8F08F1A
:101E800008B501216020FFF7E7F84FF4E060ADF8F6
:101E9000000010208DF8030002208DF80200694632
:101EA0003D48FEF71DFE4FF44040ADF80000102005
:101EB0008DF8030002208DF8020069463748FEF7CE
:101EC0000FFE4FF40050ADF8000048208DF80300DD
:101ED00002208DF8020069463048FEF701FE4FF4FB
:101EE0008050ADF8000010208DF8030002208DF81E
:101EF000020069462948FEF7F3FD08BD70B50446A7
:101F000000251BE04FF400712348FEF798FE04F013
:101F1000800028B14FF480611F48FEF78EFE04E078
:101F20004FF480611C48FEF78AFE6006040E4FF4F1
:101F300000711948FEF781FE681CC5B2082DE1DB6F
:101F400070BD10B504464FF480711348FEF777FE5C
:101F50004FF400411148FEF772FE2046FFF7CEFF16
:101F60004FF480710C48FEF768FE10BD10B50446B2
:101F70004FF480710848FEF762FE4FF400410748B5
:101F8000FEF75BFE2046FFF7B9FF4FF48071024871
:101F9000FEF753FE10BD0000001401400018014080
:101FA0002DE9F0410646069F0020F74C20602046B0
:101FB00006600181428187810C464FEAE17C01EB9A
:101FC0005C7C4FEAEC0CA1EBCC0CBCF1000F07D110
:101FD0000D464FEAE57C05EB5C7C4FEAEC0C08E033
:101FE00008464FEAE17C01EB5C7C4FEAEC0C0CF11B
:101FF000010CDFF89483A8F812C040468282C381A6
:102000000020444620820BB1B42B03D1DE488180EE
:10201000C28002E0DC488280C180BDE8F081DA49FC
:102020000860704730B15A2804D0B42802D0B0F507
:10203000877F01D1D449C881704728B1012803D0D6
:10204000022801D0032801D1CF49088270472DE929
:10205000F04103460C461746CB4EB6889E4203DB42
:10206000C94EF688A64201DABDE8F081C64EF6896F
:102070003EB15A2E08D0B42E0DD0B6F5877F1CD1B4
:1020800014E01846214619E0BF4E3689361B761EED
:10209000B0B2194612E0BC4E3689F61A761EB0B2BE
:1020A000B94E7689361B761EB1B207E02046B64E91
:1020B0007689F61A761EB1B200E0D5E700BFB24EBF
:1020C000368A36B1012E05D0022E09D0032E18D142
:1020D0000CE017E0AC4E3689361A761EB0B211E02D
:1020E000A94E7689761A761EB1B20BE0A64E3689D5
:1020F000361A761EB0B2A44E7689761A761EB1B222
:1021000000E0B1E700BFA04E3689864203DB9E4E59
:1021100076898E4200DAA7E706464FEAE07C00EBBC
:102120005C7C4FEAEC0CDFF86082B8F8128001FBAF
:1021300008C2954E3668B55CAFB906464FEAE07CFA
:1021400000EB5C7C4FEAEC0CA0EBCC084FF0800C71
:102150004CFA08FC25EA0C0CDFF82C82D8F8008039
:1021600008F802C014E006464FEAE07C00EB5C7C15
:102170004FEAEC0CA0EBCC084FF0800C4CFA08FCBA
:102180004CEA050CDFF80082D8F8008008F802C09D
:1021900000BF69E730B50246002110E0002008E0EA
:1021A000794C648A01FB0403774D2D68EA54441C82
:1021B000A0B2754C648A8442F2DC4C1CA1B2724C11
:1021C000A48A8C42EADC30BD2DE9F04706460F4672
:1021D00090469946DDF820A03D460CE0344606E0E6
:1021E000524629462046FFF732FF601C84B2444520
:1021F000F6DB681C85B24D45F0DBBDE8F0872DE9C4
:10220000F0470746884691461C46DDF820A05E4808
:102210008088B84203DB5C48C088404501DABDE8ED
:10222000F087BAF1010F23D100251CE0002613E04E
:102230007819001B03D408EB0600001B00D50FE043
:1022400008EB0602121B91B27A19121B90B24A4691
:10225000FFF7FDFE701C06B26000401EB042E7DCD6
:1022600000BF681C05B26000401EA842DEDC15E01D
:10227000002511E000260BE008EB0602521E91B289
:102280007A19521E90B24A46FFF7E1FE701C06B260
:10229000A642F1DB681C05B2A542EBDB00BFBEE73E
:1022A0002DE9F04F85B004460D4616461F463648C8
:1022B0008088A0420BDB3448C088A84207DB324844
:1022C0008088B04203DB3048C088B84202DA05B0EB
:1022D000BDE8F08FA046AA46301B01D4301B00E0B9
:1022E000A01B8346781B002801DC781B00E0E81B5C
:1022F0000490B44201DA012001E04FF0FF30039076
:10230000BD4201DA012001E04FF0FF300290049855
:102310000BEB00090020019000BF0198401CC0B2E7
:1023200001900F98012811D10321019890FBF1F23F
:1023300001FB120050B901200090FF225146404697
:10234000109BFFF75CFF0020019007E00120009048
:1023500051464046109B0E9AFFF751FF4FEA490144
:102360000498814208DBB04500D115E0049881440F
:10237000039840441FFA80F84FEA49005845CCDCE6
:10238000BA4503D108E00000C4100020D9440298E7
:1023900050441FFA80FAC0E700BF00BF97E72DE95D
:1023A000FE4F81460F4692469846DDE90DB50C9CDE
:1023B000FE48808848450BDBFC48C088B84207DBF4
:1023C000FA488088504503DBF848C088404501DA68
:1023D000BDE8FE8FBBF1000F10D03E460BE00020A1
:1023E000334652463146CDE9010500944846FFF791
:1023F00057FF701C86B24645F1DB27E000203B46C4
:1024000052463946CDE9010500944846FFF748FF9A
:10241000002043464A463946CDE901050094484626
:10242000FFF73EFF00203B4652464146CDE90105FD
:1024300000945046FFF734FF002043464A46414689
:10244000CDE9010500945046FFF72AFF00BFBFE722
:102450002DE9F84F05460E4692469B46D3488088A4
:10246000A84203DBD148C088B04201DCBDE8F88F48
:1024700000240FFA8AF70320A0EB4A000FFA80F934
:102480000A98012877D172E0A0465BE0012006EBB4
:10249000080291B22A19009090B201235A46FFF720
:1024A000AEFE012006EB080291B22A1B009090B20A
:1024B00001235A46FFF7A3FE0120321991B2A5EB82
:1024C0000802009090B201235A46FFF798FE0120BF
:1024D000321B91B2A5EB0802009090B201235A463C
:1024E000FFF78DFE0120A6EB080291B22A1B009097
:1024F00090B201235A46FFF782FE0120A6EB0802A4
:1025000091B22A19009090B201235A46FFF777FE44
:102510000120321B91B205EB0802009090B201231A
:102520005A46FFF76CFE0120321991B205EB080202
:10253000009090B201235A46FFF761FE08F10100B6
:102540000FFA80F8B845A1DDB9F1000F05DAA00057
:10255000801D48440FFA80F907E0E01B80000A3034
:1025600048440FFA80F9781E07B2601C04B2BC42DE
:102570008ADD66E0FFE762E00120F21991B22A19D4
:10258000009090B25A460B9BFFF739FE0120F219DA
:1025900091B22A1B009090B25A460B9BFFF72FFE78
:1025A0000120321991B2EA1B009090B25A460B9B5F
:1025B000FFF725FE0120321B91B2EA1B009090B27A
:1025C0005A460B9BFFF71BFE0120F21B91B22A1B00
:1025D000009090B25A460B9BFFF711FE0120F21BB0
:1025E00091B22A19009090B25A460B9BFFF707FE52
:1025F0000120321B91B2EA19009090B25A460B9B0F
:10260000FFF7FDFD0120321991B2EA19009090B256
:102610005A460B9BFFF7F3FDB9F1000F05DAA00056
:10262000801D48440FFA80F907E0E01B80000A3063
:1026300048440FFA80F9781E07B2601C04B2BC420D
:102640009ADD00BF12E72DE9F04F07468846924613
:102650001D4656488088B84203DB5448C088404530
:1026600001DABDE8F08FA988CA1701EB5272D210C7
:102670000846CB1701EB5373DB10A1EBC3030BB17F
:10268000012300E000231344AAF12002B5F806C09C
:1026900002FB0CF203FB02FB286800EB0B0900268F
:1026A00051E0002440E00998FF2814D1E11704EB21
:1026B0005171C910A4EBC1028021114199F8002089
:1026C000114029B308EB060291B23A1990B20A9A66
:1026D000FFF7BDFC1CE0E11704EB5171C910A4EB3E
:1026E000C1028021114199F80020114041B108EB4D
:1026F000060291B23A1990B20A9AFFF7A8FC07E0D5
:1027000008EB060291B23A1990B2099AFFF79FFCC2
:10271000E11704EB5171C910A4EBC101072901D1E4
:1027200009F10109601C84B2A888A042BBDCA8881A
:10273000C11700EB5171C910A0EBC10109B109F13A
:102740000109701C86B2E888B042AADC00BF88E7A5
:102750002DE9FC4F04460E4617461D46DDE90BAB3E
:10276000A046B14611488088A04203DB0F48C088CC
:10277000B04201DABDE8FC8F22E0A88840440B4952
:102780008988884204DDA046E88848441FFA80F919
:10279000E88848440549C988884201DDA046B14619
:1027A000CDE900AB3A782B46494601E0C410002041
:1027B0004046FFF748FF7F1CA88840441FFA80F876
:1027C00038780028D9D100BFD4E72DE9FF4F1D4646
:1027D000DDF80890DDF80080DDF804A0F7E099F856
:1027E00000007F2875DC002769E0532078432968C2
:1027F00011F8100099F8001088425FD153207843F7
:10280000296801EB400000F1020B002652E0002491
:1028100042E00D98FF2815D1E11704EB5171C91062
:10282000A4EBC102802111419BF80020114041B36B
:102830000AEB060291B208EB040290B20E9AFFF77F
:1028400006FC1EE0E11704EB5171C910A4EBC102B4
:10285000802111419BF80020114049B10AEB06028A
:1028600091B208EB040290B20E9AFFF7F0FB08E079
:102870000AEB060291B208EB040290B20D9AFFF740
:10288000E6FBE11704EB5171C910A4EBC101072964
:1028900001D10BF1010B641C2889A042B9DC288905
:1028A000C11700EB5171C910A0EBC10109B10BF1C7
:1028B000010B761C6889B042A9DC03E07F1CA88864
:1028C000B84292DC00BF09F10109E88880447EE04B
:1028D000FFE7002773E053207843296811F81000C0
:1028E00099F80010884269D153207843296801EB98
:1028F0004000407899F8011088425FD15320784316
:10290000296801EB400000F1020B002652E0002490
:1029100042E00D98FF2815D1E11704EB5171C91061
:10292000A4EBC102802111419BF80020114041B36A
:102930000AEB060291B208EB040290B20E9AFFF77E
:1029400086FB1EE0E11704EB5171C910A4EBC10234
:10295000802111419BF80020114049B10AEB060289
:1029600091B208EB040290B20E9AFFF770FB08E0F8
:102970000AEB060291B208EB040290B20D9AFFF73F
:1029800066FBE11704EB5171C910A4EBC1010729E3
:1029900001D10BF1010B641C2889A042B9DC288904
:1029A000C11700EB5171C910A0EBC10109B10BF1C6
:1029B000010B761C6889B042A9DC03E07F1CA88863
:1029C000B84288DC00BF09F102092889804499F8DF
:1029D000000000287FF403AFBDE8FF8F2DE9F04F22
:1029E000ADF5037D06460F4615469946DDF834B22F
:1029F000DDF830A20024A0464FF4807143A800F017
:102A000016F94FF4807103A800F011F943A8029061
:102A100082488088B04203DB8048C088B84203DA2D
:102A20000DF5037DBDE8F08F0CE00A2095FBF0F179
:102A300000FB1150303003A90855601C04B20A2075
:102A400095FBF0F5002DF0D10BE0601E03A9085CAA
:102A500043A901F8080008F101000FFA80F8601E90
:102A600004B2002CF1DC4B46CDE900AB39463046D0
:102A7000029AFFF76DFE00BFD2E72DE9FF4F85B048
:102A8000054690469A46DDE9126765A207CA02AB81
:102A900007C3BAF8044098F804000A2190FBF1F04B
:102AA00002A911F8009053464A46CDE9006728462E
:102AB0000699FFF7C8FD98F804000A2190FBF1F28F
:102AC00001FB120002A911F80090291988B253469F
:102AD0004A46CDE900670699FFF7B5FDA146E11723
:102AE00004EB91712A1902EBA101A34604EBDB72FE
:102AF00001EB620188B253463A22CDE9006706999C
:102B0000FFF7A1FD98F805000A2190FBF1F002A95A
:102B100011F800B004EBD97105EB440202EB61013E
:102B200088B253465A46CDE900670699FFF78BFDF8
:102B300098F805000A2190FBF1F201FB120002A9AE
:102B400011F800B004EBD97104EB44022A4402EB03
:102B5000610188B253465A46CDE900670699FFF7EE
:102B600072FD04EBD97105EB840202EB6101A3460F
:102B7000E21704EB9272A1EBA20188B253463A220B
:102B8000CDE900670699FFF75EFD98F806000A2177
:102B900090FBF1F002A911F8009004EB84012944A4
:102BA00088B253464A46CDE900670699FFF74BFDC8
:102BB00098F806000A2190FBF1F201FB120002A92D
:102BC00011F8009004EB440105EB410188B2534633
:102BD0004A46CDE900670699FFF735FD09B0BDE823
:102BE000F08F30B502460023002111E0002009E0FB
:102BF0000A4C648A01FB0403D45C084D2D68EC5434
:102C0000441CA0B2054C648A8442F1DC4C1CA1B285
:102C1000024CA48A8C42E9DC30BD0000C4100020C4
:102C200030313233343536373839000070474FF0A1
:102C3000000200B5134694469646203922BFA0E80C
:102C40000C50A0E80C50B1F12001BFF4F7AF090718
:102C500028BFA0E80C5048BF0CC05DF804EB890009
:102C600028BF40F8042B08BF704748BF20F8022B4C
:102C700011F0804F18BF00F8012B70477047704764
:102C800070477047754600F029F8AE460500694662
:102C9000534620F00700854618B020B5FDF740FEEA
:102CA000BDE820404FF000064FF000074FF000084D
:102CB0004FF0000B21F00701AC46ACE8C009ACE8CE
:102CC000C009ACE8C009ACE8C0098D4670470446AD
:102CD000AFF300802046FDF772FA0000004870470D
:102CE000DC100020FFFFFFFFFFFFFFFFFFFFFFFFE4
:102CF000FFFFFFFFFFFFFFFFFFFFFFFFFFFFFFFFE4
:102D0000FFFFFFFFFFFFFFFFFFFFFFFFFFFFFFFFD3
:102D1000FFDFFFF7FFDFFFF7FFDFFFF7FFDFFFE773
:102D2000FF800007FF000007FF000007FFFFFFE72D
:102D3000FFFFFFF7FFFFFFF7FFFFFFF7FFFFFFFFBB
:102D4000FFFFFFFFFFFFFFFFFFFFFFFFFFFFFFFF93
:102D5000FFFFFFFFFFFFFFFFFFFFFFFFFFFFFFFF83
:102D6000FFFFFFFFFFFFFFFFFFFFFFFFFFFFFFFF73
:102D7000FFFFFFFFFFFFFFFFFFFFFFFFFFFFFFFF63
:102D8000FFFFFFFFFFFFFFFFFFFFFFFFFFE1FFC7A9
:102D9000FFC1FF87FF99FF27FF3FFE67FF7FFCE72B
:102DA000FF7FF9E7FF7FF3E7FF7FE7E7FF3FCFE72D
:102DB000FF1F1FE7FF803FC7FF807E07FFE0FE1F6A
:102DC000FFFFFFFFFFFFFFFFFFFFFFFFFFFFFFFF13
:102DD000FFFFFFFFFFFFFFFFFFFFFFFFFFFFFFFF03
:102DE000FFFFFFFFFFFFFFFFFFFFFFFFFFFFFFFFF3
:102DF000FFFFFFFFFFFFFFFFFFFFFFFFFFFFFFFFE3
:102E0000FFFFFFFFFFFFFFFFFFFFFFFFFFC3FE1FEF
:102E1000FF83FE0FFF83FE0FFF3FFFE7FF7FBFF73C
:102E2000FF7FBFF7FF7FBFF7FF3F1FF7FF1E1FE7C3
:102E3000FF804FCFFF80C00FFFE1E01FFFFFF87F53
:102E4000FFFFFFFFFFFFFFFFFFFFFFFFFFFFFFFF92
:102E5000FFFFFFFFFFFFFFFFFFFFFFFFFFFFFFFF82
:102E6000FFFFFFFFFFFFFFFFFFFFFFFFFFFFFFFF72
:102E7000FFFFFFFFFFFFFFFFFFFFFFFFFFFFFFFF62
:102E8000FFFFFFFFFFFFFFFFFFFFFDFFFFFFF1FF62
:102E9000FFFFE1FFFFFF8DFFFFFE1DFFFFFC7DFB3E
:102EA000FFF0FDFBFFE3FDFBFF800003FF000003DD
:102EB000FF000003FF000003FFFFFDFBFFFFFDFB22
:102EC000FFFFFDFBFFFFFFFFFFFFFFFFFFFFFFFF18
:102ED000FFFFFFFFFFFFFFFFFFFFFFFFFFFFFFFF02
:102EE000FFFFFFFFFFFFFFFFFFFFFFFFFFFFFFFFF2
:102EF000FFFFFFFFFFFFFFFFFFFFFFFFFFFFFFFFE2
:102F0000FFFFFFFFFFFFFFFFFFFFFFFFFFFFFE1FB2
:102F1000FFF81E0FFF001E67FF073FF7FF3E7FF71A
:102F2000FF3EFFF7FF3EFFF7FF3EFFF7FF3E7FE765
:102F3000FF3E3F8FFF3F000FFF3F801FFF3FE07FBF
:102F4000FFFFFFFFFFFFFFFFFFFFFFFFFFFFFFFF91
:102F5000FFFFFFFFFFFFFFFFFFFFFFFFFFFFFFFF81
:102F6000FFFFFFFFFFFFFFFFFFFFFFFFFFFFFFFF71
:102F7000FFFFFFFFFFFFFFFFFFFFFFFFFFFFFFFF61
:102F8000FFFFFFFFFFFFFFFFFFFFFFFFFFFE00FF51
:102F9000FFF0003FFFE0001FFFC38F0FFF9F9FC7A1
:102FA000FF3F3FE7FF3F7FF7FF7F7FF7FF7F7FF721
:102FB000FF7F3FE7FF0F1FCFFF8F800FFFCFC01FA7
:102FC000FFFFE07FFFFFFFFFFFFFFFFFFFFFFFFFB0
:102FD000FFFFFFFFFFFFFFFFFFFFFFFFFFFFFFFF01
:102FE000FFFFFFFFFFFFFFFFFFFFFFFFFFFFFFFFF1
:102FF000FFFFFFFFFFFFFFFFFFFFFFFFFFFFFFFFE1
:10300000FFFFFFFFFFFFFFFFFFFFFFFFFFC3FFFF0C
:10301000FF03FFFFFF0FFFFFFF1FFFFFFF3FFE0745
:10302000FF3FF007FF3F8007FF3E0FFFFF387FFFA6
:10303000FF21FFFFFF07FFFFFF1FFFFFFF3FFFFF16
:10304000FFFFFFFFFFFFFFFFFFFFFFFFFFFFFFFF90
:10305000FFFFFFFFFFFFFFFFFFFFFFFFFFFFFFFF80
:10306000FFFFFFFFFFFFFFFFFFFFFFFFFFFFFFFF70
:10307000FFFFFFFFFFFFFFFFFFFFFFFFFFFFFFFF60
:10308000FFFFFFFFFFFFFFFFFFFFF83FFFE1F01F24
:10309000FFC0E00FFF8047CFFF1C0FE7FF3E1FF789
:1030A000FF7F1FF7FF7F9FF7FF7F8FF7FF3F87E7C8
:1030B000FF1E03CFFF80600FFFC0F01FFFE1F83F4E
:1030C000FFFFFFFFFFFFFFFFFFFFFFFFFFFFFFFF10
:1030D000FFFFFFFFFFFFFFFFFFFFFFFFFFFFFFFF00
:1030E000FFFFFFFFFFFFFFFFFFFFFFFFFFFFFFFFF0
:1030F000FFFFFFFFFFFFFFFFFFFFFFFFFFFFFFFFE0
:10310000FFFFFFFFFFFFFFFFFFF03FFFFFC01F8F2D
:10311000FF800F8FFF8FC787FF3FE7F7FF7FF7F72E
:10312000FF7FF7F7FF7FF7E7FF7FE7C7FF3FCF8F0F
:10313000FF8F8C1FFFC0003FFFE0007FFFF803FF01
:10314000FFFFFFFFFFFFFFFFFFFFFFFFFFFFFFFF8F
:10315000FFFFFFFFFFFFFFFFFFFFFFFFFFFFFFFF7F
:10316000FFFFFFFFFFFFFFFFFFFFFFFFFFFFFFFF6F
:10317000FFFFFFFFFFFFFFE003FFFFFFFFFFFC007C
:10318000001FFFFFFFFFE0000003FFFFFFFF8000C5
:103190000000FFFFFFFE000000003FFFFFFC0000FB
:1031A00000001FFFFFF8000000000FFFFFF003FF0B
:1031B000FFE007FFFFE03FFFFFFE03FFFFE0FFFF31
:1031C000FFFF83FFFFC1FFFFFFFFC1FFFFC7FFFF3F
:1031D000FFFFF1FFFFC7FFFFFFFFF1FFFFCFFFFF83
:1031E000FFFFF9FFFFCFFFFFFFFFF9FFFFC7FFFF63
:1031F000FFFFF1FFFFC7FFFFFFFFF1FFFFC3FFFF6F
:10320000FFFFE1FFFFE0FFFFFFFF83FFFFE03FFF66
:10321000FFFE03FFFFF003FFFFC007FFFFF8000002
:1032200000000FFFFFFC000000001FFFFFFE00007A
:1032300000003FFFFFFF80000000FFFFFFFFE000F6
:103240000003FFFFFFFFFE00003FFFFFFFFFFFFF48
:10325000FFFFFFFFFFFFFFFFFFFFFFFFFFFFFFFF7E
:10326000FFFFFFFFFFFFFFFFFFFFFFFFFFFFFFFF6E
:10327000FFFFFFFFFFFFFFFFFFFFFFFFFFFFFFFF5E
:10328000FFFFFFFFFFFFFFFFFFFFFFFFFFFFFFFF4E
:10329000FFFFFFFFFFFCFFFFFFFFF3FFFFFCFFFF50
:1032A000FFFFF3FFFFFCFFFFFFFFF3FFFFFCFFFF4C
:1032B000FFFFF3FFFFFCFFFFFFFFF3FFFFFCFFFF3C
:1032C000FFFFF3FFFFF8FFFFFFFFE3FFFFF8000042
:1032D000000003FFFFF00000000003FFFFF000000C
:1032E000000003FFFFC00000000003FFFFC000005C
:1032F000000003FFFFC00000000003FFFFFFFFFF0F
:10330000FFFFC3FFFFFFFFFFFFFFE3FFFFFFFFFF25
:10331000FFFFF3FFFFFFFFFFFFFFF3FFFFFFFFFFD5
:10332000FFFFF3FFFFFFFFFFFFFFF3FFFFFFFFFFC5
:10333000FFFFF3FFFFFFFFFFFFFFFFFFFFFFFFFFA9
:10334000FFFFFFFFFFFFFFFFFFFFFFFFFFFFFFFF8D
:10335000FFFFFFFFFFFFFFFFFFFFFFFFFFFFFFFF7D
:10336000FFFFFFFFFFFFFFFFFFFFFFFFFFFFFFFF6D
:10337000FFFFFFFFFFFFFFFFFFFFE3FFFFFFC1FFB7
:10338000FFFF83FFFFFF00FFFFFE03FFFFFC007F47
:10339000FFFC03FFFFF8007FFFF803FFFFF0007F53
:1033A000FFF043FFFFF0007FFFE1C3FFFFE1F07F8D
:1033B000FF83C3FFFFE3FFFFFF07C3FFFFE7FFFF3D
:1033C000FE0FC3FFFFC7FFFFFC1FC3FFFFCFFFFFC1
:1033D000F83FC3FFFFCFFFFFF07FC3FFFFCFFFFF2B
:1033E000E0FFC3FFFFCFFFFFC1FFC3FFFFCFFFFF22
:1033F00083FFC3FFFFC7FFFF07FFC3FFFFC7FFFC3C
:103400000FFFC3FFFFC3FFF01FFFC3FFFFE0FFC0BD
:103410003FFFC3FFFFE000007FFF83FFFFF00000DE
:10342000FFFF83FFFFF00001FFFE03FFFFF800072F
:10343000FFF003FFFFFC000FFFE003FFFFFF007F33
:10344000FFE00FFFFFFFFFFFFFE7FFFFFFFFFFFFB3
:10345000FFFFFFFFFFFFFFFFFFFFFFFFFFFFFFFF7C
:10346000FFFFFFFFFFFFFFFFFFFFFFFFFFFFFFFF6C
:10347000FFFFFFFFFFFFFFFFFFFFFFFFFFFFFFFF5C
:10348000FFF87FFFFFFE07FFFFF01FFFFFFC03FFBA
:10349000FFE00FFFFFF803FFFFE007FFFFF003FF70
:1034A000FFE007FFFFE003FFFFE003FFFFE3C3FFD1
:1034B000FFF0E3FFFFE7FFFFFFFFF1FFFFC7FFFCA8
:1034C000FFFFF1FFFFCFFFFCFFFFF9FFFFCFFFFC86
:1034D000FFFFF9FFFFCFFFFCFFFFF9FFFFCFFFFC6E
:1034E000FFFFF9FFFFCFFFF87FFFF9FFFFC7FFF8EE
:1034F0007FFFF1FFFFC3FFF07FFFF1FFFFC1FFE29E
:103500003FFFE1FFFFE07F821FFFC3FFFFE00003FB
:103510000FFF83FFFFF0000701FC07FFFFF8000F1C
:10352000800007FFFFFC001F80000FFFFFFE003F31
:10353000C0001FFFFFFF80FFF0003FFFFFFFFFFF06
:10354000F800FFFFFFFFFFFFFF07FFFFFFFFFFFF89
:10355000FFFFFFFFFFFFFFFFFFFFFFFFFFFFFFFF7B
:10356000FFFFFFFFFFFFFFFFFFFFFFFFFFFFFFFF6B
:10357000FF7FFFFFFFFFFFFFFC7FFFFFFFFFFFFF5E
:10358000F87FFFFFFFFFFFFFE07FFFFFFFFFFFFF71
:10359000807FFFFFFFFFFFFF027FFFFFFFFFFFFCBA
:1035A0000E7FFFFFFFFFFFF83E7FFFFFFFFFFFE003
:1035B0007E7FFFFFFFFFFF81FE7FFFFFFFFFFF0317
:1035C000FE7FFFFFFFFFFC0FFE7FF3FFFFFFF83FD3
:1035D000FE7FF3FFFFFFE07FFE7FF3FFFFFFC1FFF2
:1035E000FE7FF3FFFFFF03FFFE7FF3FFFFFC0FFFF4
:1035F000FE7FF3FFFFF80000000003FFFFE0000084
:10360000000003FFFFE00000000003FFFFE00000F8
:10361000000003FFFFE00000000003FFFFE00000E8
:10362000000003FFFFFFFFFFFE7FF3FFFFFFFFFF31
:10363000FE7FF3FFFFFFFFFFFE7FF3FFFFFFFFFFB4
:10364000FE7FF3FFFFFFFFFFFE7FF3FFFFFFFFFFA4
:10365000FE7FF3FFFFFFFFFFFE7FFFFFFFFFFFFF88
:10366000FFFFFFFFFFFFFFFFFFFFFFFFFFFFFFFF6A
:10367000FFFFFFFFFFFFFFFFFFFFFFFFFFFFFFFF5A
:10368000FFF07FFFFFFFFFFFFFE03FFFFFFFF000C6
:103690001FC01FFFFFE000001FC00FFFFFE0000082
:1036A0001FC007FFFFE0000C1FC003FFFFE1FFF892
:1036B0007FE1E3FFFFE1FFF0FFFFF3FFFFE1FFF139
:1036C000FFFFF1FFFFE1FFF1FFFFF1FFFFE1FFE38C
:1036D000FFFFF9FFFFE1FFE3FFFFF9FFFFE1FFE37A
:1036E000FFFFF9FFFFE1FFE3FFFFF9FFFFE1FFE36A
:1036F000FFFFF9FFFFE1FFE1FFFFF1FFFFE1FFE166
:10370000FFFFE1FFFFE1FFE0FFFFC3FFFFE1FFF08D
:103710003FFF83FFFFE1FFF00FFC03FFFFE1FFF836
:10372000000007FFFFE1FFF800000FFFFFE1FFFCD3
:1037300000001FFFFFE1FFFF00003FFFFFE3FFFF6F
:103740008000FFFFFFFFFFFFF80FFFFFFFFFFFFFFE
:10375000FFFFFFFFFFFFFFFFFFFFFFFFFFFFFFFF79
:10376000FFFFFFFFFFFFFFFFFFFFFFFFFFFFFFFF69
:10377000FFFFFFFFFFFFFFF801FFFFFFFFFFFE005E
:103780000007FFFFFFFFF0000001FFFFFFFFC00089
:1037900000007FFFFFFF000000001FFFFFFE000092
:1037A00000000FFFFFFC0000000007FFFFF807F814
:1037B0001FF807FFFFF03FF07FFF03FFFFF0FFE080
:1037C000FFFF83FFFFE1FFE1FFFFE1FFFFE3FFE317
:1037D000FFFFF1FFFFC7FFC3FFFFF1FFFFC7FFC7F9
:1037E000FFFFF9FFFFCFFFC7FFFFF9FFFFCFFFC7C5
:1037F000FFFFF9FFFFCFFFC7FFFFF9FFFFCFFFC3B9
:10380000FFFFF1FFFFC7FFC1FFFFF1FFFFC01FC0B8
:10381000FFFFE3FFFFC01FE07FFF83FFFFE01FE02C
:103820000FF807FFFFF01FF000000FFFFFF01FF081
:1038300000000FFFFFFC3FFC00003FFFFFFFFFFE0B
:1038400000007FFFFFFFFFFFC001FFFFFFFFFFFF43
:10385000FFFFFFFFFFFFFFFFFFFFFFFFFFFFFFFF78
:10386000FFFFFFFFFFFFFFFFFFFFFFFFFFFFFFFF68
:10387000FFFFFFFFFFFFFFFFFFFFFFFFFFFFF3FF64
:10388000FFFFFFFFFFFC03FFFFFFFFFFFFE003FF62
:10389000FFFFFFFFFFE007FFFFFFFFFFFFE03FFF2E
:1038A000FFFFFFFFFFE07FFFFFFFFFFFFFE0FFFFE6
:1038B000FFFFFFFFFFE1FFFFFFFFFFFFFFE1FFFF54
:1038C000FFE003FFFFE1FFFFFE0001FFFFE1FFFF5D
:1038D000F00001FFFFE1FFFFC00001FFFFE1FFFF7C
:1038E000000001FFFFE1FFFC000001FFFFE1FFE03E
:1038F000000003FFFFE1FF800FFFFFFFFFE1FE007D
:103900007FFFFFFFFFE1FC03FFFFFFFFFFE1F01F71
:10391000FFFFFFFFFFE1C07FFFFFFFFFFFE101FFB0
:10392000FFFFFFFFFFE007FFFFFFFFFFFFE01FFFBD
:10393000FFFFFFFFFFE07FFFFFFFFFFFFFE1FFFF54
:10394000FFFFFFFFFFE3FFFFFFFFFFFFFFFFFFFFA3
:10395000FFFFFFFFFFFFFFFFFFFFFFFFFFFFFFFF77
:10396000FFFFFFFFFFFFFFFFFFFFFFFFFFFFFFFF67
:10397000FFFFFFFFFFFFFFFFFF01FFFFFFFF80FFD4
:10398000F8007FFFFFFE003FF0003FFFFFFC001F3D
:10399000E0001FFFFFF8000FC0000FFFFFF000075F
:1039A00080FE07FFFFE07C0307FF83FFFFE1FF01CD
:1039B0000FFFC3FFFFE3FF803FFFE3FFFFC7FFC031
:1039C0007FFFF1FFFFC7FFE07FFFF1FFFFCFFFE0C9
:1039D0007FFFF9FFFFCFFFF07FFFF9FFFFCFFFF879
:1039E0003FFFF9FFFFCFFFF83FFFF9FFFFCFFFF8E1
:1039F0001FFFF9FFFFC7FFFC0FFFF1FFFFC7FFF835
:103A000007FFF1FFFFC3FFF007FFE3FFFFE1FFE167
:103A100001FFE3FFFFE0FF8300FF83FFFFF00007EC
:103A2000803E07FFFFF00007C00007FFFFF8000F10
:103A3000E0000FFFFFFC003FF0001FFFFFFF007FD3
:103A4000FC007FFFFFFFFFFFFF01FFFFFFFFFFFF06
:103A5000FFFFFFFFFFFFFFFFFFFFFFFFFFFFFFFF76
:103A6000FFFFFFFFFFFFFFFFFFFFFFFFFFFFFFFF66
:103A7000FFFFFFFFFFFFF003FFFFFFFFFFFF8000DF
:103A80007FFFFFFFFFFE00003FFF1FFFFFFC000066
:103A90001FFC0FFFFFF800000FFC07FFFFF0000006
:103AA00007FC03FFFFE03FF807FC03FFFFE0FFFF19
:103AB00003FC01FFFFE3FFFF83FE01FFFFC7FFFFE2
:103AC000C3FFF1FFFFC7FFFFC3FFF9FFFFCFFFFFFA
:103AD000E3FFF9FFFFCFFFFFE3FFF9FFFFCFFFFF9A
:103AE000E3FFF1FFFFCFFFFFC3FFF1FFFFCFFFFFBA
:103AF000C3FFE3FFFFC7FFFF87FFC3FFFFC3FFFF56
:103B000007FF03FFFFE1FFFE0FFC07FFFFE07FFC65
:103B10001FE00FFFFFF00FF038001FFFFFF800005D
:103B200000003FFFFFFC000000007FFFFFFE0000E1
:103B30000001FFFFFFFF00000007FFFFFFFFE000A5
:103B4000001FFFFFFFFFFC0001FFFFFFFFFFFFFF64
:103B5000FFFFFFFFFFFFFFFFFFFFFFFFFFFFFFFF75
:103B6000FFFFFFFFFFFFFFFFFFFFFFFFFFFFFFFF65
:103B7000FFFFFFFFFFFFFFFFFFFFFFFFFFFFFFFF55
:103B8000FFFFFFFFFFFFFFFFFFFFFFFFFFFFFFFF45
:103B9000FFFFFFFFFFFFFFFFFFFFFFFFFFFFFFFF35
:103BA000FFFFFFFFFFFFFFFFFFFFFFFFFFFFFFFF25
:103BB000FFFFFFFFFFFFFFFFFFFFFFFFFFFFFFC351
:103BC000FFFF87FFFFFFFF81FFFF03FFFFFFFF00F6
:103BD000FFFE01FFFFFFFF00FFFE01FFFFFFFF00F1
:103BE000FFFE01FFFFFFFF00FFFE01FFFFFFFF00E1
:103BF000FFFE01FFFFFFFF81FFFF03FFFFFFFFC38A
:103C0000FFFF87FFFFFFFFFFFFFFFFFFFFFFFFFF3C
:103C1000FFFFFFFFFFFFFFFFFFFFFFFFFFFFFFFFB4
:103C2000FFFFFFFFFFFFFFFFFFFFFFFFFFFFFFFFA4
:103C3000FFFFFFFFFFFFFFFFFFFFFFFFFFFFFFFF94
:103C4000FFFFFFFFFFFFFFFFFFFFFFFFFFFFFFFF84
:103C5000FFFFFFFFFFFFFFFFFFFFFFFFFFFFFFFF74
:103C6000FFFFFFFFFFFFFFFFFFFFFFFFFFFFFFFF64
:103C7000FC000000FFFFFFFFFFFFFFFFFFFFFFFF54
:103C8000FC000000FFFFFFFFFFFFFFFFFFFFFFFF44
:103C9000FC000000FFFFFFFFFFFFFFFFFFFFFFFF34
:103CA000FC000000FFFFFFFFFFFFFFFFFFFFFFFF24
:103CB000FC000000FFFFFFFFFFFFFFFFFFFFFFFF14
:103CC000FC000000FFFFFFFFFFFFFFFFFFFFFFFF04
:103CD000FC000000FFFFFFFFFFFFFFFFFFFFFFFFF4
:103CE000FC000000FFFFFFFFFFFFFFFFFFFFFFFFE4
:103CF000FC000000FFFFFFFFFFFFFFFFFFFFFFFFD4
:103D0000FC000000FFFFFFFFFFFFFFFFFFFFFFFFC3
:103D1000FC07C000FFFFFFFFFFFFFFFFFFFFFFFFEC
:103D2000FC1FE000FFFFFFFFFFFFFFFFFFFFFFFFA4
:103D3000FC3FF000FFFFFFFFFFFFFFFFFFFFFFFF64
:103D4000FC3FF000FFFFFFFFFFFFFFFFFFFFFFFF54
:103D5000FC701000FFFFFFFFFFFFFFFFFFFFFFFFF3
:103D6000FC421000FFFFFFFFFFFFFFFFFFFFFFFF11
:103D7000FC427000FFFFFFFFFFFFFFFFFFFFFFFFA1
:103D8000FC43E000FFFFFFFFFFFFFFFFFFFFFFFF20
:103D9000FC7BF000FFFFFFFFFFFFFFFFFFFFFFFFC8
:103DA000FC338000FFFFFFFFFFFFFFFFFFFFFFFF70
:103DB000FC000000FFFFFFFFFFFFFFFFFFFFFFFF13
:103DC000FC03E000FFFFFFFFFFFFFFFFFFFFFFFF20
:103DD000FC07F000FFFFFFFFFFFFFFFFFFFFFFFFFC
:103DE000FC0FF000FFFFFFFFFFFFFFFFFFFFFFFFE4
:103DF000FC0C1000FFFFFFFFFFFFFFFFFFFFFFFFB7
:103E0000FC081000FFFFFFFFFFFFFFFFFFFFFFFFAA
:103E1000FC0C7000FFFFFFFFFFFFFFFFFFFFFFFF36
:103E2000FC07E000FFFFFFFFFFFFFFFFFFFFFFFFBB
:103E3000FC03E000FFFFFFFFFFFFFFFFFFFFFFFFAF
:103E4000FC03C000FFFFFFFFFFFFFFFFFFFFFFFFBF
:103E5000FC03F000FFFFFFFFFFFFFFFFFFFFFFFF7F
:103E6000FC07F000FFFFFFFFFFFFFFFFFFFFFFFF6B
:103E7000FC0FF000FFFFFFFFFFFFFFFFFFFFFFFF53
:103E8000FC0E1000FFFFFFFFFFFFFFFFFFFFFFFF24
:103E9000FC0C1000FFFFFFFFFFFFFFFFFFFFFFFF16
:103EA000FC083000FFFFFFFFFFFFFFFFFFFFFFFFEA
:103EB000FC0FE000FFFFFFFFFFFFFFFFFFFFFFFF23
:103EC000FC07E000FFFFFFFFFFFFFFFFFFFFFFFF1B
:103ED000FC038000FFFFFFFFFFFFFFFFFFFFFFFF6F
:103EE000FC03F000FFFFFFFFFFFFFFFFFFFFFFFFEF
:103EF000FC07F000FFFFFFFFFFFFFFFFFFFFFFFFDB
:103F0000FC0FF000FFFFFFFFFFFFFFFFFFFFFFFFC2
:103F1000FC0C1000FFFFFFFFFFFFFFFFFFFFFFFF95
:103F2000FC087000FFFFFFFFFFFFFFFFFFFFFFFF29
:103F3000FC1FF000FFFFFFFFFFFFFFFFFFFFFFFF82
:103F4000FC7FF000FFFFFFFFFFFFFFFFFFFFFFFF12
:103F5000FC7F8000FFFFFFFFFFFFFFFFFFFFFFFF72
:103F6000FC600000FFFFFFFFFFFFFFFFFFFFFFFF01
:103F7000FC000000FFFFFFFFFFFFFFFFFFFFFFFF51
:103F8000FC000000FFFFFFFFFFFFFFFFFFFFFFFF41
:103F9000FC000000FFFFFFFFFFFFFFFFFFFFFFFF31
:103FA000FC000000FFFFFFFFFFFFFFFFFFFFFFFF21
:103FB000FC000000FFFFFFFFFFFFFFFFFFFFFFFF11
:103FC000FC007000FFFFFFFFFFFFFFFFFFFFFFFF91
:103FD000FC1FF000FFFFFFFFFFFFFFFFFFFFFFFFE2
:103FE000FC7FF000FFFFFFFFFFFFFFFFFFFFFFFF72
:103FF000FC7F9000FFFFFFFFFFFFFFFFFFFFFFFFC2
:10400000FC701000FFFFFFFFFFFFFFFFFFFFFFFF40
:10401000FC403000FFFFFFFFFFFFFFFFFFFFFFFF40
:10402000FC407000FFFFFFFFFFFFFFFFFFFFFFFFF0
:10403000FC7FE000FFFFFFFFFFFFFFFFFFFFFFFF31
:10404000FC7FC000FFFFFFFFFFFFFFFFFFFFFFFF41
:10405000FC3F0000FFFFFFFFFFFFFFFFFFFFFFFF31
:10406000FC000000FFFFFFFFFFFFFFFFFFFFFFFF60
:10407000FC007000FFFFFFFFFFFFFFFFFFFFFFFFE0
:10408000FC0FF000FFFFFFFFFFFFFFFFFFFFFFFF41
:10409000FC6FF000FFFFFFFFFFFFFFFFFFFFFFFFD1
:1040A000FC6F8000FFFFFFFFFFFFFFFFFFFFFFFF31
:1040B000FC600000FFFFFFFFFFFFFFFFFFFFFFFFB0
:1040C000FC006000FFFFFFFFFFFFFFFFFFFFFFFFA0
:1040D000FC073000FFFFFFFFFFFFFFFFFFFFFFFFB9
:1040E000FC079000FFFFFFFFFFFFFFFFFFFFFFFF49
:1040F000FC0B9000FFFFFFFFFFFFFFFFFFFFFFFF35
:10410000FC09F000FFFFFFFFFFFFFFFFFFFFFFFFC6
:10411000FC09F000FFFFFFFFFFFFFFFFFFFFFFFFB6
:10412000FC0CE000FFFFFFFFFFFFFFFFFFFFFFFFB3
:10413000FC000200FFFFFFFFFFFFFFFFFFFFFFFF8D
:10414000FC007E00FFFFFFFFFFFFFFFFFFFFFFFF01
:10415000FC0FFE00FFFFFFFFFFFFFFFFFFFFFFFF62
:10416000FC0FFE00FFFFFFFFFFFFFFFFFFFFFFFF52
:10417000FC0FF000FFFFFFFFFFFFFFFFFFFFFFFF50
:10418000FC041000FFFFFFFFFFFFFFFFFFFFFFFF2B
:10419000FC087000FFFFFFFFFFFFFFFFFFFFFFFFB7
:1041A000FC0FF000FFFFFFFFFFFFFFFFFFFFFFFF20
:1041B000FC0FE000FFFFFFFFFFFFFFFFFFFFFFFF20
:1041C000FC078000FFFFFFFFFFFFFFFFFFFFFFFF78
:1041D000FC007000FFFFFFFFFFFFFFFFFFFFFFFF7F
:1041E000FC1FF000FFFFFFFFFFFFFFFFFFFFFFFFD0
:1041F000FC7FF000FFFFFFFFFFFFFFFFFFFFFFFF60
:10420000FC7F8000FFFFFFFFFFFFFFFFFFFFFFFFBF
:10421000FC207000FFFFFFFFFFFFFFFFFFFFFFFF1E
:10422000FC00F000FFFFFFFFFFFFFFFFFFFFFFFFAE
:10423000FC06F000FFFFFFFFFFFFFFFFFFFFFFFF98
:10424000FC089000FFFFFFFFFFFFFFFFFFFFFFFFE6
:10425000FC093000FFFFFFFFFFFFFFFFFFFFFFFF35
:10426000FC097000FFFFFFFFFFFFFFFFFFFFFFFFE5
:10427000FC0FF000FFFFFFFFFFFFFFFFFFFFFFFF4F
:10428000FC0FF000FFFFFFFFFFFFFFFFFFFFFFFF3F
:10429000FC0FD000FFFFFFFFFFFFFFFFFFFFFFFF4F
:1042A000FC000600FFFFFFFFFFFFFFFFFFFFFFFF18
:1042B000FC000200FFFFFFFFFFFFFFFFFFFFFFFF0C
:1042C000FC0FC600FFFFFFFFFFFFFFFFFFFFFFFF29
:1042D000FC0FFC00FFFFFFFFFFFFFFFFFFFFFFFFE3
:1042E000FC0FF000FFFFFFFFFFFFFFFFFFFFFFFFDF
:1042F000FC004000FFFFFFFFFFFFFFFFFFFFFFFF8E
:10430000FC018000FFFFFFFFFFFFFFFFFFFFFFFF3C
:10431000FC060000FFFFFFFFFFFFFFFFFFFFFFFFA7
:10432000FC080000FFFFFFFFFFFFFFFFFFFFFFFF95
:10433000FC000000FFFFFFFFFFFFFFFFFFFFFFFF8D
:10434000FC000000FFFFFFFFFFFFFFFFFFFFFFFF7D
:10435000FC000000FFFFFFFFFFFFFFFFFFFFFFFF6D
:10436000FC000000FFFFFFFFFFFFFFFFFFFFFFFF5D
:10437000FC000000FFFFFFFFFFFFFFFFFFFFFFFF4D
:10438000FC000000FFFFFFFFFFFFFFFFFFFFFFFF3D
:10439000FC000000FFFFFFFFFFFFFFFFFFFFFFFF2D
:1043A000FC000000FFFFFFFFFFFFFFFFFFFFFFFF1D
:1043B000FC000000FFFFFFFFFFFFFFFFFFFFFFFF0D
:1043C000FC000000FFFFFFFFFFFFFFFFFFFFFFFFFD
:1043D000FC000000FFFFFFFFFFFFFFFFFFFFFFFFED
:1043E000FC000000FFFFFFFFFFFFFFFFFFFFFFFFDD
:1043F000FC000000FFFFFFFFFFFFFFFFFFFFFFFFCD
:10440000FC000000FFFFFFFFFFFFFFFFFFFFFFFFBC
:10441000FC000000FFFFFFFFFFFFFFFFFFFFFFFFAC
:10442000FC000000FFFFFFFFFFFFFFFFFFFFFFFF9C
:10443000FC000000FFFFFFFFFFFFFFFFFFFFFFFF8C
:10444000FC000000FFFFFFFFFFFFFFFFFFFFFFFF7C
:10445000FC000000FFFFFFFFFFFFFFFFFFFFFFFF6C
:10446000FC000000FFFFFFFFFFFFFFFFFFFFFFFF5C
:10447000FC000000FFFFFFFFFFFFFFFFFFFFFFFF4C
:10448000FC000000FFFFFFFFFFFFFFFFFFFFFFFF3C
:10449000FC000000FFFFFFFFFFFFFFFFFFFFFFFF2C
:1044A000FC000000FFFFFFFFFFFFFFFFFFFFFFFF1C
:1044B000FC000000FFFFFFFFFFFFFFFFFFFFFFFF0C
:1044C000FC000000FFFFFFFFFFFFFFFFFFFFFFFFFC
:1044D000FC000000FFFFFFFFFFFFFFFFFFFFFFFFEC
:1044E000FC000000FFFFFFFFFFFFFFFFFFFFFFFFDC
:1044F000FC000000FFFFFFFFFFFFFFFFFFFFFFFFCC
:10450000FC000000FFFFFFFFFFFFFFFFFFFFFFFFBB
:10451000FC000000FFFFFFFFFFFFFFFFFFFFFFFFAB
:10452000FC000000FFFFFFFFFFFFFFFFFFFFFFFF9B
:10453000FC000000FFFFFFFFFFFFFFFFFFFFFFFF8B
:10454000FC000000FFFFFFFFFFFFFFFFFFFFFFFF7B
:10455000FC000000FFFFFFFFFFFFFFFFFFFFFFFF6B
:10456000FC000000FFFFFFFFFFFFFFFFFFFFFFFF5B
:10457000FC000000FFFFFFFFFFFFFFFFFFFFFFFF4B
:10458000FC000000FFFFFFFFFFFFFFFFFFFFFFFF3B
:10459000FC000000FFFFFFFFFFFFFFFFFFFFFFFF2B
:1045A000FC000000FFFFFFFFFFFFFFFFFFFFFFFF1B
:1045B000FC000000FFFFFFFFFFFFFFFFFFFFFFFF0B
:1045C000FC000000FFFFFFFFFFFFFFFFFFFFFFFFFB
:1045D000FC000000FFFFFFFFFFFFFFFFFFFFFFFFEB
:1045E000FC000000FFFFFFFFFFFFFFFFFFFFFFFFDB
:1045F000FC000000FFFFFFFFFFFFFFFFFFFFFFFFCB
:10460000FC000000FFFFFFFFFFFFFFFFFFFFFFFFBA
:10461000FC000000FFFFFFFFFFFFFFFFFFFFFFFFAA
:10462000FC000000FFFFFFFFFFFFFFFFFFFFFFFF9A
:10463000FC000000FFFFFFFFFFFFFFFFFFFFFFFF8A
:10464000FC000000FFFFFFFFFFFFFFFFFFFFFFFF7A
:10465000FC000000FFFFFFFFFFFFFFFFFFFFFFFF6A
:10466000FC000000FFFFFFFFFFFFFFFFFFFFFFFF5A
:10467000FC000000FFFFFFFFFFFFFFFFFFFFFFFF4A
:10468000FC000000FFFFFFFFFFFFFFFFFFFFFFFF3A
:10469000FC000000FFFFFFFFFFFFFFFFFFFFFFFF2A
:1046A000FC000000FFFFFFFFFFFFFFFFFFFFFFFF1A
:1046B000FC000000FFFFFFFFFFFFFFFFFFFFFFFF0A
:1046C000FC000000FFFFFFFFFFFFFFFFFFFFFFFFFA
:1046D000FC000000FFFFFFFFFFFFFFFFFFFFFFFFEA
:1046E000FC000000FFFFFFFFFFFFFFFFFFFFFFFFDA
:1046F000FC000000FFFFFFFFFFFFFFFFFFFFFFFFCA
:10470000FC000000FFFFFFFFFFFFFFFFFFFFFFFFB9
:10471000FC000000FFFFFFFFFFFFFFFFFFFFFFFFA9
:10472000FC000000FFFFFFFFFFFFFFFFFFFFFFFF99
:10473000FC000000FFFFFFFFFFFFFFFFFFFFFFFF89
:10474000FC000000FFFFFFFFFFFFFFFFFFFFFFFF79
:10475000FC000000FFFFFFFFFFFFFFFFFFFFFFFF69
:10476000FC000000FFFFFFFFFFFFFFFFFFFFFFFF59
:10477000FC000000FFFFFFFFFFFFFFFFFFFFFFFF49
:10478000FC000000FFFFFFFFFFFFFFFFFFFFFFFF39
:10479000FC000000FFFFFFFFFFFFFFFFFFFFFFFF29
:1047A000FC000000FFFFFFFFFFFFFFFFFFFFFFFF19
:1047B000FC000000FFFFFFFFFFFFFFFFFFFFFFFF09
:1047C000FC000000FFFFFFFFFFFFFFFFFFFFFFFFF9
:1047D000FC000000FFFFFFFFFFFFFFFFFFFFFFFFE9
:1047E000FC000000FFFFFFFFFFFFFFFFFFFFFFFFD9
:1047F000FC000000FFFFFFFFFFFFFFFFFFFFFFFFC9
:10480000FC000000FFFFFFFFFFFFFFFFFFFFFFFFB8
:10481000FC000000FFFFFFFFFFFFFFFFFFFFFFFFA8
:10482000FC000000FFFFFFFFFFFFFFFFFFFFFFFF98
:10483000FC000000FFFFFFFFFFFFFFFFFFFFFFFF88
:10484000FC000000FFFFFFFFFFFFFFFFFFFFFFFF78
:10485000FC000000FFFFFFFFFFFFFFFFFFFFFFFF68
:10486000FC000000FFFFFFFFFFFFFFFFFFFFFFFF58
:10487000FC000000FFFFFFFFFFFFFFFFFFFFFFFF48
:10488000FC000000FFFFFFFFFFFFFFFFFFFFFFFF38
:10489000FC000000FFFFFFFFFFFFFFFFFFFFFFFF28
:1048A000FC000000FFFFFFFFFFFFFFFFFFFFFFFF18
:1048B000FC000000FFFFFFFFFFFFFFFFFFFFFFFF08
:1048C000FC000000FFFFFFFFFFFFFFFFFFFFFFFFF8
:1048D000FC000000FFFFFFFFFFFFFFFFFFFFFFFFE8
:1048E000FC000000FFFFFFFFFFFFFFFFFFFFFFFFD8
:1048F000FC000000FFFFFFFFFFFFFFFFFFFFFFFFC8
:10490000FC000000FFFFFFFFFFFFFFFFFFFFFFFFB7
:10491000FC000000FFFFFFFFFFFFFFFFFFFFFFFFA7
:10492000FC000000FFFFFFFFFFFFFFFFFFFFFFFF97
:10493000FC000000FFFFFFFFFFFFFFFFFFFFFFFF87
:10494000FC000000FFFFFFFFFFFFFFFFFFFFFFFF77
:10495000FC000000FFFFFFFFFFFFFFFFFFFFFFFF67
:10496000FC000000FFFFFFFFFFFFFFFFFFFFFFFF57
:10497000FC000000FFFFFFFFFFFFFFFFFFFFFFFF47
:10498000FC000000FFFFFFFFFFFFFFFFFFFFFFFF37
:10499000FC000000FFFFFFFFFFFFFFFFFFFFFFFF27
:1049A000FC000000FFFFFFFFFFFFFFFFFFFFFFFF17
:1049B000FC000000FFFFFFFFFFFFFFFFFFFFFFFF07
:1049C000FC000000FFFFFFFFFFFFFFFFFFFFFFFFF7
:1049D000FC000000FFFFFFFFFFFFFFFFFFFFFFFFE7
:1049E000FC000000FFFFFFFFFFFFFFFFFFFFFFFFD7
:1049F000FC000000FFFFFFFFFFFFFFFFFFFFFFFFC7
:104A0000FC000000FFFFFFFFFFFFFFFFFFFFFFFFB6
:104A1000FC000000FFFFFFFFFFFFFFFFFFFFFFFFA6
:104A2000FC000000FFFFFFFFFFFFFFFFFFFFFFFF96
:104A3000FC000000FFFFFFFFFFFFFFFFFFFFFFFF86
:104A4000FC000000FFFFFFFFFFFFFFFFFFFFFFFF76
:104A5000FC000000FFFFFFFFFFFFFFFFFFFFFFFF66
:104A6000FC000000FFFFFFFFFFFFFFFFFFFFFFFF56
:104A7000FC000000FFFFFFFFFFFFFFFFFFFFFFFF46
:104A8000FC000000FFFFFFFFFFFFFFFFFFFFFFFF36
:104A9000FC000000FFFFFFFFFFFFFFFFFFFFFFFF26
:104AA000FC000000FFFFFFFFFFFFFFFFFFFFFFFF16
:104AB000FC000000FFFFFFFFFFFFFFFFFFFFFFFF06
:104AC000FC000000FFFFFFFFFFFFFFFFFFFFFFFFF6
:104AD000FC000000FFFFFFFFFFFFFFFFFFFFFFFFE6
:104AE000FC000000FFFFFFFFFFFFFFFFFFFFFFFFD6
:104AF000FC000000FFFFFFFFFFFFFFFFFFFFFFFFC6
:104B0000FC000000FFFFFFFFFFFFFFFFFFFFFFFFB5
:104B1000FC000000FFFFFFFFFFFFFFFFFFFFFFFFA5
:104B2000FC000000FFFFFFFFFFFFFFFFFFFFFFFF95
:104B3000FC000000FFFFFFFFFFFFFFFFFFFFFFFF85
:104B4000FC000000FFFFFFFFFFFFFFFFFFFFFFFF75
:104B5000FC000000FFFFFFFFFFFFFFFFFFFFFFFF65
:104B6000FC000000FFFFFFFFFFFFFFFFFFFFFFFF55
:104B7000FC000000FFFFFFFFFFFFFFFFFFFFFFFF45
:104B8000FC000000FFFFFFFFFFFFFFFFFFFFFFFF35
:104B9000FC000000FFFFFFFFFFFFFFFFFFFFFFFF25
:104BA000FC000000FFFFFFFFFFFFFFFFFFFFFFFF15
:104BB000FC000000FFFFFFFFFFFFFFFFFFFFFFFF05
:104BC000FC000000FFFFFFFFFFFFFFFFFFFFFFFFF5
:104BD000FC000000FFFFFFFFFFFFFFFFFFFFFFFFE5
:104BE000FC000000FFFFFFFFFFFFFFFFFFFFFFFFD5
:104BF000FC000000FFFFFFFFFFFFFFFFFFFFFFFFC5
:104C0000FC000000FFFFFFFFFFFFFFFFFFFFFFFFB4
:104C1000FFFFFFC0FFFFFFFFFFFFFFFFFFFFFFFFE3
:104C2000FFFFFFC0FFFFFFFFFFFFFFFFFFFFFFFFD3
:104C3000FFFFFFC0FFFFFFFFFFFFFFFFFFFFFFFFC3
:104C4000FFFFFFC0FFFFFFFFFFFFFFFFFFFFFFFFB3
:104C5000FFFFFFC0FFFFFFFFFFFFFFFFFFFFFFFFA3
:104C6000FFFFFFC0FFFFFFFFFFFFFFFFFFF9F9E0BE
:104C70000001FFC0FFFFC7C7FE000FC003F1F1E056
:104C80000001FFC0FFFF8787FE000FC003E3E1E0E4
:104C90000001FFC0FFFF1F07FE73CFCE7FE7C9E013
:104CA0000001FFC0FFFF3E27FE73CFCE7FE789E004
:104CB0000001FFC0FFFF3C67FE73CFCE7FE719E026
:104CC0000001FFC0FFFF18E7FE73CFCE3FF039E0D1
:104CD0007F01FFC0FFFF81E7FE73CFCE1FF8F9E031
:104CE000FF81FFC0FFFFC3E7FE73CFC487FFFFE173
:104CF000C1C1FFC0FFFFFFFFFFFFFFE0C3FC27E3D1
:104D000080E1FFC0FFFFFFFFFFFCFFF1F3E023E3C3
:104D10000061FFC0FFFFFFE7FFFCFFFFFBE271E365
:104D20000C61FFC0FFFFFFE7FFFCFFFFFFE679E339
:104D30000C61FFC0FFFFFFFFFFFCFFFE0FE679E302
:104D40008C61FFC0FFFFFFFFFFFCFFFC07E631E1C6
:104D5000EFE1FFC0FFFFFFFFFFFFFFF923E703E0E5
:104D6000EFC1FFC0FFFFF3FFFFFFFFF933FF87E055
:104D70000001FFC0FFFFC3FFFE000FF933FFFFE09C
:104D80000001FFC0FFFF0007FE000FFC27F807E04F
:104D90007F01FFC0FFFF0007FE79FFFE2FF003E059
:104DA000FF81FFC0FFFFFFFFFE79FFFFFFE3F1E19F
:104DB000C1C1FFC0FFFFFFFFFE79FFFFFFE7F9E37F
:104DC00080E1FFC0FFFFFFFFFE79FFFC67E7F9E32B
:104DD0000061FFC0FFFFCF8FFE01FFF823E3F1E387
:104DE0000061FFC0FFFF8F8FFF03FFF933F003E384
:104DF00080E1FFC0FFFF1FC7FFFFFFF933F807E1A6
:104E0000C1C1FFC0FFFF39E7FFFF8FF993FFFFE04C
:104E1000FF81FFC0FFFF39E7FFFC0FF883FFFFE0D2
:104E20007F01FFC0FFFF10C7FFE03FFCC7E7F9E0CD
:104E30000001FFC0FFFF800FFF00FFFFFFE3F1E075
:104E40000001FFC0FFFFC61FFE0CFFFFFFF0C3E025
:104E50007F01FFC0FFFFFFFFFE0CFFFE0FFC0FE016
:104E6000FF81FFC0FFFFFFFFFF00FFFC07FE1FE108
:104E7000C1C1FFC0FFFFFFFFFFE03FF8E3FC0FE30E
:104E800080E1FFC0FFFFFFFFFFFC0FF9F3F0C3E37A
:104E90000061FFC0FFFFFFFFFFFF8FF9F3E3F1E3C6
:104EA0000061FFC0FFFFFFFFFFFFFFF8E3E7F9E34B
:104EB00080E1FFC0FFFFFFFFFE000FFC07FFFFE1E7
:104EC000C1C1FFC0FFFF0007FE000FFE0FFCFFE0A7
:104ED000FF81FFC0FFFF0007FE79FFFFFFF9FFE042
:104EE0007F01FFC0FFFFFFFFFE79FFFFFFF3FFE041
:104EF0000001FFC0FFFFFFFFFE79FFC003E001E0FC
:104F00000001FFC0FFFF0007FE79FFC003E001E3DF
:104F1000FFE1FFC0FFFF0007FE01FFFFFFFFFFE310
:104F2000FFE1FFC0FFFF87FFFF03FFF807FFFFE37D
:104F30000061FFC0FFFFE1FFFFFFFFF803FFFFE39A
:104F40000061FFC0FFFFF07FFE000FFFF3F9F9E300
:104F50000061FFC0FFFFFC1FFE000FFFF3F1F1E354
:104F600080E1FFC0FFFFFF0FFE73CFFFF3E3E1E13E
:104F7000C1C1FFC0FFFF0007FE73CFFFE7E7C9E035
:104F8000FF81FFC0FFFF0007FE73CFF803E789E052
:104F90007F01FFC0FFFFFFFFFE73CFF803E719E0BB
:104FA0000001FFC0FFFFFFFFFE73CFFFFFF039E0FE
:104FB0000001FFC0FFFFE03FFE73CFF9FFF8F9E00B
:104FC0000001FFC0FFFFC01FFFFFFFE007FFFFE082
:104FD0000001FFC0FFFF8F8FFFFFFFC003F9F9E063
:104FE0000001FFC0FFFF1FC7FE000FF9F3F1F1E062
:104FF0000001FFC0FFFF3FE7FE000FF9F3E3E1E32D
:10500000FFE1FFC0FFFF3FE7FE79FFFFFFE7C9E3D6
:10501000FFE1FFC0FFFF1FC7FE79FFFFFFE789E346
:105020000061FFC0FFFF870FFE79FFC803E719E3A8
:105030000061FFC0FFFFC71FFE78FFC803F039E320
:105040000061FFC0FFFFFFFFFE001FFFFFF8F9E355
:1050500080E1FFC0FFFF0007FF020FFFFFFFFFE13E
:10506000C1C1FFC0FFFF0007FFFFCFFE0FFFFFE042
:10507000FF81FFC0FFFFF9FFFFFFFFFC07FFFFE01D
:105080007F01FFC0FFFFF9FFFFFFFFF8E3FFFFE035
:105090000001FFC0FFFFF9FFFFFFFFF9F3FFFFE093
:1050A0000001FFC0FFFFF9FFFFFFFFF9F3FFFFE380
:1050B000FFE1FFC0FFFFF9FFFFFFFFF8E3FFFFE3A2
:1050C000FFE1FFC0FFFF0007FFFFFFFC07FFFFE05E
:1050D0000001FFC0FFFF0007FFFFFFFE0FFFFFE023
:1050E0000001FFC0FFFFFFFFFE000FFFFFFFFFE01B
:1050F000F381FFC0FFFFFFFFFE000FFFFFFFFFE197
:10510000FBC1FFC0FFFFFFFFFE7FCFF803FFFFE300
:1051100098E1FFC0FFFFFFFFFE7FCFF803FFFFE333
:105120001861FFC0FFFFFFFFFE7FCFFCFFFFFFE323
:105130001C61FFC0FFFFFFFFFE3F8FF9FFFFFFE392
:105140008CE1FFC0FFFFFFFFFF1F1FF9FFFFFFE123
:10515000EFC1FFC0FFFFFFFFFF803FF9FFFFFFE050
:10516000E781FFC0FFFFFFFFFFC07FF803FFFFE005
:105170000001FFC0FFFFFFFFFFFFFFFC03FFFFE099
:105180000001FFC0FFFFFFFFFFFFFFFFFFFFFFE387
:10519000FFE1FFC0FFFFFFFFFE000FFFFFFFFFE388
:1051A000FFE1FFC0FFFFFFFFFE000FFFFFFFFFE378
:1051B0000C01FFC0FFFFFFFFFFFFFFF9F3FFFFE35D
:1051C0000C01FFC0FFFFFFFFFFFFFFF9F3FFFFE34D
:1051D0000C01FFC0FFFFFFFFFF863FFFFFFFFFE364
:1051E0000C01FFC0FFFFFFFFFF021FFFFFFFFFE3F8
:1051F000FC01FFC0FFFFFFFFFE338FFFFFFFFFE15A
:10520000F801FFC0FFFFFFFFFE73CFFFFFFFFFE0CE
:105210000001FFC0FFFFFFFFFE71CFFFFFFFFFE0B8
:105220000001FFC0FFFFFFFFFE398FFFFFFFFFE31D
:10523000FFE1FFC0FFFFFFFFFF081FFFFFFFFFE3CE
:10524000FFE1FFC0FFFFFFFFFF8C3FFFFFFFFFE01D
:105250000061FFC0FFFFFFFFFFFFFFFFFFFFFFE059
:105260000061FFC0FFFFFFFFFE000FFFFFFFFFE039
:105270000061FFC0FFFFFFFFFE000FFFFFFFFFE029
:105280000061FFC0FFFFFFFFFE79FFFFFFFFFFE0B0
:105290000061FFC0FFFFFFFFFE79FFFFFFFFFFE0A0
:1052A0000001FFC0FFFFFFFFFE79FFFFFFFFFFE0F0
:1052B00000E1FFC0FFFFFFFFFE79FFFFFFFFFFE000
:1052C00007E1FFC0FFFFFFFFFE01FFFFFFFFFFE061
:1052D0003F81FFC0FFFFFFFFFF03FFFFFFFFFFE175
:1052E000FE01FFC0FFFFFFFFFFFFFFFFFFFFFFE328
:1052F000E601FFC0FFFFFFFFFFFFFFFFFFFFFFE330
:10530000E601FFC0FFFFFFFFFE000FFFFFFFFFE111
:10531000FE01FFC0FFFFFFFFFE000FFFFFFFFFE0EA
:105320003F81FFC0FFFFFFFFFFFFCFFFFFFFFFE059
:1053300007E1FFC0FFFFFFFFFFFFCFFFFFFFFFE31E
:1053400000E1FFC0FFFFFFFFFFFFCFFFFFFFFFE315
:10535000C001FFC0FFFFFFFFFFFFCFFFFFFFFFE127
:10536000E001FFC0FFFFFFFFFFFFCFFFFFFFFFE0F8
:105370007801FFC0FFFFFFFFFFFFFFFFFFFFFFE020
:105380003FE1FFC0FFFFFFFFFFFF8FFFFFFFFFE0D9
:105390003FE1FFC0FFFFFFFFFFFC0FFFFFFFFFE04C
:1053A0007801FFC0FFFFFFFFFFE03FFFFFFFFFE1CE
:1053B000E001FFC0FFFFFFFFFF00FFFFFFFFFFE374
:1053C000C001FFC0FFFFFFFFFE0CFFFFFFFFFFE379
:1053D0000001FFC0FFFFFFFFFE0CFFFFFFFFFFE02C
:1053E0000001FFC0FFF0003FFF00FFFFFFFFFFE0F5
:1053F0000001FFC0FFC00007FFE03FFFFFFFFFE02D
:105400000001FFC0FF000003FFFC0FFFFFFFFFE0F4
:105410000001FFC0FE000000FFFF8FFFFFFFFFE065
:105420000001FFC0FC000006FE7FFFFFFFFFFFFF43
:10543000FFFFFFC0FC00001F7E1FFFFFFFFFFFFFFD
:10544000FFFFFFC0F800381F3F0FFFFFFFFFFFFF08
:10545000FFFFFFC0F8007FFF3FC3FFFFFFFFFFFF1D
:10546000FFFFFFC0F0003FFF1FE00FFFFFFFFFFF48
:10547000FFFFFFC0F0007FFF1FE00FFFFFFFFFFFF8
:10548000FFFFFFC0F001FFFF1FC3FFFFFFFFFFFF94
:10549000FFFFFFC0F0C3FFFF0F0FFFFFFFFFFFFF86
:1054A000FFFFFFC0E1F3FFFF0E1FFFFFFFFFFFFF46
:1054B000FFFFFFC0E3F7FFFF0E7FFFFFFFFFFFFFD0
:1054C000FFFFFFC0E1D7FFFF0FFFFFFFFFFFFFFF61
:1054D000FFFFFFC0E19FFFFF07FFFFFFFFFFFFFF91
:1054E000FFFFFFC0E00FFFFF07FFFFFFFFFFFFFF12
:1054F000FFFFFFC0E007FFFF07FFFFFFFFFFFFFF0A
:10550000FE0FFFC0E077FFFF07FFFFFFFFFFFFFF7A
:10551000FE0FFFC0E0F7FFFF07FFFFFFFFFFFFFFEA
:10552000FE07FFC0E1E3FFFF07FFFFFFFFFFFFFFF5
:10553000FC07FFC0F3E1FFFF07FFFFFFFFFFFFFFD7
:10554000FC07FFC0F7E0FFFF07FFFFFFFFFFF007CB
:10555000F807FFC0F7C07FFF03FFFFFFFFFF8000DA
:105560000007FFC0F7C03FFF03FFFFFFFFFE0FF87C
:105570000007FFC0F3C03C3F01FFFFFFFFFC3FFF00
:105580001E0FFFC0F100383F01FFFFFFFFF8FFFFD4
:10559000CF8FFFC0F800003F00FFFFFFFFE3FFFFDA
:1055A000E3C7FFC0F800003F00FFFFFFFFC7FFFF9A
:1055B000F3E7FFC0F800001E007FFFFFFF8FFFFF33
:1055C000F7E3FFC0FC000004003FFFFFFF1FFFFFE9
:1055D000E7F3FFC0FE0000000FFFFFFFF83FFFFFF3
:1055E000EFF3FFC0FF0000007FFFFFFFE03FFFFF82
:1055F000EFF3FFC0FFC0000FFFFFFFFF023FFFFF01
:10560000EFF3FFC0FFFC007FFFFFFFFE1C0FFFFF5B
:10561000EFF1FFC0FFFF03FFFFE3FFF87C0FFFFF89
:10562000F7F3FFC0FFFFFFFFFFC3FFF1FD8FFFFF99
:10563000F7F3FFC0FFFFFFFFFF83FFE3FC081FFF3F
:10564000FBF3FFC0FFFFFFFFFF93FFC7FE7407FFE1
:10565000FCE3FFC0FFFFFFFFFF93FF8FFFE043FF6F
:10566000FF07FFC0FFFFFFFFFF33FF9FFF9201FF18
:10567000FFE7FFC0FFFFFFFFFF33FF3FFE0044FFD8
:10568000FFE7FFC0FFFFFFFFFF39FF3FFE0200FF04
:10569000FFE3FFC0FFFFFFFFFF39FE7FFE28207FF3
:1056A000FFF3FFC0FFFFFFFFFF39FE7FFC80047F99
:1056B000FFF3FFC0FFFFFFFFFF38FE7FFC42A07F2C
:1056C000FFF3FFC0FFFFFFFFFF3CFC7FF8E0083F58
:1056D000FFF3FFC0FFFFFFFFFF3C7CFFFDF0403FFB
:1056E000F0F3FFC0FFFFFFFFFF3E3CFFF9A2123FB8
:1056F000F1F3FFC0FFFFFFFFFF3F3CFFF9E0013F79
:10570000FFF1FFC0FFFFFFFFFF9F8CFFFBE2087F61
:10571000FFF9FFC0FFFFFFFFFF9FC4FFF8F1403F0D
:10572000FFF9FFC0FFFFFFFFFF8FE0FFFDE8043F31
:10573000FFF9FFC0FFFFFFFFFFCFF0FFF8E0407F62
:10574000FFF9FFC0FFFFFFFFFFC7FCFFFC42023F66
:10575000FFF9FFC0FFFFFFFFFFE7FFFFFC10207F07
:10576000FFF9FFC0FFFFFFFFFFF3FFFFFE05107F04
:10577000FFF1FFC0FFFFFFFFFFF9FFFFFE00087F03
:10578000FFF3FFC0FFFFFFFFFFF8FFFFFF2944FF0C
:10579000FFF3FFC0FFFFFFFFFFFE3FFFFF8000FFA3
:1057A000FFF3FFC0FFFFFFFFFFFF1FFFFF8841FF69
:1057B000FE03FFC0FFFFFFFFFFFF83FFFFC103FFEB
:1057C000F9E3FFC0FFFFFFFEFFFFE1FFFFF00FFF68
:1057D000F3F3FFC0FFFFFFF0FFFFC7FFFFFFFFFF77
:1057E000F7F9FFC0FFFFFF03FFFF8FFFFFDFFFFFA2
:1057F000EFF9FFC0FFFFF81FFFFF1FFFFF81FFFF53
:10580000EFF9FFC0FFFFC07FFFFF3FFFFF82FFFFF9
:10581000EFF9FFC0FFFF873FFFFE7FFFFF90FFFF15
:10582000EFF9FFC0FFFFFF3FFFFE707FFF94FFFF18
:10583000EFF9FFC0FFFFFF3FFFFE603FFFC1FFFF2B
:10584000EFF9FFC0FFFFFF9F3FFE471FFFFFFFFF76
:10585000EFF9FFC0FFFFFF983FFE0F8FFFFFFFFF35
:10586000EFF9FFC0FFFFFF81DFFE1FC7FFFFFFFF54
:10587000EFF9FFC0FFFFFE0F8FFFFFE3FFFFFFFF0A
:10588000EFF9FFC0FFFFF07E3FFFFFF3FFFFFFFFD9
:10589000EFF9FFC0FFFFF3FC7FFFFFF9FFFFFFFF02
:1058A000F7F9FFC0FFFFFFF8FFFFFFFCFFFFFFFF5F
:1058B000FFF1FFC0FFFFFFE0FFFFFFFE7FFFFFFFE5
:1058C000FFF3FFC0FFFFFFCEFFFFFFFF3FFFFFFF24
:1058D000FFF3FFC0FFFFFF1E7FFFFFFF8FFFFFFFF4
:1058E000E003FFC0FFFFFE3E7FFFFFFFC7FFFFFE9D
:1058F0000007FFC0FFFFFC0003FFFFFFE3FFFFE027
:105900000007FFC0FFFFFE0001FFFFFFF1FFFF8068
:105910000007FFC0FFFFFFFFFFFFFFFFFC7FFF004F
:105920000007FFC0FFFFFFFFFDFFFFFFFE1FFFFCA3
:105930003E03FFC0FFFFFFFFE1FFFFFFFF87FFE226
:105940008003FFC0FFFFFFFE07FFFFFFFFE07F15A3
:105950005003FFC0FFFFFFF03FFFFFFFFFFC002AE7
:10596000AA03FFC0FFFFFF807FFFFFFFFFFF15556A
:105970005507FFC0FFFFFF0F3FFFFFFFFFFF2AAAF2
:10598000AA07FFC0FFFFFFBF3FFFFFFFFFFE555508
:10599000553FFFC0FFFFFF9F3FFFFFFFFFFCAAAA8D
:1059A000AA3FFFC0FFFFFF9FBFFFFFFFFFF8555556
:1059B000553FFFC0FFFFFFDF3FFFFFFFFFF8AAAA31
:1059C000AA3FFFC0FFFFFFCF3FBFFFFFFFF15555CD
:1059D000553FFFC0FFFFFFC07C3FFFFFFFF2AAAAB9
:1059E000AA3FFFC0FFFFFFF1C0FFFFFFFFF15555CA
:1059F000553FFFC0FFFFFFFE07FFFFFFFFE2AAAA20
:105A0000AA3FFFC0FFFFFFF00FFFFFFFFFE5555567
:105A1000547FFFC0FFFFFFE1E7FFFFFFFFE2AAAAFD
:105A2000A07FFFC0FFFFFFF7E7FFFFFFFFE5555532
:105A3000403FFFC0FFFFFFF3E7FFFFFFFFE2AAAA1F
:105A40009F1FFFC0FFFFFFF3F7FFFFFFFFF155555B
:105A50005F9FFFC0FFFFFFFBE7FFFFFFFFF2AAAA68
:105A6000BF8FFFC0FFFFFFF9E7FFFFFFFFF15555B5
:105A70005FCFFFC0FFFFFFF80FFFFFFFFE12AAAAD4
:105A8000BFCFFFC0FFFFFFFE3FFFFFFFFC015555EB
:105A90005FCFFFC0FFFFFFFFFFFFFFFFFC00AAAAD1
:105AA0009FCFFFC0FFFFFFFC3FE3FFFFFC0055550A
:105AB0003FCFFFC0FFFFFFFC0107FFFFFE002AAA48
:105AC000BFCFFFC0FFFFFFFFE03FFFFFFE00155508
:105AD0003FCFFFC0FFFFFFFFFCFFFFFFFF000AAA51
