:020000040800F2
:1000000000040020DF0D0008ED0D0008EF0D0008D2
:10001000F10D0008F30D0008F50D000800000000C8
:10002000000000000000000000000000F70D0008C4
:10003000F90D000800000000FB0D0008FD0D000890
:10004000410E0008430E0008450E0008470E000848
:10005000490E00084B0E00084D0E00084F0E000818
:10006000510E0008530E0008550E0008570E0008E8
:10007000590E00085B0E00085D0E00085F0E0008B8
:10008000610E0008630E0008650E0008FF0D0008F1
:10009000FF0D0008FF0D0008FF0D00086F0E00089F
:1000A000710E0008730E0008750E0008770E000828
:1000B000790E00087B0E00087D0E00087F0E0008F8
:1000C000810E0008830E0008850E0008870E0008C8
:1000D000890E00088B0E00088D0E00088F0E000898
:1000E000910E0008930E0008950E0008970E000868
:1000F000990E00089B0E00089D0E00089F0E000838
:10010000A10E0008A30E0008A50E0008A70E000807
:10011000A90E0008AB0E0008AD0E0008AF0E0008D7
:10012000B10E0008B30E0008B50E0008B70E0008A7
:1001300000F002F800F03AF80AA090E8000C8244BF
:100140008344AAF10107DA4501D100F02FF8AFF29C
:10015000090EBAE80F0013F0010F18BFFB1A43F0A5
:100160000103184784870000A4870000103A24BFC9
:1001700078C878C1FAD8520724BF30C830C144BF0C
:1001800004680C607047000000230024002500264E
:10019000103A28BF78C1FBD8520728BF30C148BFEA
:1001A0000B6070471FB51FBD10B510BD01F0CDF835
:1001B0001146FFF7F7FF01F013F801F0EBF803B475
:1001C000FFF7F2FF03BC01F0EFF8000010B50446A2
:1001D000C248844208D10121042000F017FB00210D
:1001E000042000F013FB46E0BD48844208D1012101
:1001F000082000F00BFB0021082000F007FB3AE08C
:10020000B848844208D10121102000F0FFFA0021F3
:10021000102000F0FBFA2EE0B348844208D10121FF
:10022000202000F0F3FA0021202000F0EFFA22E075
:10023000AE48844208D10121402000F0E7FA0021B5
:10024000402000F0E3FA16E0A948844208D10121D9
:10025000802000F0DBFA0021802000F0D7FA0AE0CD
:10026000A448844207D10121801500F0CFFA002173
:10027000A01500F0CBFA10BD10B50121084600F022
:10028000C5FA0021012000F0C1FA10BD2DE9F041AE
:10029000024600250026002000230024002791F8B4
:1002A00003C00CF00F0591F803C01CF0100F03D031
:1002B00091F802C04CEA050591F800C0BCF1000FAE
:1002C00031D0146800202BE04FF0010C0CFA00F341
:1002D000B1F800C00CEA03069E4220D183004FF023
:1002E0000F0C0CFA03F7BC4305FA03FC4CEA0404B8
:1002F00091F803C0BCF1280F06D14FF0010C0CFAA5
:1003000000FCC2F814C00AE091F803C0BCF1480F29
:1003100005D14FF0010C0CFA00FCC2F810C0401CD3
:100320000828D1D31460B1F800C0BCF1FF0F34DD50
:10033000546800202EE000F1080C4FF0010808FA84
:100340000CF3B1F800C00CEA03069E4221D18300F1
:100350004FF00F0C0CFA03F7BC4305FA03FC4CEA10
:10036000040491F803C0BCF1280F05D100F1080C7A
:1003700008FA0CF8C2F8148091F803C0BCF1480FD9
:1003800007D100F1080C4FF0010808FA0CF8C2F888
:100390001080401C0828CED35460BDE8F0814FF691
:1003A000FF710180022181700421C17070470246F3
:1003B000002093680B4201D0012000E0002070472C
:1003C0000146886880B2704702460020D3680B421D
:1003D00001D0012000E0002070470146C86880B2CB
:1003E000704701617047416170470AB1016100E0E7
:1003F00041617047C16070474FF480320A438261A7
:1004000081618261826982697047024600203A4BAD
:1004100018684FF68073184040EA02100843364BC4
:10042000186070473549C8617047F0B50A46002327
:10043000002400210025304E7168C0F3034583B2CB
:1004400000F44016B6F5401F08D121F070612A4E25
:10045000766826F07066284F7E6012E000F4801601
:10046000B6F5801F06D1032606FA05F4A14341F034
:10047000706106E0460D360103FA06F6B14341F01D
:10048000706122B1460D360103FA06F631431A4E69
:100490007160F0BD30B500228B071C0F0F2303FAEB
:1004A00004F2154B08338C1053F824309343124C4C
:1004B00008348D1044F8253023468C1053F824302E
:1004C0008C07240F00FA04F423430B4C08348D10DE
:1004D00044F8253030BD0A490860704700080140E3
:1004E000000C0140001001400014014000180140C0
:1004F000001C01400020014000000140000020429B
:10050000DC002042DD48006840F00100DB49086063
:1005100008464068DA490840D849486008460068FB
:10052000D8490840D54908600846006820F4802072
:1005300008600846406820F4FE0048604FF41F0041
:1005400088607047CD49096821F48031CB4A116039
:100550001146096821F480211160B0F5803F03D075
:10056000B0F5802F0ED106E0C449096841F480310E
:10057000C24A116007E0C149096841F4A021BF4A9D
:10058000116000E000BF00BF704710B501460022B7
:10059000002300204A11012A02D1B84C236806E04A
:1005A000022A02D1B54C236A01E0B44C636A01F01F
:1005B0001F02012494401C4201D0012000E00020D1
:1005C00010BD38B5002000900024002500BF312068
:1005D000FFF7DBFF05460098401C00900098B0F53F
:1005E000A06F01D0002DF2D03120FFF7CEFF08B16F
:1005F000012400E00024204638BD014600209F4A27
:10060000106820F0F80040EAC100106070479E4971
:100610000860704702460020984B586820F47C1010
:1006200042EA01031843954B5860704796490866A3
:10063000704701460020914A506820F003000843AB
:10064000506070478D48406800F00C0070470146CC
:1006500000208A4A506820F0F0000843506070473C
:1006600001460020854A506820F4E060084350604D
:10067000704701460020814A506820F4605040EAEB
:10068000C1005060704729B17C4A527A02437B4BCB
:100690005A7204E0794A527A8243784B5A72704710
:1006A0007A490860704701460020744A506820F477
:1006B00040400843506070470021754A11706F4AEE
:1006C00082F82010012802D0042808D103E001217B
:1006D0006F4A117004E005216D4A117000E000BFFF
:1006E00000BF70476B49086070476449096A01435D
:1006F000624A11627047674944390860704730B5F3
:1007000000210022002400235C4D6D6805F00C01DF
:1007100021B1042905D0082923D105E05E4D0560EB
:1007200022E05D4D05601FE0544D6D6805F47012C8
:10073000524D6D6805F48034022505EB92421CB9D8
:10074000564D554305600BE04C4D6D6815F4003F68
:1007500003D0524D5543056002E04F4D55430560AF
:1007600002E04D4D056000BF00BF444D6D6805F0CF
:10077000F00109094A4D6B5C0568DD4045603F4D5D
:100780006D6805F4E061090A454D6B5C4568DD4024
:1007900085603A4D6D6805F46051C90A404D6B5C47
:1007A0004568DD40C560354D6D6805F44041890BF5
:1007B0003C4D6B5CC568B5FBF3F5056130BD29B1F7
:1007C0002E4A526902432D4B5A6104E02B4A52696A
:1007D00082432A4B5A61704729B1284A92690243E1
:1007E000264B9A6104E0254A92698243234B9A6121
:1007F000704729B1214AD2690243204BDA6104E0F3
:100800001E4AD26982431D4BDA61704729B11B4AE7
:10081000D2680243194BDA6004E0184AD268824376
:10082000164BDA60704729B1144A12690243134B20
:100830001A6104E0114A12698243104B1A61704731
:1008400014494039086070470F49C86470470B4924
:10085000C87170470948406A40F080700749486293
:10086000704701460020054A92680A4201D00120E3
:1008700000E0002070470149887270470010024074
:100880000000FFF8FFFFF6FE00004242D80042429F
:10089000201002408004424200127A0000093D000C
:1008A000000000201000002001460020FD4A1068D2
:1008B00000F03800084310607047FA49096821F0D9
:1008C0000801F84A11601146096801431160704738
:1008D000F449096821F01001F24A116011460968D3
:1008E000014311607047F048EE494860EF484860A6
:1008F0007047EC48006940F08000EA4908617047A1
:100900000420E849C96811F0010F01D001200EE070
:10091000E449C96811F0040F01D0022007E0E14961
:10092000C96811F0100F01D0032000E004207047C7
:1009300008B500200090FF20009002E00098401EC3
:10094000009000980028F9D108BD70B50446042530
:10095000FFF7D6FF054605E0FFF7EAFFFFF7D0FFF8
:100960000546641E012D01D1002CF5D104B90525E1
:10097000284670BD70B50546042440F6FF70FFF7A9
:10098000E4FF0446042C19D1C648006940F0020077
:10099000C449086108464561006940F040000861AB
:1009A00040F6FF70FFF7D1FF0446052C06D0BD4886
:1009B000006941F6FD710840BA490861204670BDE2
:1009C00010B5042440F6FF70FFF7BFFF0446042C67
:1009D00018D1B448006940F00400B24908610846E3
:1009E000006940F04000086140F6FF70FFF7ADFF7E
:1009F0000446052C06D0AB48006941F6FB7108405F
:100A0000A8490861204610BD10B5042440F6FF70C7
:100A1000FFF79BFF0446042C3BD1A348A149886003
:100A2000A24888600846006940F020000861084636
:100A3000006940F04000086140F6FF70FFF785FF55
:100A40000446042C1CD19748006941F6DF71084028
:100A5000944908610846006940F010000861A5202B
:100A6000934908800F20FFF770FF0446052C10D033
:100A70008C48006941F6EF7108408A49086108E036
:100A8000052C06D08748006941F6EF71084085497A
:100A90000861204610BDF8B506460D460424002026
:100AA00000900F20FFF751FF0446042C28D17D4809
:100AB000006940F001007B49086135800F20FFF795
:100AC00044FF0446042C12D1B01C0090280C00995D
:100AD00008800F20FFF739FF0446052C10D071481D
:100AE000006941F6FE7108406E49086108E0052C76
:100AF00006D06C48006941F6FE71084069490861FA
:100B00002046F8BD70B505460E4604240F20FFF7B9
:100B10001CFF0446042C13D16248006940F0010018
:100B2000604908612E800F20FFF70FFF0446052C57
:100B300006D05C48006941F6FE71084059490861D9
:100B4000204670BD70B505460E4604240F20FFF701
:100B5000FCFE0446042C17D1534852498860534880
:100B600088600846006940F0100008612E800F2060
:100B7000FFF7EBFE0446052C06D04A48006941F613
:100B8000EF71084047490861204670BD2DE9F047E4
:100B900004464FF6FF763746B046B1460425E44397
:100BA000E6B2C4F30727C4F307484FEA14690F20DD
:100BB000FFF7CBFE0546042D40D13B4839498860FC
:100BC0003A4888600846006940F010000861FF2E2E
:100BD00006D03748083006800F20FFF7B6FE0546DE
:100BE000042D08D1FF2F06D031480A3007800F208E
:100BF000FFF7ABFE0546042D0AD1B8F1FF0F07D071
:100C00002B480C30A0F800800F20FFF79EFE054611
:100C1000042D0AD1B9F1FF0F07D025480E30A0F8F6
:100C200000900F20FFF791FE0546052D06D01D48C8
:100C3000006941F6EF7108401A4908612846BDE88D
:100C4000F08770B50546042440F6FF70FFF77DFE7F
:100C50000446042C49D1144812498860134888601E
:100C60000846006940F0200008610846006940F02D
:100C70004000086140F6FF70FFF767FE0446042C51
:100C80002AD10848006941F6DF710840054908612A
:100C90000846006940F0100008615DB10020044979
:100CA00008800AE00020024023016745AB89EFCDB0
:100CB00000F8FF1FA5204549088040F6FF70FFF7A8
:100CC00044FE0446052C10D04148006941F6EF71FE
:100CD00008403F49086108E0052C06D03C480069FF
:100CE00041F6DF7108403A490861204670BD2DE9A0
:100CF000F04105460E4617460424364834498860BC
:100D0000354888600F20FFF720FE0446042C19D1D7
:100D10002F48006940F010002D49086147F0F800A5
:100D2000304328432949891C08800F20FFF70DFE16
:100D30000446052C06D02648006941F6EF710840AC
:100D4000234908612046BDE8F0812148C069800838
:100D500070471F48006A704700201D49C96911F09B
:100D6000020F01D0012000E0002070470020184948
:100D7000096811F0200F01D0012000E00020704729
:100D800029B1134A12690243114B1A6104E0104A57
:100D9000126982430E4B1A617047014600200129F7
:100DA00008D10B4AD26912F0010F01D0012008E0EE
:100DB000002006E0064AD2680A4201D0012000E085
:100DC000002070470249C8607047000000F8FF1F0C
:100DD0000020024023016745AB89EFCD70470B48E7
:100DE00080470B4981F308880A480047FEE7FEE781
:100DF000FEE7FEE7FEE7FEE7FEE7FEE7FEE7FEE7CB
:100E000005480649064A074B70470000DD0D0008FB
:100E100078060020310100087800002078060020C4
:100E200078020020780200207047704700BFFEE77C
:100E300000BFFEE700BFFEE770477047704770478E
:100E400070477047704770477047704770477047EA
:100E500070477047704770477047704770477047DA
:100E600070477047704770477047704770477047CA
:100E700070477047704770477047704770477047BA
:100E800070477047704770477047704770477047AA
:100E9000704770477047704770477047704770479A
:100EA000704770477047704770477047704770478A
:100EB000704770477047704700E0401E0128FCD81B
:100EC00070470022002100BF05E0002200E0521C14
:100ED000FF2AFCD9491C8142F7D3704710B5002185
:100EE0000BE0002205E0002300E05B1CDE2BFCDBB6
:100EF000521CB2F57A6FF6DB491C8142F1D310BD6A
:100F000030B50446002503E03C20FFF7E7FF6D1CE9
:100F1000A542F9D330BD10B5102000F0C9F9012069
:100F200000F0DEF910BD10B500BF4FF40051BC4811
:100F3000FFF73DFA0028F8D1C820FFF7C2FF10BD27
:100F400010B5222000F0B4F9C72000F0C9F9202024
:100F500000F0AEF9FFF7E7FF10BD10B5242000F058
:100F6000A7F9002403E0FF2000F0BAF9641C43F65F
:100F700098208442F7D3262000F09AF9002403E059
:100F8000002000F0ADF9641C43F698208442F7D3AA
:100F900010BD10B500F0C0F9122000F089F9FFF77C
:100FA000C2FF742000F084F9542000F099F97E20EB
:100FB00000F07EF93B2000F093F92B2000F078F947
:100FC000042000F08DF9632000F08AF90C2000F075
:100FD0006FF98B2000F084F99C2000F081F99620B5
:100FE00000F07EF90F2000F07BF9012000F060F99D
:100FF0002B2000F075F9012000F072F9002000F0BC
:101000006FF9112000F054F9012000F069F9442033
:1010100000F04EF9002000F063F9312000F060F993
:10102000452000F045F92B2000F05AF9012000F08E
:1010300057F9002000F054F9002000F051F93C204D
:1010400000F036F9012000F04BF9182000F030F9DB
:10105000802000F045F9222000F02AF9B12000F0AC
:101060003FF9202000F024F9FFF75DFF4E2000F04B
:101070001FF9002000F034F94F2000F019F92B205F
:1010800000F02EF9012000F02BF910BD70B50546D7
:101090000E46242000F00CF9002404E0287800F02B
:1010A0001FF96D1C641C43F698208442F6D3262059
:1010B00000F0FEF8002406E03178C943C8B200F021
:1010C0000FF9761C641C43F698208442F4D370BD5B
:1010D00008B501216020FFF77FFB4FF4E060ADF819
:1010E000000010208DF8030002208DF802006946F0
:1010F0004C48FFF7CBF84FF44040ADF8000010200B
:101100008DF8030002208DF8020069464448FFF77D
:10111000BDF84FF40050ADF8000048208DF80300F2
:1011200002208DF8020069463D48FFF7AFF84FF402
:101130008050ADF8000010208DF8030002208DF8DB
:10114000020069463648FFF7A1F808BD10B5FFF761
:10115000D9F94FF48030FFF7F5F9FFF732FA324949
:10116000087008460078012805D14FF4E01100040A
:10117000FFF750FA0DE00120FFF749FA00BF2120E8
:10118000FFF703FA0028FAD04FF460110020FFF7B0
:1011900041FA1020FFF79CFB0220FFF785FB00209F
:1011A000FFF755FA0020FFF764FA4FF48060FFF76D
:1011B00057FA0120FFF73AFA00BF3920FFF7E5F9A7
:1011C0000028FAD00220FFF734FA00BFFFF73AFAFE
:1011D0000828FBD1012144F20500FFF7FDFA10BDFC
:1011E000FFF7B4FFFFF774FF17E0FFF7D2FE0F49D8
:1011F0000F48FFF74BFFFFF7A3FEFFF78CFE5020D1
:10120000FFF76CFEFFF7C5FEFFF7A7FEFFF798FE9E
:10121000FFF781FE5020FFF761FEE6E77047000010
:101220000018014000140140140000204E4E000838
:10123000B613000807E0002101E04A1CD1B20229E0
:10124000FBDB421ED0B20028F5D1704770B50446D2
:101250000120FFF7EFFF002527E04FF400712C4835
:10126000FFF7C1F80120FFF7E5FF14F0800F05D06C
:101270004FF480612648FFF7B4F804E04FF4806132
:101280002348FFF7B0F86006040E0120FFF7D2FFF5
:101290000120FFF711FE4FF400711D48FFF7A1F880
:1012A0000120FFF7C7FF681CC5B2082DD5DB70BD54
:1012B00010B504460120FFF7BDFF4FF480711448BC
:1012C000FFF791F84FF400411248FFF78CF82046E1
:1012D000FFF7BCFF4FF480710D48FFF782F810BD97
:1012E00010B504460120FFF7A5FF4FF480710848B0
:1012F000FFF779F84FF400410648FFF772F82046EF
:10130000FFF7A4FF4FF480710148FFF76AF810BDA2
:10131000001401400018014010B54FF48041084806
:10132000FFF761F84FF47A70FFF7CBFD4FF480417F
:101330000348FFF756F84FF47A70FFF7C2FD10BD6F
:1013400000180140704770477047754600F028F854
:10135000AE4605006946534620F00700854618B0A2
:1013600020B5FFF74DFDBDE820404FF000064FF0DF
:1013700000074FF000084FF0000B21F00701AC46CA
:10138000ACE8C009ACE8C009ACE8C009ACE8C009E9
:101390008D4670470446AFF300802046FEF70FFFEE
:1013A000004870471800002001491820ABBEFEE736
:1013B000260002007047FFFFFFFFFFFFFFFFFFFF58
:1013C000FFFFFFFFFFFFFFFFFFFFFFFFFFFFFFFF2D
:1013D000FFFFFFFFFFFFFFFE000015545492D040B7
:1013E0001000008202A4802AFFFFFFFFFFFFFFFF23
:1013F000FFFFFFFFFFFFFFFFFFFFFFFFFFFFFFFFFD
:10140000FFFFFFFFFFFFFFFFFFE8000000000248B3
:1014100009124290524800000000FFFFFFFFFFFF4B
:10142000FFFFFFFFFFFFFFFFFFFFFFFFFFFFFFFFCC
:10143000FFFFFFFFFFFFFFFFFFFFFE0000000000B8
:10144000051200000800000000000004FFFFFFFF7D
:10145000FFFFFFFFFFFFFFFFFFFFFFFFFFFFFFFF9C
:10146000FFFFFFFFFFFFFFFFFFFFFFFFF010000088
:101470000000004000000000000000000000FFFF2E
:10148000FFFFFFFFFFFFFFFFFFFFFFFFFFFFFFFF6C
:10149000FFFFFFFFFFFFFFFFFFFFFFFFFFFFE50075
:1014A000002142A4400000000000000000000000F5
:1014B000FFFFFFFFFFFFFFFFFFFFFFFFFFFFFFFF3C
:1014C000FFFFFFFFFFFFFFFFFFFFFFFFFFFFFFFF2C
:1014D000F08910152DFAB048AA81085020000000AC
:1014E0000000FFFFFFFFFFFFFFFFFFFFFFFFFFFF0A
:1014F000FFFFFFFFFFFFFFFFFFFFFFFFFFFFFFFFFC
:10150000FFFFA420442D5AA9A5B7EA2F776DD40078
:1015100034000000FFFFFFFFFFFFFFFFFFFFFFFFA3
:10152000FFFFFFFFFFFFFFFFFFFFFFFFFFFFFFFFCB
:10153000FFFFFFFFD11522C4B6F77FFD7FFFDDB7A8
:1015400077F7D5AA0000FFFFFFFFFFFFFFFFFFFFB8
:10155000FFFFFFFFFFFFFFFFFFFFFFFFFFFFFFFF9B
:10156000FFFFFFFFFFFFC4404D156AADDFEFDAFD5F
:10157000B76DADFEBFFFEACDFFFFFFFFFFFFFFFF2F
:10158000FFFFFFFFFFFFFFFFFFFFFFFFFFFFFFFF6B
:10159000FFFFFFFFFFFFFFFF52680345BFF77EF726
:1015A000FF56DAB7F7FFEBFBFF7BFFFFFFFFFFFF05
:1015B000FFFFFFFFFFFFFFFFFFFFFFFFFFFFFFFF3B
:1015C000FFFFFFFFFFFFFFFFFFFED4129ABF6AFF7E
:1015D000FBFDF5FD77ED5FD7DEB7FDEFFFFFFFFF0A
:1015E000FFFFFFFFFFFFFFFFFFFFFFFFFFFFFFFF0B
:1015F000FFFFFFFFFFFFFFFFFFFFFFFFA84004B556
:101600005FDAEDF7D757DAB7FB7DF5DFD6BFFFFF1F
:10161000FFFFFFFFFFFFFFFFFFFFFFFFFFFFFFFFDA
:10162000FFFFFFFFFFFFFFFFFFFFFFFFFFFF701444
:101630005BAFF577DBEF7DFD77FDF7DFDD76DDAFC7
:10164000FFFFFFFFFFFFFFFFFFFFFFFFFFFFFFFFAA
:10165000FFFFFFFFFFFFFFFFFFFFFFFFFFFFFFFF9A
:10166000E842045BFFDB6EBDD6DFDFFF5D7B77DB2F
:10167000F6FBFFFFFFFFFFFFFFFFFFFFFFFFFFFF87
:10168000FFFFFFFFFFFFFFFFFFFFFFFFFFFFFFFF6A
:10169000FFFFC00029376EF6BBEBBDB5FEFBF7D6EA
:1016A000DD77FD56FFFFFFFFFFFFFFFFFFFFFFFF9F
:1016B000FFFFFFFFFFFFFFFFFFFFFFFFFFFFFFFF3A
:1016C000FFDFFFFFF8088897B7DBEEBEF7FFB7AE86
:1016D000DD5B57BEF7FBFFFFFFFFFFFFFFFFFFFFD5
:1016E000FFFFFFFFFFFFFFFFFFFFFFFFFFFFFFFF0A
:1016F000FFFFFFFFFFFFF201227DFFB6BBEBBEAF96
:10170000FFFBB6D5B5EBADB5FFFFFFFFFFFFFFFF5A
:10171000FFFFFFFFFFFFFFFFFFFFFFFFFFFFFFFFD9
:10172000FFFFFFFFFFFFFFFFFD000906BAFBD6BE6C
:10173000FBFDDFAEDB36EEBEFEDFFFFFFFFFFFFF90
:10174000FFFFFFFFFFFFFFFFFFFFFFFFFFFFFFFFA9
:10175000FFFFFFFFFFFFFFFFFFFFFF004050AFB69F
:10176000BDABAED7FDF5B6EB5BEFEDB6FFFFFFFF10
:10177000FFFFFFFFFFFFFFFFFFFFFFFFFFFFFFFF79
:10178000FFFFFFFFFFFFFFFFFFFFFFFFFFEA020A70
:10179000AADBD6FB7B7F77AEDBBDEFBDB7FBFFFFE0
:1017A000FFFFFFFFFFFFFFFFFFFFFFFFFFFFFFFF49
:1017B000FFFFFFFFFFFFFFFFFFFFFFFFFFFFFFFC3C
:1017C00090B4097EB5AED5AADDFBB6D77D6B7DDFC3
:1017D000FFFFFFFFFFFFFFFFFFFFFFFFFFFFFFFF19
:1017E000FFFFFFFFFFFFFFFFFFFFFFFFFFFFFFFF09
:1017F000FFFE0012A4B7DEFB5EFFF6AD6AADD6AD0C
:10180000B77BFFFFFFFFFFFFFFFFFFFFFFFFFFFFB4
:10181000FFFFFFFFFFFFFFFFFFFFFFFFFFFFFFFFD8
:10182000FFFFFFFFAA0C094FF5AFF5AAAD6A955B64
:101830007BF76DD6FFFFFFFFFFFFFFFFFFFFFFFFFF
:10184000FFFFFFFFFFFFFFFFFFFFFFFFFFFFFFFFA8
:10185000FFFFFFFFFFFFFFA26A15BFFDDFFFDB55A4
:101860006AAAD555B77BFFFFFFFFFFFFFFFFFFFF12
:10187000FFFFFFFFFFFFFFFFFFFFFFFFFFFFFFFF78
:10188000FFFFFFFFFFFFFFFFFFE880A16B7BBFFFB4
:1018900075AA956AAD5D6DAEFFFFFFFFFFFFFFFF0D
:1018A000FFFFFFFFFFFFFFFFFFFFFFFFFFFFFFFF48
:1018B000FFFFFFFFFFFFFFFFFFFFFFE02004948417
:1018C0004F6AAAAB775F7BEBAB6BFFFFFFFFFFFFBE
:1018D000FFFFFFFFFFFFFFFFFFFFFFFFFFFFFFFF18
:1018E000FFFFFFFFFFFFFFFFFFFFFFFFFFF42A00E7
:1018F00001217ADB6DBDADEAD6BEFABDFFFFFFFF69
:10190000FFFFFFFFFFFFFFFFFFFFFFFFFFFFFFFFE7
:10191000FFFFFFFFFFFFFFFFFFFFFFFFFFFFFFDAFC
:101920001D102004AB6DB6D6B7BF5BF757D7FFFFCE
:10193000FFFFFFFFFFFFFFFFFFFFFFFFFFFFFFFFB7
:10194000FFFFFFFFFFFFFFFFFFFFFFFFFFFFFFFFA7
:10195000FD5480D64409555555B5DD6AF6DDFB7D4D
:10196000FFFFFFFFFFFFFFFFFFFFFFFFFFFFFFFF87
:10197000FFFFFFFFFFFFFFFFFFFFFFFFFFFFFFEF87
:10198000D57EA002405212B5B595544A6AAB5B763B
:10199000ADD7FFFFFFFFFFFFFFFFFFFFFFFFFFFFD1
:1019A000FFFFFFFFFFFFFFFFFFFFFFFFFFFFFFFF47
:1019B000FFD8AA80000002C155DEEEFAD529955A5B
:1019C000EEDDF77DFFFFFFFFFFFFFFFFFFFFFFFFE4
:1019D000FFFFFFFFFFFFFFFFFFFFFFFFFFFFFFFF17
:1019E000FFFFEF22000000000824064BBB5FAAD6D1
:1019F000EDB6B5AB5555FFFFFFFFFFFFFFFFFFFF44
:101A0000FFFFFFFFFFFFFFFFFFFFFFFFFFFFFFFFE6
:101A1000FF6E895110800000000412A481402EF452
:101A2000FDBDBB6BD55AB6F7FFFFFFFFFFFFFFFF02
:101A3000FFFFFFFFFFFFFFFFFAD853FFFFFFFFFF8E
:101A4000FFFFFAB2A4000000000000034AB2DAA4CB
:101A5000455A96C6EDAD5DCDAD55FFFFFFFFFFFFCB
:101A6000FFFFFFFFFFFFFFFFFFFF6A80002FFFFF69
:101A7000FFFFF7750008000000089202545AB5ED08
:101A80002552480D251DB6D6D6BADBDFFFFFFFFF76
:101A9000FFFFFFFFFFFFFFFFFFFFFFFE80000000D3
:101AA00052AFFD56988800000004DAAC58A96AA627
:101AB000D6B6DDD7B442DFF6DDBB7AD56D75FFFF54
:101AC000FFFFFFFFFFFFFFFFFFFFFFFFFFFC0037F0
:101AD0006D0015500000A2200000295B6AB352AAD5
:101AE000A95BB5AB56B1552F755DB6AED6AB5B5F96
:101AF000FFFFFFFFFFFFFFFFFFFFFFFFFF843050EF
:101B0000095DBAF00000000008000005AFD555558A
:101B10005555AAAADF7D7DEAB5DADFF6DDDB7B5419
:101B2000E6FDFFFFFFFFFFFFFFFFFFFFFFFFFF00DF
:101B30000001FFFFF7DE800008000188CBFF7AA5D7
:101B40002AAB6AD6655AB4D7D55DEAB7B6EDF77653
:101B5000D6AB5DABFFFFFFFFFFFFFFFFFFFFFFFF08
:101B6000FF800003FFFDBB6BEA0ABB7411FF7D6AB7
:101B7000D6554AB4955BBDA54B5557F75FFFFF7F20
:101B80005DADAB55B6BDFFFFFFFFFFFFFDFFFFFFE4
:101B9000FFFFFF80449FF7FFEFFFFABFF7AB6FB582
:101BA000DFDFB5AADBAD6955555554AAADBDF6B713
:101BB000ADD5F6AAA8556DEBFFFFFFFFFFE112952B
:101BC000FFFFFFFFFFF6105FFFDB7EF5BFEFBEFEFE
:101BD000BAD76D6ADAB5B6DB56D54D555554DED653
:101BE000DBDAF77F5B7555AAAAADFFFFFFFFF410A4
:101BF00004A42FFFFFFFFFFF03B7FEB6DBAF7AFBA6
:101C00007FDDEF7DDBFEAD6D6AAAB56AB2AA9A8B65
:101C100075B5B6B7BDDBF6D552295BAAFFFFFFFE4F
:101C20000010803682FFFFFFFFFFF0DAFBDB6EFD66
:101C3000AF5FDB76B5D76D5BF7B6AB55ADAEAEDB60
:101C4000F77D56DD5B6AD76D5AB6A94AAD76FFFFC0
:101C5000FFF5401824AF683FFFFFFFFFFD05EFFFD2
:101C6000DBAB7BF6F7DDDEBADFF6ADAB6ED6CAB521
:101C7000B5B55AD7FBB6D6D6BDDADFD5AAB5EB5B7C
:101C8000FFFFFF80004002A95A8FFFFFFFFFFFA068
:101C9000B7FFFFFDED5B5D776BEF755BFEEDA97D3B
:101CA0007ADB56554B7D6EEBB555AB55555AD55332
:101CB0005D6DFFFFFE5FEFF800AA7743FFFFFFFFB8
:101CC000FFD8097FF6FF5BF6F7DDFEBBDFFFF7B756
:101CD0007FEF57AADDEB75DBDBBD55555AAA97752B
:101CE00056ADB7DBFFFFFDFFFFFC022B33B9FFFF53
:101CF000FFFFFFFF40AFFFFFFD5B5B77AFFFFFFE26
:101D0000FEFBAF75FEFFF6ADDF6F76D75524AAA2B6
:101D100048AD59B2DAEFFFFFFFFFEFFE0094420635
:101D2000FFFFFFFFFFFFE2FFFFFED016F6DAFBDD4D
:101D3000757BD7DEFBDFADAA009AB5DADDB4D555E9
:101D4000554892AAA64D57BEFFFFFFFFEFFFE8518F
:101D5000F8E83FFFFFFFFFFFFFFFFFFFF11B5B6F97
:101D60006EF7DFDF7D6BAD76F6FE040FDF6F6AABDB
:101D70006AAAAAA24AAAA952B6F7FFFFFFFFEFFF7D
:101D8000FFFFFB17BFFFFFFFFFFFFFFFFFFFF83F56
:101D9000F6DADBAD6AB6D7DEFBDDADAC090D75DA80
:101DA000DAD55555555495AAAAB56DBDFFFFFFFF6D
:101DB000FFFFFFFFF7EFDFFFFFFFFFFFFFFFFFFF6B
:101DC000F87FFFFFFFFFFFDF7D75AD76F6F60417A6
:101DD000DEB7B6B4AAAAB2AAAAB5554AB5D7FFFFCC
:101DE000FFFFEFFFFFFFFFFFEFFFFFFFFFFFFFFF23
:101DF000FFFFF87FFFFFFFFFFFFDDFDF7BDDADAC07
:101E0000101D75ED6DABB6DAAD5556D5AAB5DF7DB3
:101E1000FFFFFFFFFFFFFFFFF7FFFFFFFFFFFFFFDA
:101E2000FFFFFFFFF8FFFFFFFFFFFFF6000FED369C
:101E3000FEF60417DFBBB6BAD52ADA56AABB6DDBAD
:101E400075B7FFFFFFFFEFFFFFFFFBFFFFFFFFFF88
:101E5000FFFFFFFFFFFFFAFFFFFFFFFFFFF0000B99
:101E6000C07FC12A001576AEEDEFBDF777FB5EEEC1
:101E7000D56EDF6DFFFFFFFFEFFFFFFFF7FFFFFFF7
:101E8000FFFFFFFFFFFFFFFFF87FFFFFFFFFFFF4F4
:101E9000800DB43FF4AB00295E5396AAEAAD5AAA6E
:101EA000EBBB7FBB75B7FFFFFFFFFFFFFFFFFFFF30
:101EB000FFFFFFFFFFFFFFFFFFFFF8FFFFFFFFFF39
:101EC000FFEAA00B402EE914084B7E177DEFBFFF01
:101ED000FFFFBEEFD56EDFFFFFFFFFFFEFFFFFFF4E
:101EE000F7FFFFFFFFFFFFFFFFFFFFFFF87FFFFF91
:101EF000FFFFFFEE1215D01FBC9704E03E2BF4B598
:101F0000FFFFFFFFFFFD7FFFFDFFFFFFFFFFFFFF65
:101F1000FFFFF7FFFFFFFFFFFFFFFFFFFFFFF97F5F
:101F2000FFFFFFFFFFFAA0B6943FCA6A01D17E57B8
:101F3000ABCBFFFFFFFFFFFFFFFFFBCAFFFFFFFF72
:101F4000FFFFFFFFFBFFFFFFFFFFFFFFFFFFFFFFA5
:101F5000F93FFFFFFFFFFFFEAA0AE00FF52F08ED94
:101F6000BE2BF77BFFFFFFFFFFFFFFFFFC02FFFF22
:101F7000FFFFFFFFFFFFFFFFFFFFFFFFFFFFFFFF71
:101F8000FFFFF13FFFFFFFFFFFFFC015883FBDEEE2
:101F900011DAAE07EDCFFFFFFFFFFFFFFFFFE80005
:101FA000FFFFFFFFFFFFFFFFF7FFFFFFFFFFFFFF49
:101FB000FFFFFFFFFBBFFFFFFFFFFFFD200DE41F43
:101FC000EAFD014ABE13F6B7FBFFFFFFFFFFFFFF6D
:101FD000F400FFFFFFFFFFFFFFFFF7FFFFFFFFFF23
:101FE000FFFFFFFFFFFFF3DFFFFFFFFFFFF0800BAF
:101FF000D02CBBFD11B55E277DF7F7FFFFFFFFFF7C
:10200000FFFFC000FFFFFFFFFFFFFFFFFBFFFFFF22
:10201000FFFFFFFFFFFFFFFFF3DFFFFFFFFFFFF803
:102020000001E02FD57F10DBAE039ADFFBFFFFFF3F
:10203000FFFF7FFFFA00FFFFFFFFFFFFFFFFFFFF34
:10204000FFFFFFFFFFFFFFFFFFFFF3DFFFFFFFFFCC
:10205000FFFE0002881FFCDF01D67C2F7F6FABFFE5
:10206000FFFFFFFEDFFFD020FFFFFFFFFFFFFFFFAF
:10207000F7FFFFFFFFFFFFFFFFFFFFFFE7CFFFFFC0
:10208000FFFFFFFF2002A00FB7AF20B59E03B5B33F
:10209000A3FFFFFFFFFFAFFFEE00FFFFFFFFFFFF0C
:1020A000FFFFFFFFFFFFFFFFFFFFFFFFFFFFE7EF68
:1020B000FFFFFFFFFFFEC007881EECAD11EEFC071F
:1020C0007FAF41FFFFFFF7FD5FFFD425FFFFFFFF5D
:1020D000FFFFFFFFFBFFFFFFFFFFFFFFFFFFFFFF14
:1020E000E7D7FFFFFFFFFFFFD407E00FFE8F005A87
:1020F000BE53BF7703FFFFFFDB7FEFFFFC20FFFF37
:10210000FFFFFFFFFFFFF7FFFFFFFFFFFFFFFFFFE7
:10211000FFFFCFDAFFFFFFFFFFFFFFF1001F592A8C
:1021200020F6FC017F4F03FFFFFFAFEF7FFFFC486E
:10213000FFFFFFFFFFFFFFFFFFFFFFFFFFFFFFFFAF
:10214000FFFFFFFF9FDBBFFFFFFFFFFFFFF7C80D94
:102150006E8B00DFFC015FF701FFFFFEFABFBFFFE0
:10216000F064FFFFFFFFFFFFFFFFF7FFFFFFFFFF31
:10217000FFFFFFFFFFFF1B9DDFFFFFFFFFFFFFF7DD
:10218000FB9FB96E087FFC12BFEF6BFFFFFFDFF212
:102190003FFFC088FFFFFFFFFFFFFFFFFBFFFFFFC9
:1021A000FFFFFFFFFFFFFFFC3FDFEFFFFFFFFFFF32
:1021B000FFF809CFFFD20C7FFC009DB72BFFFFFF7C
:1021C000F5BD5FFF00C0FFFFFFFFFFFFFFFFFFFF49
:1021D000FFFFFFFFFFFFFFFFFFF877EEF7FFFFFFB7
:1021E000FFFFFFF00BE5FFFE087FFC12B2F6417F18
:1021F000FFFFEFFF2FF01900FFFFFFFFFFFFFFFFC3
:10220000F7FFFFFFFFFFFFFFFFFFFF117FE773FFF8
:10221000FFFFFFFFFFE003FFBFF60C3FE0014C5F55
:1022200000BFFFFFF237A1C0F080FFFFFFFFFFFFFD
:10223000FFFFFFFFFFFFFFFFFFFFFFFFFCE77F56F2
:102240002CBFFFFFFFFFFFF003FFC1FC1C3FE002BC
:10225000D9AF017FFFFFCDF54E076000FFFFFFFF05
:10226000FFFFFFFFFFFFFFFFFFFFFFF7F7B3E3CF26
:10227000B7D2476D7FFFFFFFFFF201FC39D60E3F5B
:10228000E0011ADF42BFFFFFA84FDA05B000FFFFF1
:10229000FFFFFFFFFFFFFFFFFFFFFFFFFFEFF8E97B
:1022A000B79F2B609C7FFFFFFFFFFFFC003805FC02
:1022B0001F3FFE00175E00FFFFFFD3B5306A7000BE
:1022C000FFFFFEFFFFFFFFFFFFFFFFFFFFFFFFFF1F
:1022D0007626FF3F6DAA42BBFFFFFFFFFFFFF00026
:1022E00095EC1F1FFFF801B7007FFFFFBF6AF1B138
:1022F0002640FFFFFBFFFFFFFFFFFFFFFFFFFFFF8A
:10230000FFFBD741EE7E4151A5CDBFFFFFFFFFFF91
:10231000FE0005F93F9FFFFF805E00BFFFFF7EAB21
:1023200062AAE410FFB7FFFFFFFFFFFFFFFFFFFF01
:10233000FFFFFF7D3160897F54040F775FFFFFFF50
:10234000FFFFFFF814FC3FDFFFFFF80F01B6FFFFB0
:10235000DD5DF5552400FFFFFFFFFFFF7FFFFFFF5F
:10236000FFFFFFFFFFD24E4A167760CCDABEFFFFB9
:10237000FFFFFFFFFFFF01E93FCFFFFFFF02075F06
:10238000FFFFB36F176AC428FFFFFFFFFFFFFFFFC8
:10239000FFFFFFFFFFFFFF5D648A8E3EAA9342FAB4
:1023A000FFFFFFFFFFFFFFC084F87FCFFFFFFFE0CD
:1023B000117DBFFFEDAE76B59E71FFEFFFFFFFFF12
:1023C000FFFFFFFFFFFFFFFFFE292902216BC5541E
:1023D000BFDBBFFFFFFFFFFFFFF001F87FEFFFFF55
:1023E000FFF000FFFFFE5B55AEAD1471FFFFFFFF76
:1023F000FFFFFFFFFFFFFFFFFFFFFFA56AE00A8E61
:10240000F49BFFEDFFFFFFFFFFFFFFFF00F87FE7FB
:10241000FFFFFFFD407FEFFF2B716AE65C38FFFF97
:10242000FFFFFFF5FFFFFFFFFFFFFFFFFF56DD9000
:10243000A4BBBBB7FFFEFFFFFFFFFFFFFFFFE0F006
:102440007F67FFFFF7FD521FFFFE92D754BCB468B1
:10245000FFFFFF7FFFFFFFFFFFFFFFFFFFFFFD9B72
:10246000EF8496D5EDFB7FFFFFFFFFFFFFFFFFFF30
:10247000FC30FF87FFFFEAFF4907FFFD5129535456
:10248000D42CFEFFEBEDFFFFFFBFFFFFFFFFFFFFC1
:10249000FF75F3B3D7DF7FBEDF7FFFFFFFFFFFFFD7
:1024A000FFFFFF00FF43FFFFD53FD561FFFEAFCE2B
:1024B000EEE9546AF7FF7EFFFB7FFFFFFFFFFFFFA0
:1024C000FFFFFFD7FCBDEEFDFFFBD7FFFFFFFFFFC8
:1024D000FFFFFFFFFFE1FF21FFFFECD7F490BFFFFD
:1024E000B7B6BEB3B42AAD7FDDBFFFFFFFFF7FFFEE
:1024F000FFFFFFFFFFADFF73FFFACF7FFFFFFFFF7F
:10250000FFFFFFFFFFFFFFE07F01FFFFD35FFD4CF9
:102510003FFFEF456B64AA56D7ADEFFFFFFFFFFF0C
:10252000FFFFFFFFFFFFFFFFFFFFFFD87FEEF7FF7B
:10253000FFFFFFFFFFFFFFFFFFE00F003FFFED7D0D
:10254000DD0237FFFD5555C7942BB6EDFFFFFFFFAA
:10255000FFFFFFFFFFFFFFFFFFFFFFDEBEE51F8F57
:10256000DFFFFFFFFFFFFFFFFFFFFFC0C3C64FFFFF
:10257000C0EFB8A0BFFFFAA9553F6A52DB97FFFF33
:102580007FFFFFFFFFF7FFFFFFFFFFBEB2BAFFF4C1
:102590006EE1FFFFFFFFFFFFFFFFFFFFFFC6F8EE4B
:1025A00063FF257FFE281FFFFEABAF2FAB15A57F76
:1025B0007DFFEFED7FFFFFFFFFFFFFFFFFEA878754
:1025C000FEEBD93FFFFFFFFFFFFFFFFFFFFFFF868F
:1025D000FF0F39FE88DFEC8237FFFB6B6D76AA6A4E
:1025E0009215BF7DBEB7BFEFBBFDFFFFFFFFFFEE44
:1025F000B1A9DFF7CAEFBFFFFFFFFFFFFFFFFFFF3C
:10260000FFA6FFC7BC7E2254BC401FFFFDBCD553B4
:10261000AC158092D5EFF5ABF7FD6FEFFFFFFFFF35
:10262000FCCD59AFDF7F3FF7BFFFFFFFFFFFFFFF8D
:10263000FFFFFF0EFFC99F3E84B7DC085BFFFBCBAB
:10264000965DED1F80052AB6AA5FFFF7BAFB7FFFF4
:10265000FFFFFFFE22FFF7FD85FDFFFFFFFFFFFFEE
:10266000FFFFFFFFFE0EFF9E0F8E515576A21FFF4C
:10267000F4757F6EB08E801045A949FFFD7EEFBADC
:10268000FFFFFFFFFF5F6FEF6FF227FFEFFFFFFF1F
:10269000FFFFFFFFFFFFFC1E3F1FCDC68B555C00F9
:1026A0001DFFE5AB52CA651A800554202F7FF7BF86
:1026B000BDFD7FFFFFFFFFBFA7ED6FF9CEBEFFFFA0
:1026C000FFFFFFFFFFFFFFFFC03EDF8FE773E9550E
:1026D0007EAA1FFFFA6AFC9CA3AA800001032BC2FA
:1026E0004DA4EF79FFFFFFFFFF771B967B541F7B05
:1026F000FBFFFFFFFFFFFFFFFFFF803EEFCFF3F980
:10270000BE4BE4081FFFFFDDB125494A88000400E5
:1027100054797EAA15DFFFFFFFFFFFFFFE9007EB56
:102720007BB7FFFFFFFFFFFFFFFFFFFF80FDF7E32A
:10273000FB84CF23F0001EFFFFFADE9554AA800031
:102740004000594102814B723DFFFFFFFFFFFB42FA
:102750003FB6DEFFBFFFFFFFFFFFFFFFFFFF01FEF2
:10276000FBF3FBBEFE4B5D0039FFFFFFFB252B8516
:102770008002120B25042D4024CCAFFFFFFFFFFF8A
:10278000F7605FF5FFFBFFFFFFFFFFFFDFFFFFFECF
:1027900040F6FBF97DFF3EB7FF400F3FFFEFFE42E3
:1027A000B5BE9012146A10012A1499DBBFFFFFFF17
:1027B000FFFFFCD5DF57FFEFFFFFFFFFFFFFFFFF2E
:1027C000FC044CEFFDC9ECFC2D41FFF81CFFFFFBA6
:1027D000FDDA8A729505D14C84092B006D6DBFB767
:1027E000FFFFFFFF3E5FFFEABFFFFFFFFFFFFFFFAF
:1027F000FFFFF0005CFEFDEDF01F5EBF5FFF052FE9
:10280000FFFFB572555280552A0120A28802AAD72F
:102810007B7FFFFFFFFF5ABFFFDFEFDBFFFFFFFF05
:10282000FFFFFFFFC3E0FCDEFF7879734715AFFFC2
:10283000A14DDFFFA554A944914AC880001220C6CB
:10284000255AADDFFFFFFFFEFEFF7FF7FFF7FFFF1B
:10285000FBFFFFFFFFFE1FE1DC8FF99E3163F0C03D
:10286000DBDFFC12FFFFF54D4432945102000104FE
:10287000890892A8FB7FFFFFFFFFBDBCEDFFFFF7BC
:10288000FFF3FFDAF3EAFFE4FFC3DCBEDE604E18BD
:1028900051FEBA7FFF08EBFFED1A91F284A22800E7
:1028A0008889423509582EFFFFFFFFFFEDFFFF5FCC
:1028B000FFFFFFDBF9F938603FE1FF87EC3CCF64B5
:1028C000C8CDF75FCD2ADFC13FFFFEE7C5E09058D6
:1028D0000083208A10942AA8FBFFFFFFFFFFFF77E9
:1028E0005EFFFFFFFFE7F7FAAEE8FF847F0FFCD43F
:1028F0003FF031098C6BE6DF3FF06DFFF7DC182B02
:102900009B728014081192A401286FFFFFFFFFFF44
:10291000FFEDEBFFFFFFFFF373FCC6D6C67EFF1F84
:10292000EC110E1C0C03A47F696FFFE83AFFEDF079
:102930003C94F650082955402200816B3FFFFFFF71
:10294000FFFFFFFD5FBFFFFFFFD7EFD729C441FFA8
:10295000DC3F78C79E0506D2650EDE535A871FBA44
:10296000DB837929E5040020802005500551BFFF55
:10297000FFFFFFFFFFFF7FFFFFFFFFF9FBF1E0B16C
:10298000BFFFFC7FF8F183E19180155FAF5DFE3FF3
:10299000C6EF7C0FAEAEAD11100228802104BFD768
:1029A000BFFFFFFFFFFFFFFFFFFFFFFFFFFE7123E2
:1029B000DC013FEFF87FE8682C741265FED5ABB2FE
:1029C000B5FFE3BBE07FD64DDA408109556915516B
:1029D0005F73DFFFFFFFFFFFFFFFFFBFFFFFFFFE94
:1029E000DF1C4E8C06C7E0FFFC4010821F3495F2BE
:1029F000CCDF5BFFF8EE81FB567580000222929BD4
:102A0000EA4B56E78FFFFFFFFFFFFFFFFFF7FFFFD8
:102A1000E07D1BDD19900E0442FFF1848704461609
:102A2000FFA7B95CAFFFFC380FEFF8AEA100148A26
:102A30006D6FB52C91CBB5FFFEFFFFFFFFFFFFFFD2
:102A4000FFFFF7F4C164338039078E7FF492408032
:102A50004182D1FA79D3FFFFFE003FFFF8F78248A9
:102A60008414920948122F1BBF7FFFFBFFFFFFFF5B
:102A7000FFFFFFFFFFB09251C50CD1045CFFFDA822
:102A80000161E1955D1FDEFFFFFFFF01FEF7F3CF60
:102A9000800000416942A54BF61FDDBFFFDFEFFF5D
:102AA000FFFFFFFFFFFFBC87404B5264012060FB2C
:102AB000FAA09B52F9C734DF2B7FFFFFFFCFFFF84F
:102AC000B765884240140C9D5207C99B49ABFDFF76
:102AD000FFFFFFFFFFFFFFEFEEA80D96D082484AF1
:102AE000F2F8EB522794159D5BBDB2DBFFFFFFFFB1
:102AF000FBAF492BA5282040A2601929B3CDA02502
:102B0000BFFFFFFFFFFFFFFFFFFFC25493C1190C80
:102B1000610FD27EF34AC2891ACA27DE1A5DFFFF0F
:102B2000FFEF7E5FF7D7DA568D155E90665F2F1147
:102B3000052B6FEFFFFFFFFFFFFFFFFF94A530C4E2
:102B400082108A44867F1712309E71A0FFACE5FF89
:102B50007FFFFFFBFBFBBDA5A9D27DD54956FA9FA0
:102B6000D7C08056977FFFFFFFFFFFFFFFFE524851
:102B7000982E284024404AD77B6A5821F59FFBBFF6
:102B800092BFBFFFFFEDFFACEFB792815BA6B52C04
:102B9000AA2C46D22AAB7BFFFFFFFFFFFFFFFFFF00
:102BA000E8922E51570040208881FBD04F1B563FA2
:102BB0005FEFAFDF7FFFFFBBDF7FDB6DCA65280004
:102BC0005AA7B6A112A925FE9FFFFFFFFFFFFFFF37
:102BD000FFFFCA4911E52FE1101025BB57BBE34E9B
:102BE0008BEFFFF7B7FFFFFFFFD5FFCF64B3BE8DBD
:102BF00052A5B7DA5A90556ADBFFFFFFFFFFFFFFD0
:102C0000FFFFFFFFB152659E72400C86CC0EF7B4F9
:102C1000869CFDFFFDFEEEBFFFFFFFD7FFBFDF2D50
:102C2000BEA10A95CFF56CAF6FBF777FFFFFFFFFA7
:102C3000FFFFFFFFFFFFFD0D9FDA972800CD525DDC
:102C400077BB56A5FF7BFE7DEB7FFFFFFFADEBFF64
:102C500065B2C985403377AAABEFFA6EFEBFFFFFBE
:102C6000FFFFFFFFFFFFFFFFB0AB2FBDAE060D3133
:102C7000C6FB9D33BEFCBBFFBFFF9CFFFFFFFFEB0E
:102C80005D7AB94CAFEA604DF8DAAAF7FC8F97FF8E
:102C9000FFFFFFFFFFFFFFFFFFFF4A54D7C7EC44D2
:102CA000908A7DEDABF9BFBFAFEFFFFFFFFFFFFFE6
:102CB000FFFBD5ED66A2AFABF752D752A52DED299C
:102CC0004FFFFFFFFFFFFFFFFFFFFFFF12C77FB5B3
:102CD000FCAAAD298B5CEF77EB7F7D5FEFF7F7FF09
:102CE000FFFFFFFAABDABC99D5555B48BD5512968C
:102CF000B6EAFD7FFF7FDAB7BFFFFFFFFFFFFC38BB
:102D0000357ABC814F91FDA7DEF9E6EEFAE7FFDFE9
:102D1000FFFFFFFFFFFF697DB74DAD6B6EAFE9575A
:102D200025B6EC85FBEB7ADFFF57FFFFFFFFFFFFC8
:102D3000F17977D2EB7CC6EDF3BBD97FFECBEAEB22
:102D4000F5BF7FFFFFFFFFFEDFD565B79495A37B3F
:102D5000D6ABD7BB5A056EBFB56F3CD96DFFFFFF31
:102D6000EFFFFDE6FFFAEB7C3FEF6FFBB77FEE7EF8
:102D7000ADCC3EDBFFFFFFFFFFFFF56ABAABB95BEF
:102D80007ADF555D960264B76BDFEEAAFB6FDBEF6F
:102D9000FFFFFFFFF28FBFBE979FBD93DBFBDFFFFF
:102DA000EAFF5EBB7FF5FFFFFFFFFFFEEFD76AFB89
:102DB000AD656D2AAF3FFB01FEAEDD7FF555ED5AE7
:102DC000FF77FFFFFFFFF4272FFEAAFF7FDFBBEF98
:102DD0000B27FBFEFFA9FFFFFFFFFFFFFFFFBB6A03
:102DE000FB75AB1AAA555AEF78DDFE4FF7FFAA5ACA
:102DF000BB57ADFFBFFFFFFFFBCA7E7BBCE057FBAD
:102E0000FBF6A789FEFFFFB6F3FFFFFFFFFFFFFF03
:102E1000EEBFDD55A4D56969AB558E7B7FFFD5FF2D
:102E2000D544DDEDFFFE77FFFFFFFF4BD7EBF5FF4E
:102E30005FBFFFFF54EAF9EBEFDE57FFFFFFFFFF35
:102E4000FFFE75CB7555CBAA9556DFDF39F2A7ED9E
:102E5000AFDFB297AAD6DDFFFFFFF7FFFEBEFDDFB3
:102E60007FFF7DFBFA824BFFFFC7E3FD7FFFFFFF84
:102E7000FFFFFFFDEEBEFD57955AAD526557F65E5A
:102E8000D5B6BAFEEA4935BF75EDFFFFFFFFFEFF7D
:102E9000FFFF7EFDBFFFF7F8082DFD71FBBFFFFFB1
:102EA000FFFFFFFFFFFFDB6BD6B3A542ABF5BFFF14
:102EB000FFE8FDD5AFB79897CB7BB7EBEF5FFFFF90
:102EC000EFFFFF76FD9BF63EFBEDB347F3CEFFBF72
:102ED000FFFFFFFFFFFFFFFEF7BFB6DF91AD6A7B8D
:102EE000575FFFAAEEEA3BFB6510A48CE9BD77FFB4
:102EF000FFFFF7FFF775EF9FE69797E5902FFB83AE
:102F0000DF93FFFFFFFFFFFFFFFFFED7C97FAA5B35
:102F1000557EFD7FFFBFAF15EEBAB4456B7BAF7B2F
:102F2000FFF55FFFFBFFE3F5E9B10FFFF7D962772C
:102F3000FE63CBF3FFFFFFFFFFFFFFFFFFEF77FF16
:102F400095CDB776FADEFFD9EDF5BEEED093D4D7A6
:102F5000D5FED7DEEFFFBEBDD430661B5EFF7BE93A
:102F600031EDC3702FFFFFFFFFFFFFFFFFFFFFDD0E
:102F7000FFFFAAB3557FF7FFFFDFA96D7AB54605BE
:102F80004BAD76AB7FFDBFFFAFC9FC960C35FE6D38
:102F900076EC13BABDBC7FFFFFFFFFFFFFFFFFFF13
:102FA000FFF7FFFFD678FD7D6DF5FFF6B55BAF6EE1
:102FB000BAAABAEDAB7D3FD7EFFE7BA38200AF028A
:102FC0002FBEFBDA7DD5C72FFFFFFFFFFFFFFFFFFF
:102FD000FFFFFFFFFFFF95A752FFDB7FFDC67BD6FC
:102FE000D5554315E2BAFE9BEDDFFFFBFB7E08C122
:102FF000FD927F3FF7F1F78D05BFBBFFFFFFFFFF9E
:10300000FFFFFFFFFFFFFFFFD395F5BEEDFFFF7B47
:10301000BEABEADBAC93BD7FDAE6AFEFFFFF2F6715
:10302000C8D81DA33FDF73B9FCD2F9E97F29FFFFA0
:10303000FFFFFFFFFFFFFFFFFFFFAEEB5DB5FFFFF1
:10304000FFDFEAEB52A571557AD6B5DDFBE7FFFF4E
:103050007ECF36F09937BFB7777B6F73F7E4EE3FDB
:10306000FFFFFFFFFFFFFFFFFFFFFFFF959DE72B28
:10307000FFFEFFFDFED55CBD9D0AF9DADAAAAD6F51
:10308000FFFF0F3BF41A07DFD7DBBBFFA73FBBBF38
:103090007FFFFFFFFFFFFFFFFFFFFFFFFFFFAD6AA7
:1030A000B6BFFFFFFFEB4DAAD35562577775A7AAAE
:1030B000DBEFFFFDEF5E4105BFA6FD9C5FBB7887A0
:1030C0003DFFDFFFF7FFFFFFFFFFFFFFFFFFFFFFFA
:1030D000ADAB5ADFFFFFFFFFB6ECAD2AA523BBDA8D
:1030E0009AB766EFFFFFD7BEA080BEFBEF55DAF9B7
:1030F0005A99C79FCFDFFFFFFFFFFFFFFFFFFFFFD3
:10310000FFFFBB56AD7FFFFFFFFBED5B7955494DE0
:10311000756526CDBADFFFF76973E7BBEBD7EEE144
:10312000FF730680BFEFFFF5FFFFFFFFFFFFFFFF0D
:10313000FFFFFFFFEBB5D5FFFFFF7FECD5A4AEABE4
:103140005491BB58D57AEF7FFFFF1D3BD9F5CFBF18
:10315000FFDBFFFD84C07FF7EFBEFFFFFFFFFFFF38
:10316000FFFFFFFFFFFF9D6B5FFFFFFFDEFFF55FD0
:10317000DA56D35756AAB5B757FFFFFFE55FB981B7
:10318000BFD7FAD3FFCC5C75F9FCFB7DFFFFFFFFD7
:10319000FFFFFFFFFFFFFFFFADB55FFFFFFFF55A2A
:1031A000AD556B5B6D5966AAAAABE8FFFFFFF07FD8
:1031B000FE15FDC741EACCDA2D27C67FFDEABFFF29
:1031C000FFFFFFFFFFFFFFFFFFFFBB4D7FFFFFFF85
:1031D000D2B57B6D555656AE5D255ADFCAFFFFFB53
:1031E000EAF3A969FDB92A4AF9BC83079DBF7DFFAF
:1031F000BFFFFFFFFFFFFFFFFFFFFFFFBDA6FFFFBA
:10320000FFFF5FFFEDD6EC95EABBE7D9295FFFFF33
:10321000FFFFCBF2F4B4FB16F5FBBAD6134BEDBBB4
:1032200037FF5FFFFFFFFFFFFFFFFFFFFFFFAADD8D
:10323000FFFFFFFFD5FEF6ACA92D55DEDAA24AB797
:10324000FFFFFFFF77E7FD5D691040FB75A8E07B9E
:10325000F9BF7FF7EFFFFFFFFFFFFFFFFFFFFFFF5C
:10326000AB66FFFFFDDFB75B7F53AAB2AF6FCB75D5
:1032700024ADFFFFFFFFEFFFBE7D164500007A552E
:103280003CBCFBBDFED79FFFFFFFFFFFFFFFFFFF23
:10329000FFFFEEDDFFFFF6D7AAF6DDAEA9555ABF58
:1032A000DB4A4BFF7FFFFFFFFFFFFFFFEC204437B0
:1032B000ECB54BCF7B9BFDFFFFFFFFFFFFFFFFFF49
:1032C000FFFFFFFFBFBEFFFFFB7BB55AF7554AB6B6
:1032D000D5B7ADD52A97FFFFFFFBFFFFFF6E3290FA
:1032E000623FFEB963F7ACACE7FFFFFFFFFFFFFFF4
:1032F000FFFFFFFFFFFFBB2BFFFFFF56EB557DAB33
:1033000052AD956D3B2AD57FFFFFFFFEFFFBF6F523
:10331000D80408B3FCC2DFBFFBFEDF5FFFFFFFFF87
:10332000FFFFFFFFFFFFFFFFEEF5FFFFFF5215B7A7
:1033300056D55696E557DEEED4B7FFFFFFFF7FFF69
:10334000FF78DAE24997DEFD5EF9F7FFAFBFFFFFD6
:10335000FFFFFFFFFFFFFFFFFFFFDFD5FFFFF85578
:103360000AAA9DA9292B5ABEBDBD4AAFFFFFFFFD8A
:10337000F7FFFFDB53CA0A2FFE78A696EFF75F7FB1
:10338000FFFFFFFFFFFFFFFFFFFFFFFFB555FFFF41
:10339000FF5441BD575544ADED5B5F77A55DFFFF21
:1033A000FFFDDFFFE7E721A40DBFFD5B1BFFFFEB88
:1033B000BFFFFFFFFFFFFFFFFFFFFFFFFFFFED5519
:1033C000FFFFFCA9402B2B452A56EAF77AEF53FF63
:1033D000FFFFFFFFCDFFDDDE4A25FBDFF9057BFFA9
:1033E000FFDDBFFFFFFFFFFFFFFFFFFFFFFFFFFF4F
:1033F000B283FFFFFE55018495AAA94BBD5B3D69D1
:1034000084AFFFFFFFFEEFFFBEFAC6B5EBBFFDD5F1
:103410007D9FFEF7DFFFFFFFFFFFFFFFFFFFFFFFC7
:10342000FFFF8647FFFFFEAA1FF14B4A52BAF6BEC6
:10343000EF52A5FFFFFFFFFDFFFF34BF95BFBF6D3C
:10344000FFFD6B7AFFFFFFFFFFFFFFFFFFFFFFFFA7
:10345000FFFFFFFF9147FFFFFF10FFFE5552895707
:103460005D5BBEE5527FFFFFFFFFF7FFF0F7C89AF5
:10347000F5FFFDCD81DBFFF6B7FFFFFFFFFFFFFF8D
:10348000FFFFFFFFFFFFC00FFFFFFFD7FFFF7F2CF6
:10349000AAADFAD6B7CB45FFFFFFFFFFFEFD6B8D50
:1034A000637FFFFFFDAA3FD3DFC7EFFFFFFFFFFFF3
:1034B000FFFFFFFFFFFFFFFFA03FFFFFFFFFFFFF3B
:1034C000D6D352B7EE96AB6CC7FFFFFFFFFFFFFFEF
:1034D000B0DAD73FFFFFFF2D7FF7FFD40FFFFFFFCD
:1034E000FFFFFFFFFFFFFFFFFFFF88FFFFFFFFFF63
:1034F000FFFFCDAE6AADF52CDAEBB7FFFFFFFFFEA5
:10350000FFE7CF5DA5BFEDF53F4DFFFFFF597FFF03
:10351000FFFFFFFFFFFFFFFFFFFFFFFF8BFFFFFF2F
:10352000FFFFFFFFF6ABAD57DD556F2AC7FFFFFF6B
:10353000FFFFFFFFA7FF957FFDF7D7EF7FFFDFFCC2
:10354000FFFFFFFFFFFFFFFFFFFFFFFFFFFFAFFFDB
:10355000FFFFFFFFFFFFE1F6555FAC525AED97FF0B
:10356000FFFFFFFFFFFFC8FD3F5D12D7EFFDFFBF6D
:10357000FFF1FFFFFFFFFFFFFFFFFFFFFFFFFFFF69
:10358000FFFFFFFFFFFFFFFFE0ADD2A9B76CBA2539
:103590002BFFFFFFFFFFFFFFFEFF5A7FCFEB7FFFF9
:1035A000FFDFFFFDE7FFFFFFFFFFFFFFFFFFFFFF65
:1035B000FFFFFFFFFFFFFFFFFFFFE06AADBFED4131
:1035C00045E957FFFFFFFFFFFFFFFC7F1AEFEBFE10
:1035D000D76FFBBFFFFAFFFFFFFFFFFFFFFFFFFFFC
:1035E000FFFFFFFFFFFFFFFFFFFFFFFFF015D557B6
:1035F000F6A0BB5493FFFFFFFFFFFFFFBFE39DF764
:1036000073E7092FFFFFFFF7FFFFFFFFFFFFFFFF3C
:10361000FFFFFFFFFFFFFFFFFFFFFFFFFFFFF40BB9
:10362000576FDC22E28927FFFFFFFFFFFFFFDFC6A6
:1036300077FFFA5FF3FFDFF7FFFFFFFFFFFFFFFFFB
:10364000FFFFFFFFFFFFFFFFFFFFFFFFFFFFFFFF8A
:10365000F10035B5FA805077B3FFFFFFFFFFFFFFA2
:10366000FFDBF9F1FE7DF5FFFFBFFFFFFFFFFFFF6F
:10367000FFFFFFFFFFFFFFFFFFFFFFFFFFFFFFFF5A
:10368000FFFFFA80D24BB1482A0D47FFFFFFFFFF33
:10369000FFFFFBFFF377B5CDFFF6FDFFFFFFFFFF59
:1036A000FFFFFFFFFFFFFFFFFFFFFFFFFFFFFFFF2A
:1036B000FFFFFFFFFA4055AAD44FA0B4A7FFFFFFBA
:1036C000FFFFFFFFFF7FFBE6A74F7FBFDF7EFFFF10
:1036D000FFFFFFFFFFFFFFFFFFFFFFFFFFFFFFFFFA
:1036E000FFFFFFFFFFFFFD280421691FD9352FFFD2
:1036F000FFFFFFFFFFFFFFFFFFFF5F1DBEBFFFFFDD
:10370000FFFFFFFFFFFFFFFFFFFFFFFFFFFFFFFFC9
:10371000FFFFFFFFFFFFFFFFFC8018CAB41FB47C50
:10372000AFFFFFFFFFFFFFFFFFFEFFFE1DCBFAFF16
:103730006FFFFFFFFFFFFFFFFFFFFFFFFFFFFFFF29
:10374000FFFFFFFFFFFFFFFFFFFFFEA02126EB3F74
:1037500070FC5FFFFFFFFFFFFFFFFFFFFFEFF1EBDD
:10376000FB7D5BFFFFFFFFFFFFFFFFFFFFFFFFFF93
:10377000FFFFFFFFFFFFFFFFFFFFFFFFFE04985368
:103780005A37C9FC3FFFFFFFFFFFFFFFFFFFFFFFAF
:10379000E8BFEFF7FFFFFFFFFFFFFFFFFFFFFFFFA8
:1037A000FFFFFFFFFFFFFFFFFFFFFFFFFFFFFF0A1E
:1037B000300AF4A91FFC7FFFFFFFFFFFFFFFDFFFC1
:1037C000FFEFF5FFFBEBF3FFFFFFFFFFFFFFFFFF47
:1037D000FFFFFFFFFFFFFFFFFFFFFFFFFFFFFFFFF9
:1037E000FF80AC017A02FFFDFFFFFFFFFFFFFFFF3D
:1037F000DFFFFFEE7FEFFFF7FFFFFFFFFFFFFFFFA2
:10380000FFFFFFFFFFFFFFFFFFFFFFFFFFFFFFFFC8
:10381000FFFFFF8BD802DAA7FFFFFFFFFFFFFFFFCD
:10382000FFFFFFFFFFFEDFFF7FDFDFFFFFFFFFFF89
:10383000FFFFFFFFFFFFFFFFFFFFFFFFFFFFFFFF98
:10384000FFFFFFFFFFC6AC807D37FFFFFFFFFFFFDD
:10385000FFFFFFFFFFFFFFFFFFFDFB7FFFFFFFFFFE
:10386000FFFFFFFFFFFFFFFFFFFFFFFFFFFFFFFF68
:10387000FFFFFFFFFFFFFFE0B801F52BFFFFFFFF9A
:10388000FFFFFFFFFFFFFFFFFFFFFFFFD6DEFFFF92
:10389000FFFFFFFFFFFFFFFFFFFFFFFFFFFFFFFF38
:1038A000FFFFFFFFFFFFFFFFFFF1CC00A8B5FFFF09
:1038B000FFFFFFFFFFFFFFFFFFFFFFFFFFFFFF6BAC
:1038C000FFFFFFFFFFFFFFFFFFFFFFFFFFFFFFFF08
:1038D000FFFFFFFFFFFFFFFFFFFFFFF53C205B69DE
:1038E000FFFFFFFFFFFFFFFFFFFFFFFFFFFFFFFFE8
:1038F000FDFEFFFFFFFFFFFFFFFFFFFFFFFFFFFFDB
:10390000FFFFFFFFFFFFFFFFFFFFFFFFFFFDD620D1
:103910006DABFFFFFFFFFFFFFFFFFFFFFFFFFFFF9D
:10392000FFFFFEEDFFFFFFFFFFFFFFFFFFFFFFFFBA
:10393000FFFFFFFFFFFFFFFFFFFFFFFFFFFFFFFF97
:10394000BC006D4BFFFFFFFFFFFFFFFFFFFFFFFF0F
:10395000FFFFFFFFFFE7FFFFFFFFFFFFFFFFFFFF8F
:10396000FFFFFFFFFFFFFFFFFFFFFFFFFFFFFFFF67
:10397000FFFFFA0056AFFFFFFFFFFFFFFFFFFFFF54
:10398000FFFFFFFFFFFEFFFFFFFFFFFFFFFFFFFF48
:10399000FFFFFFFFFFFFFFFFFFFFFFFFFFFFFFFF37
:1039A000FFFFFFFFEC2019DFFFFFFFFFFFFFFFFF1F
:1039B000FFFFFFFFFFFFFFFFFFFFFFFFFFFFFFFF17
:1039C000FFFFFFFFFFFFFFFFFFFFFFFFFFFFFFFF07
:1039D000FFFFFFFFFFFFF28816DFFFFFFFFFFFFF84
:1039E000FFFFFFFFFFFFFFFFFFFFFFDEFFFFFFFF08
:1039F000FFFFFFFFFFFFFFFFFFFFFFFFFFFFFFFFD7
:103A0000FFFFFFFFFFFFFFFFFA3A1C8FFFFFFFFFE3
:103A1000FFFFFFFFFFFFFFFFFFFFFFFFFFFFFFFFB6
:103A2000FFFFFFFFFFFFFFFFFFFFFFFFFFFFFFFFA6
:103A3000FFFFFFFFFFFFFFFFFFFFFEA2101FFFFFC3
:103A4000FFFFFFFFFFFFFFFFFFFFFFFFFFFFFFFF86
:103A5000FFFFFFFFFFFFFFFFFFFFFFFFFFFFFFFF76
:103A6000FFFFFFFFFFFFFFFFFFFFFFFFFE08007FDD
:103A7000FFFFFFFFFFFFFFFFFFFFFFFFFFFFFFFF56
:103A8000FFFFFFFFFFFFFFFFFFFFFFFFFFFFFFFF46
:103A9000FFFFFFFFFFFFFFFFFFFFFFFFFFFFFF0233
:103AA000287FFFFFFFFFFFFFFFFFFFFFFFFFFFFF7D
:103AB000FFFFFFFFFFFFFFFFFFFFFFFFFFFFFFFF16
:103AC000FFFFFFFFFFFFFFFFFFFFFFFFFFFFFFFF06
:103AD000FF5440FFFFFFFFFFFFFFFFFFFFFFFFFF60
:103AE000FFFFFFFFFFFFFFFFFFFFFFFFFFFFFFFFE6
:103AF000FFFFFFFFFFFFFFFFFFFFFFFFFFFFFFFFD6
:103B0000FFFFFFCA03FFFFFFFFFFFFFFFFFFFFFFF6
:103B1000FFFFFFFFFFFFFFFFFFFFFFFFFFFFFFFFB5
:103B2000FFFFFFFFFFFFFFFFFFFFFFFFFFFFFFFFA5
:103B3000FFFFFFFFFFA187FFFFFFFFFFFFFFFFFF6B
:103B4000FFFFFFFFFFFFFFFFFFFFFFFFFFFFFFFF85
:103B5000FFFFFFFFFFFFFFFFFFFFFFFFFFFFFFFF75
:103B6000FFFFFFFFFFFFFF941FFFFFFFFFFFFFFFB0
:103B7000FFFFFFFFFFFFFFFFFFFFFFFFFFFFFFFF55
:103B8000FFFFFFFFFFFFFFFFFFFFFFFFFFFFFFFF45
:103B9000FFFFFFFFFFFFFFFFFFD53FFFFFFFFFFF1F
:103BA000FFFFFFFFFFFFFFFFFFFFFFFFFFFFFFFF25
:103BB000FFFFFFFFFFFFFFFFFFFFFFFFFFFFFFFF15
:103BC000FFFFFFFFFFFFFFFFFFFFFFE8FFFFFFFF1C
:103BD000FFFFFFFFFFFFFFFFFFFFFFFFFFFFFFFFF5
:103BE000FFFFFFFFFFFFFFFFFFFFFFFFFFFFFFFFE5
:103BF000FFFFFFFFFFFFFFFFFFFFFFFFFFF7FFFFDD
:103C0000FFFFFFFFFFFFFFFFFFFFFFFFFFFFFFFFC4
:103C1000FFFFFFFFFFFFFFFFFFFFFFFFFFFFFFFFB4
:103C2000FFFFFFFFFFFFFFFFFFFFFFFFFFFFFFFFA4
:103C3000FFFFFFFFFFFFFFFFFFFFFFFFFFFFFFFF94
:10407000FFFFFFFFFFFFFFFFFFFFFFFFFFFFFFF758
:10408000FFFFFFFFFFFFFFFFFFFFFFFFFFFFFFFF40
:10409000FFFFFFFFFFFFFFFFFFFFFFFFFFFFFFFF30
:1040A000FFFFFFFFFFFFFFFFFFFFFFFFFFFFFFFF20
:1040B000FFE3FFFFFFFFFFFFFFFFFFFFFFFFFFFF2C
:1040C000FFFFFFFFFFFFFFFFFFFFFFFFFFFFFFFF00
:1040D000FFFFFFFFFFFFFFFFFFFFFFFFFFFFFFFFF0
:1040E000FFFFFFE9FFFFFFFFFFFFFFFFFFFFFFFFF6
:1040F000FFFFFFFFFFFFFFFFFFFFFFFFFFFFFFFFD0
:10410000FFFFFFFFFFFFFFFFFFFFFFFFFFFFFFFFBF
:10411000FFFFFFFFF3EC3FFFFFFFFFFFFFFFFFFF8E
:10412000FFFFFFFFFFFFFFFFFFFFFFFFFFFFFFFF9F
:10413000FFFFFFFFFFFFFFFFFFFFFFFFFFFFFFFF8F
:10414000FFFFFFFFFFFFF0CFFFFFEFFFFFFFFFFFCE
:10415000FFFFFFFFFFFFFFFFFFFFFFFFFFFFFFFF6F
:10416000FFFFFFFFFFFFFFFFFFFFFFFFFFFFFFFF5F
:10417000FFFFFFFFFFFFFFFFE65FFFFF8F9FFFFFD8
:10418000FFFFFFFFFFFFFFFFFFFFFFFFFFFFFFFF3F
:10419000FFFFFFFFFFFFFFFFFFFFFFFFFFFFFFFF2F
:1041A000FFFFFFFFFFFFFFFFFFFFE7FFFFE0373FDE
:1041B000FFFFFFFFFFFFFFFFFFFFFFFFFFFFFFFF0F
:1041C000FFFFFFFFFFFFFFFFFFFFFFFFFFFFFFFFFF
:1041D000FFFFFFFFFFFFFFFFFFFFFFFFCFFFFFDC42
:1041E000707FFFFFFFFFFFFFFFFFFFFFFFFFFFFFEE
:1041F000FFFFFFFFFFFFFFFFFFFFFFFFFFFFFFFFCF
:10420000FFFFFFFFFFFFFFFFFFFFFFFFFFFFFFFFBE
:10421000FFFFFCFFFFFFFFFFFFFFFFFFFFFFFFFFB1
:10422000FFFFFFFFFFFFFFFFFFFFFFFFFFFFFFFF9E
:10423000FFFFFFFFFFFFFFFFFFFFFFFFFFFFFFFF8E
:10424000FFFFFFFFFFFFFFFFFFFFFFFFFFFFFFFF7E
:10425000FFFFFFFFFFFFFFFFFFFFFFFFFFFFFFFF6E
:10426000FFFFFFFFFFFFFFFFFFFFFFFFFFFFFFFF5E
:10427000FFFFFFFFFFFFFFFFFFFFFFFFFFFFFFFF4E
:10428000FFFFFFFFFFFFFFFFFFFFFFFFFFFFFFFF3E
:10429000FFFFFFFFFFFFFFFFFFFFFFFFFFFFFFFF2E
:1042A000FFFFFFFFFFFFFFFFFFFFFFFFFFFFFFFF1E
:1042B000FFFFFFFFFFFFFFFFFFFFFFFFFFFFFFFF0E
:1042C000FFFFFFFFFFFFFFFFFFFFFFFFFFFFFFFFFE
:1042D000FFFFFFFFFFFFFFFFFFFFFFFFFFFFFFFFEE
:1042E000FFFFFFFFFFFFFFFFFFFFFFFFFFFFFFFFDE
:1042F000FFFFFFFFFFFFFFFFFFFFFFFFFFFFFFFFCE
:10430000FFFFFFFFFFFFFFFFFFFFFFFFFFFFFFFFBD
:10431000FFFFFFFFFFFFFFFFFFFFFFFFFFFFFFFFAD
:10432000FFFFFFFFFFFFFFFFFFFFFFFFFFFFFFFF9D
:10433000FFFFFFFFFFFFFFFFFFFFFFFFFFFFFFFF8D
:10434000FFFFFFFFFFFFFFFFFFFFFFFFFFFFFFFF7D
:10435000FFFFFFFFFFFFFFFFFFFFFFFFFFFFFFFF6D
:10436000FFFFFFFFFFFFFFFFFFFFFFFFFFFFFFFF5D
:10437000FFFFFFFFFFFFFFFFFFFFFFFFFFFFFFFF4D
:10438000FFFFFFFFFFFFFFFFFFFFFFFFFFFFFFFF3D
:10439000FFFFFFFFFFFFFFFFFFFFFFFFFFFFFFFF2D
:1043A000FFFFFFFFFFE7FFFFFFFFFFFFFFFFFFFF35
:1043B000FFFFFFFFFFFFFFFFFFFFFFFFFFFFFFFF0D
:1043C000FFFFFFFFFFFFFFFFFFFFFFFFFFFFFFFFFD
:1043D000FFFFFFFFFFFFFFD07FFFFFFFFFFFFFFF9C
:1043E000FFFFFFFFFFFFFFFFFFFFFFFFFFFFFFFFDD
:1043F000FFFFFFFFFFFFFFFFFFFFFFFFFFFFFFFFCD
:10440000FFFFFFFFFFFFFFFFE7DFFFFFFFFFFFFFF4
:10441000FFFFFFFFFFFFFFFFFFFFFFFFFFFFFFFFAC
:10442000FFFFFFFFFFFFFFFFFFFFFFFFFFFFFFFF9C
:10443000FFFFFFFFFFFFFFFFFFFFE99FFFFFFFFF02
:10444000FFFFFFFFFFFFFFFFFFFFFFFFFFFFFFFF7C
:10445000FFFFFFFFFFFFFFFFFFFFFFFFFFFFFFFF6C
:10446000FFFFFFFFFFFFFFFFFFFFFFFFCCBFFFFFCF
:10447000FFFFFFFFFFFFFFFFFFFFFFFFFFFFFFFF4C
:10448000FFFFFFFFFFFFFFFFFFFFFFFFFFFFFFFF3C
:10449000FFFFFFFFFFFFFFFFFFFFFFFFFFFF1FFF0C
:1044A000FFFFFFFFFFFFFFFFFFFFFFFFFFFFFFFF1C
:1044B000FFFFFFFFFFFFFFFFFFFFFFFFFFFFFFFF0C
:1044C000FFFFFFFFFFFFFFFFFFFFFFFFFFFFFFFFFC
:1044D000FFFFFFFFFFFFFFFFFFFFFFFFFFFFFFFFEC
:1044E000FFFFFFFFFFFFFFFFFFFFFFFFFFFFFFFFDC
:1044F000FFFFFFFFFFFFFFFFFFFFFFFFFFFFFFFFCC
:10450000FFFFFFFFFFFFFFFFFFFFFFFFFFFFFFFFBB
:10451000FFFFFFFFFFFFFFFFFFFFFFFFFFFFFFFFAB
:10452000FFFFFFFFFFFFFFFFFFFFFFFFFFFFFFFF9B
:10453000FFFFFFFFFFFFFFFFFFFFFFFFFFFFFFFF8B
:10454000FFFFFFFFFFFFFFFFFFFFFFFFFFFFFFFF7B
:10455000FFFFFFFFFFFFFFFFFFFFFFFFFFFFFFFF6B
:10456000FFFFFFFFFFFFFFFFFFFFFFFFFFFFFFFF5B
:10457000FFFFFFFFFFFFFFFFFFFFFFFFFFFFFFFF4B
:10458000FFFFFFFFFFFFFFFFFFFFFFFFFFFFFFFF3B
:10459000FFFFFFFFFFFFFFFFFFFFFFFFFFFFFFFF2B
:1045A000FFFFFFFFFFFFFFFFFFFFFFFFFFFFFFFF1B
:1045B000FFFFFFFFFFFFFFFFFFFFFFFFFFFFFFFF0B
:1045C000FFFFFFFFFFFFFFFFFFFFFFFFFFFFFFFFFB
:1045D000FFFFFFFFFFFFFFFFFFFFFFFFFFFFFFFFEB
:1045E000FFFFFFFFFFFFFFFFFFFFFFFFFFFFFFFFDB
:1045F000FFFFFFFFFFFFFFFFFFFFFFFFFFFFFFFFCB
:10460000FFFFFFFFFFFFFFFFFFFFFFFFFFFFFFFFBA
:10461000FFFFFFFFFFFFFFFFFFFFFFFFFFFFFFFFAA
:10462000FFFFFFFFFFFFFFFFFFFFFFFFEFFFFFFFAA
:10463000FFFFFFFFFFFFFFFFFFFFFFFFFFFFFFFF8A
:10464000FFFFFFFFFFFFFFFFFFFFFFFFFFFFFFFF7A
:10465000FFFFFFFFFFFFFFFFFFFFFFFFFFFFDFFF8A
:10466000FFFFFFFFFFFFFFFFFFFFFFFFFFFFFFFF5A
:10467000FFFFFFFFFFFFFFFFFFFFFFFFFFFFFFFF4A
:10468000FFFFFFFFFFFFFFFFFFFFFFFFFFFFFFFF3A
:10469000BFFFFFFFFFFFFFFFFFFFFFFFFFFFFFFF6A
:1046A000FFFFFFFFFFFFFFFFFFFFFFFFFFFFFFFF1A
:1046B000FFFFFFFFFFFFFFFFFFFFFFFFFFFFFFFF0A
:1046C000FFF03FFFFFFFFFFFFFFFFFFFFFFFFFFFC9
:1046D000FFFFFFFFFFFFFFFFFFFFFFFFFFFFFFFFEA
:1046E000FFFFFFFFFFFFFFFFFFFFFFFFFFFFFFFFDA
:1046F000FFFFFFF7FFFFDFFFFFFFFFFFFFFFFFFFF2
:10470000FFFFFFFFFFFFFFFFFFFFFFFFFFFFFFFFB9
:10471000FFFFFFFFFFFFFFFFFFFFFFFFFFFFFFFFA9
:10472000FFFFFFFFFF7FFFFFBFFFFFFFFFFFFFFF59
:10473000FFFFFFFFFFFFFFFFFFFFFFFFFFFFFFFF89
:10474000FFFFFFFFFFFFFFFFFFFFFFFFFFFFFFFF79
:10475000FFFFFFFFFFFFFF7FFFFF3FFFFFFFFFFFA9
:10476000FFFFFFFFFFFFFFFFFFFFFFFFFFFFFFFF59
:10477000FFFFFFFFFFFFFFFFFFFFFFFFFFFFFFFF49
:10478000FFFFFFFFFFFFFFFFFEFFFF00FFFFFFFF39
:10479000FFFFFFFFFFFFFFFFFFFFFFFFFFFFFFFF29
:1047A000FFFFFFFFFFFFFFFFFFFFFFFFFFFFFFFF19
:1047B000FFFFFFFFFFFFFFFFFFFFFCFFFFE3FFFF28
:1047C000FFFFFFFFFFFFFFFFFFFFFFFFFFFFFFFFF9
:1047D000FFFFFFFFFFFFFFFFFFFFFFFFFFFFFFFFE9
:1047E000FFFFFFFFFFFFFFFFFFFFFFFFC0FFFFFF18
:1047F000FFFFFFFFFFFFFFFFFFFFFFFFFFFFFFFFC9
:10480000FFFFFFFFFFFFFFFFFFFFFFFFFFFFFFFFB8
:10481000FFFFFFFFFFFFFFFFFFFFFFFFFFFFFFFFA8
:10482000FFFFFFFFFFFFFFFFFFFFFFFFFFFFFFFF98
:105CD000FFFFFFFFFFFFFFFFE8FFFFFFFFFFFFFFEB
:105CE000FFFFFFFFFFFFFFFFFFFFFFFFFFFFFFFFC4
:105CF000FFFFFFFFFFFFFFFFFFFFFFFFFFFFFFFFB4
:105D0000FFFFFFFFF3E3E7FFFFEF4F7FFFFFFFFF23
:105D1000FFFFFFFFFFFFFFFFFFFFFFFFFFFFFFFF93
:105D2000FFFFFFFFFFFFFFFFFFFFFFFFFFFFFFFF83
:105D3000FFFFFFFFFFFFF8A4F3FFFBFB083FFFFFA0
:105D4000FFFFFFFFFFFFFFFFFFFFFFFFFFFFFFFF63
:105D5000FFFFFFFFFFFFFFFFFFFFFFFFFFFFFFFF53
:105D6000FFFFFFFFFFFFFFFF6620FFFFFDE9A03FF2
:105D7000FFFFFFFFFFFFFFFFFFFFFFFFFFFFFFFF33
:105D8000FFFFFFFFFFFFFFFFFFFFFFFFFFFFFFFF23
:105D9000FFFFFFFFFFFFFFFFFFFF8191CFFFA2612A
:105DA00007C9FFFFFFFFFFFFFFFFFFFFFFFFFFFF31
:105DB000FFFFFFFFFFFFFFFFFFFFFFFFFFFFFFFFF3
:105DC000FFFFFFFFFFFFFFFFFFFFFF7810542BFFD8
:105DD000C0876C76FFFFFFFFFFFFFFFFFFFFFFFFA6
:105DE000FFFFFFFFFFFFFFFFFFFFFFFFFFFFFFFFC3
:105DF000FFFFFFFFFFFFFFFFFFFFFFFFFFC80600E2
:105E00000FFFC0C3323EFFFFFFFFFFFFFFFFFFFF9B
:105E1000FFFFFFFFFFFFFFFFFFFFFFFFFFFFFFFF92
:105E2000FFFFFFFFFFFFFFFFFFFFFFFFFFFFFE1D65
:105E300060400E3AC01087B9FFFFFFFFFFFFFFFF72
:105E4000FFFFFFFFFFFFFFFFFFFFFFFFFFFFFFFF62
:105E5000FFFFFFFFFFFFFFFFFFFFFFFFFFFFFFFF52
:105E6000FF402010818FE004BFF9F7FFFFFFFFFF25
:105E7000FFFFFFFFFFFFFFFFFFFFFFFFFFFFFFFF32
:105E8000FFFFFFFFFFFFFFFFFFFFFFFFFFFFFFFF22
:105E9000FFFFFF9178DC0017F497FFFDFFFFFFFF86
:105EA000FFFFFFFFFFFFFFFFFFFFFFFFFFFFFFFF02
:105EB000FFFFFFFFFFFFFFFFFFFFFFFFFFFFFFFFF2
:105EC000FFFFFFFFFF05CE840439EDF3FFFE7FFFE8
:105ED000FFFFFFFFFFFFFFFFFFFFFFFFFFFFFFFFD2
:105EE000FFFFFFFFFFFFFFFFFFFFFFFFFFFFFFFFC2
:105EF000FFFFFFFFFFFFFF13E7B08EDDE7FFFFFFB0
:105F0000FFFFFFFFFFFFFFFFFFFFFFFFFFFFFFFFA1
:105F1000FFFFFFFFFFFFFFFFFFFFFFFFFFFFFFFF91
:105F2000FFFFFFFFFFFFFFFFFFF3FB91C6FF7FFEB9
:105F30007FBFFFFFFFFFFFFFFFFFFFFFFFFFFFFF31
:105F4000FFFFFFFFFFFFFFFFFFFFFFFFFFFFFFFF61
:105F5000FFFFFFFFFFFFFFFFFFFFFFFDFCFBFFFD5C
:105F6000FFFBB7EFFFFFFFFFFFFFFFFFFFFFFFFF9D
:105F7000FFFFFFFFFFFFFFFFFFFFFFFFFFFFFFFF31
:105F8000FFFFFFFFFFFFFFFFFFFFFFFFFFDFFF7DC3
:105F9000FFFDCFFFFFFFFFFFFFFFFFFFFFFFFFFF43
:105FA000FFFFFFFFFFFFFFFFFFFFFFFFFFFFFFFF01
:105FB000FFFFFFFFFFFFFFFFFFFFFFFFFFFFFFFFF1
:105FC000FFFFFFFDFFCFFFFFFFFFFFFFFFFFFFFF13
:105FD000FFFFFFFFFFFFFFFFFFFFFFFFFFFFFFFFD1
:105FE000FFFFFFFFFFFFFFFFFFFFFFFFFFFFFFFFC1
:105FF000FFFFFFFFFFFF8FCFDFFFFFFFFFFFFFFF71
:10600000FFFFFFFFFFFFFFFFFFFFFFFFFFFFFFFFA0
:10601000FFFFFFFFFFFFFFFFFFFFFFFFFFFFFFFF90
:10602000FFFFFFFE377FFFFA7F63FFFFFFFFFFFFEA
:10603000FFFFFFFFFFFFFFFFFFFFFFFFFFFFFFFF70
:10604000FFFFFFFFFFFFFFFFFFFFFFFFFFFFFFFF60
:10605000FFFFFFFFFFE483CFFFFFC1BFFFFFFFFF95
:10606000FFFFFFFFFFFFFFFFFFFFFFFFFFFFFFFF40
:10607000FFFFFFFFFFFFFFFFFFFFFFFFFFFFFFFF30
:10608000FFFFFFFFFFFFFFEEF1EFDFFFDFEFBFFFDF
:10609000FFFFFFFFFFFFFFFFFFFFFFFFFFFFFFFF10
:1060A000FFFFFFFFFFFFFFFFFFFFFFFFFFFFFFFF00
:1060B000FFFFFFFFFFFFFFFFFECFB9DFFFFF9FFFE7
:1060C000BFFFFFFFFFFFFFFFFFFFFFFFFFFFFFFF20
:1060D000FFFFFFFFFFFFFFFFFFFFFFFFFFFFFFFFD0
:1060E000FFFFFFFFFFFFFFFFFFFFFFDEC7FFFFF91F
:1060F00091FDFFFFFFFFFFFFFFFFFFFFFFFFFFFF20
:10610000FFFFFFFFFFFFFFFFFFFFFFFFFFFFFFFF9F
:10611000FFFFFFFFFFFFFFFFFFFFFFFFFFDFE7EFD7
:106120006FF11FFFE7FFFFFFFFFFFFFFFFFFFFFF15
:10613000FFFFFFFFFFFFFFFFFFFFFFFFFFFFFFFF6F
:10614000FFFFFFFFFFFFFFFFFFFFFFFFFFFFFFBF9F
:106150008FEC6FFC0C7FFFFFFFFFFFFFFFFFFFFFD8
:10616000FFFFFFFFFFFFFFFFFFFFFFFFFFFFFFFF3F
:10617000FFFFFFFFFFFFFFFFFFFFFFFFFFFFFFFF2F
:10618000FFF7DFA07FF8CF7FF9FFFFFFFFFFFFFFE3
:10619000FFFFFFFFFFFFFFFFFFFFFFFFFFFFFFFF0F
:1061A000FFFFFFFFFFFFFFFFFFFFFFFFFFFFFFFFFF
:1061B000FFFFFFFFFFC97FEA7BBFFFFFFFFFFFFF7E
:1061C000FFFFFFFFFFFFFFFFFFFFCFEFFFFFFFFF1F
:1061D000FFFFFFFFFFFFFFFFFFFFFFFFFFFFFFFFCF
:1061E000FFFFFFFFFFFFFFE07FEFFFFFFFFFFFFF6E
:1061F000FFFFFFFFFFFFFFFFFFFFFFFFDFCFFFFFFF
:10620000FFFFFFFFFFFFFFFFFFFFFFFFFFFFFFFF9E
:10621000FFFFFFFFFFFFFFFFF7E27FFFFFFFBFFF73
:10622000FFFFFFFFFFFFFFFFFFFFFFFFFFFFFF9FDE
:10623000FFFFFFFFFFFFFFFFFFFFFFFFFFFFFFFF6E
:10624000FFFFFFFFFFFFFFFFFFFFFEC7DFFBFFEFCB
:10625000FFFFFFFFFFFFFFFFFFFFFFFFFFDFFDFF70
:10626000FF0FFFFFFFFFFFFFFFFFFFFFFFFFFFFF2E
:10627000FFFFFFFFFFFFFFFFFFFFFFFF3E3FFFF3BB
:10628000BFFFFFFFFFFFFFFFFFFFFFFFFFFFFFFF5E
:10629000FFFFBF7F3FFFFFFFFFFFFFFFFFFFFFFF8E
:1062A000FFFFFFFFFFFFFFFFFFFFFFFFFFFF0E3FAF
:1062B000FFFFFFFDFFFFFFFFFFFFFFFFFFFFFFFFF0
:1062C000FFFF7FE7E7FD9FFFFFFFFFFFFFFFFFFFF0
:1062D000FFFFFFFFFFFFFFFFFFFFFFFFFFFFFFFFCE
:1062E0007DFFFFFFFFFFFFFFF7FFFFFFFFFFFFFF48
:1062F000FFEFFBFFFFF3DDFFFFFFFFFFFFFFFFFFF0
:10630000FFFFFFFFFFFFFFFFFFFFFFFFFFFFFFFF9D
:10631000FFFFBDBCEFFFFFFFFFF3FBF8F5E7FFEF6B
:10632000FFFFFFFFDF6FEFBAF3FF7A7FFFFFFFFF93
:10633000FFFFFFFFFFFFFFFFFFFFFFFFFFFFFFFF6D
:10634000FFFFFFFFEDFFFDFFFFFFFFC3F9F43DEB94
:106350003FF6FFFFFFBE8F6BECE9EE0FEE1FFFFF76
:10636000FFFFFFFFFFFFFFFFFFFFFFFFFFFFDCFF60
:10637000FFFFFFFFFFFFEF77FFFFFFFFFFE3F3F8F4
:10638000DE62FF657FFFFF820FFEF5118CE7FD9F48
:10639000FFFFFFFFFFFFFFFFFFFFFFFFFE21FFFFEC
:1063A000E07FFFFFFFFFFFFFFFFCDFFFFFFFFFE7D7
:1063B000E3BC14CCCC7C7FFFFF83DC7DDE81163F09
:1063C000EEFFFFFFFFFFFFFFFFFFFFFFFFFFF001FB
:1063D0003FC20809FFFFFFFFFFFFFFF94FFFFFFF6D
:1063E000FFC3EBD60FCC2FFFDFFFFBC78F9FFEA2B3
:1063F000F42E8F7BFFFFFFFFFFFFFFFFFFFFFFFF7D
:10640000001C53C00039FFFFFFFFFFFFFFFE7FFEB0
:10641000FFFFFFF9F1EDE6EFBFFFFFFFFFE183F3C1
:1064200085D2089F877FFFFFFFFFFFFFFFFFFFFF72
:10643000FFFF420B00400FE7FFFFFFFFFFFFFFFFE3
:10644000FFFFFFFFFFFE7380ECE5DFFFFFFFFFE7CD
:1064500089F0022A9EE3C70FFFFFFFFFFFFFFFFF48
:10646000FFFFFFFFC421440D0FFFFFFFFFFFFFFFF2
:10647000FFFFFFFFFFFFFFFE5E188CF416E77FFFB4
:10648000FE4400E8BFA6DFE3889F9FFFFFFFFFFFFA
:10649000FFFFFFFFFFFF821BBF5FEFFFFFFFFFFF5D
:1064A000FFFFFFFFFFFFFFF7E83C299859C20E03EB
:1064B0007FFFF3E023ED857DDDF618DFCFFFFFFFE3
:1064C000FFFFFFFFFFFFFEEF61FFFECC7BFFFFFF43
:1064D000FFFFFFFFFFFFFFFFFFFFE7E0C07C018240
:1064E0003127BFFFF180071C4F8CD1DCF8C3FFFFC1
:1064F000FFFFFFFFFFFFF7FFD842CBB7FFC177FFDA
:10650000FFFFFFFFFFFFFFFFFFFFFFFFFF80008F89
:10651000D90540977FFFFF080461EFC1940FBCFFCE
:10652000FFFFFFFFFFFFFFFF843FE80003277F8798
:10653000E7FFFFFFFFFFFFFFFFFFFFFFFFFFFC8005
:1065400000070046411E67FFFF0047E07787329F44
:10655000037FFFFFFFFFFFFFFFFF80360100C473D3
:106560007E27FBFFFFEFFFFFFFFFFFFFFFFFFFCFD8
:10657000D60033E0D6204A01F3FFE3C003010DAC9F
:10658000BB9F105FFFFFFFFFFFFFFFFF8000058243
:106590003539A1899FFFFC07FFFFFFFFFFFFFFFFCA
:1065A000FFF7C0001FE060403CDFF07E7380408852
:1065B0005080A7FC305DFFFFFFFFFFFFFFFF8F85CF
:1065C00048021F74651FAFF3C8017FFFFFFFFFFF85
:1065D000FFFFFFFF00001CD8511602103A7FF700A2
:1065E000109C31807FDC40FFFFFFFFFFFFFFFFFFBC
:1065F000B3FFFD8828007F5F3FE1840297FFFFFF24
:10660000FFFFFFFFFFFE000011A02A819A9C2F438D
:106610007FF09882E79EFB6F033FFFFFFFFFFFFFC6
:10662000FFFFF11BFFFE518CF681A760001BBBFF33
:10663000FFFFFFFFFFFFFFFFE0000CC0078124A367
:106640000EADFBC8570B0B5F3FEF9FBE7FFFFFFFF9
:10665000FFFFFFFFEC3FFE4C9787B608007003FF7B
:106660009FFFFFFFFFFFFFFFFFFF800001D0E782DA
:1066700000C005DB8F99CB0E8BCFFFE7F7FFFFFF45
:10668000FFFFFFFFFFFFBF07FE47DFE03C000257B1
:10669000EBFFFFFFFFFFFFFFFFFFFFFF9000019FEA
:1066A000752800C2444E7FBC0A5CFFFFF5FEE73F41
:1066B000FFFFFFFFFFFFFFFFBE03E463FFF0404E5D
:1066C0007F7FF4FFFFFFFFFFFFFFFFFFFFFFB80724
:1066D0000F915E84100DC03E7FB30694FF73FE7C65
:1066E000E43FFFFFFFFFFFFFFFFFBDC7FBEBFFE046
:1066F00000EFFF6FBFBFFFFFFFFFFFFFFFFFFFFFC9
:1067000020100FAD86144050CFF9CD35FFFC3BFF74
:10671000FFFF98FFFFFFFFFFFFFFFFFFFFEFF047C7
:10672000FFE7BFFFFEEF9FFFFFFFFFFFFFFFFFFF42
:10673000FFFF0000CFC7E61403005DBCC3F39FFF5B
:106740009FAFFFFFFFFFFFFFFFFFFFFFFFFFEF8B8D
:10675000FB6CFFE1779FFFE06FFFFFFFFFFFFFFF95
:10676000FFFFFFFF00023FF5FD100803EF70CFF3BE
:10677000FABFFC6FEFFFF3FFFFFFFFFFFFFFFFFF1D
:10678000FFFFFF88FF93B39EFFC7FCFFFFFFFFFFE4
:10679000FFFFFFFFFFFFF03031743B3D3F21F70D5E
:1067A000DC7DE6FFF873FFFFFFFFFFFFFFFFFFFF4A
:1067B000FFFFFFFFFFF3FFF7E1BFFE49FF7FFFFF92
:1067C000FFFFFFFFFFFFFFFFF83877FFFFFE46ECFC
:1067D000FBDBF87FEE5FEECBFC1FFFFFFFFFFFFF51
:1067E000FFFFFFFFFFEFC1FFFFED8783FF34F91FBE
:1067F000FFFFFFFFFFFFFFFFFFFFF1CFFFB0DFFC59
:106800003FCBE7FBF77FF77E4CCC2CF3FFFFFFFF7E
:10681000FFFFFFFFFFFFFFFC7FFFFFFFDAEFFF0E31
:106820006FDFFFFFFFFFFFFFFFFFFFFFF0079FFE90
:106830003B1F1DC79FFB9FFFF1FE1E9B7FFBFFFFC2
:10684000FFFFFFFFFFFFFFFFFFFFFFFFFFFFF5B3AE
:10685000FF3FFFFFFFFFFFFFFFFFFFFFFFFFF0070F
:106860003FBE84FB7FFFBFE78F23FFFFFF41FFFF9A
:10687000FFFFFFFFFFFFFFFFFFFFFFFFFFFFFFFF28
:10688000BB9CFF0FF7FFFFFFFFFFFFFFFFFFFFFFB7
:10689000FFC07F7FF9E207FFFFFFA79FFCFFFF8696
:1068A000E3FFFFFFFFFFFFFFFFFFFFFFFFFFFFFF14
:1068B000FFFF1C7BFFFFE7FFFFFFFFFFFFFFFFFF67
:1068C000FFFFFE4FFEF3FBFE1F3BFFFF9DECFBCFE8
:1068D000EFDEF7FFFFFFFFFFFFFFFFFFFFFFFFFF01
:1068E000FFFFFFFF397FFFFFFFFFFFFFFFFFFFFFFE
:1068F000FFFFFFFFFE7F7DCFFFDE3DFBFE0369F75D
:10690000FFE1FFFA3FFFFFFFFFFFFFFFFFFFFFFF7A
:10691000FFFFFFFFFFFFECFFFFFFFFFFFFFFFFFF9A
:10692000FFFFFFFFFFFFFFFF7FFFFCFDFCFFFFDC22
:106930003F3FFF67FFBFFFFFFFFFFFFFFFFFFFFFBF
:10694000FFFFFFFFFFFFFFFFFFA0FDFFFFFFFFFFB8
:10695000FFFFFFFFFFFFFFFFFFFFFF7FFC9FF636FC
:10696000FFEFDE97F1E6FF9FFFFFFFFFFFFFFFFF57
:10697000FFFFFFFFFFFFFFFFFFFFFFB87F7FFFFF6E
:10698000FFFFFFFFFFFFFFFFFFFFFFFFDE66EFDF01
:10699000EE9F9FFFF4EFF781CF9FFFFFFFFFFFFF09
:1069A000FFFFFFFFFFFFFFFFFFFFFFFFFFFFDFFF17
:1069B000FFFFFFFFFFFFFFFFFFFFFFFFFBFFE37591
:1069C000E1BC17FFBFFE39F7FE2B3BF7FFFFFFFFD0
:1069D000FFFFFFFFFFFFFFFFFFFFFFFFFFFFFFFFC7
:1069E000FDFFFFFFFFFFFFFFFFFFFFFFFFFFBE5D9C
:1069F000E2366FB75EFF7FEE7BE7FB713FFFFFFF85
:106A0000FFFFFFFFFFFFFFFFFFFFFFFFFFFFFFFF96
:106A1000FFFFFFFFFFFFFFFFFFFFFFFFFFFFFFFF86
:106A20002FA092016E83FE3C7FEEF9D90DFDFFFF92
:106A3000FFFFFFFFFFFFFFFFFFFFFFFFFFFFFFFF66
:106A4000FFFFFFFFFFFFFFFFFFFFFFFFFFFFFFFF56
:106A5000FFFAFBC1C020CFE3BF3FFBFC7480873F40
:106A6000FFFFFFFFFFFFFFFFFFFFFFFFFFFFFFFF36
:106A7000FFFFFFFFFFFFFFFFFFFFFFFFFFFFFFFF26
:106A8000FFFFFFFE7B3E068CFF87FFBF7BFDFF2DD8
:106A9000279F3FFFFFFFFFFFFFFFFFFFFFFFFFFFFE
:106AA000FFFFFFFFFFFFFFFFFFFFFFFFFFFFFFFFF6
:106AB000FFFFFFFFFFFF3F6781F39FAFFFFF3FBD7A
:106AC000BCC0FDF87A33FFFFFFFFFFFFFFFFFFFFB2
:106AD000FFFFFFFFFFFFFFFFFFFFFFFFFFFFFFFFC6
:106AE000FFFFFFFFFFFFFFFF0E8FF7FE3BF7FFF7F4
:106AF000FFBF677BFBF0EEFFFFFFFFFFFFFFFFFF26
:106B0000FFFFFFFFFFFFFFFFFFFFFFFFFFFFFFFF95
:106B1000FFFFFFFFFFFFFFFFFFFF0F3BFC3E3F8F2D
:106B2000F79B1FBF263FB3FFFFBFFFFFFFFFFFFF26
:106B3000FFFFFFFFFFFFFFFFFFFFFFFFFFFFFFFF65
:106B4000FFFFFFFFFFFFFFFFFFFFFFFFEF0C3672AE
:106B50009F7FFF985F7E7D25F7DFFFFFFFFFFFFF31
:106B6000FFFFFFFFFFFFFFFFFFFFFFFFFFFFFFFF35
:106B7000FFFFFFFFFFFFFFFFFFFFFFFFFFFEC33E23
:106B80002B80BFFFFF00DE701089C78FFFDFFFFF84
:106B9000FFFFFFFFFFFFFFFFFFFFFFFFFFFFFFFF05
:106BA000FFFFFFFFFFFFFFFFFFFFFFFFFFFFFFF6FE
:106BB0000937F7B9E3DBEEE1FF7312A11FE7FFFF2F
:106BC000FFFFDFFFFFFFFFFFFFFFFFFFFFFFFFFFF5
:106BD000FFFFFFFFFFFFFFFFFFFFFFFFFFFFFFFFC5
:106BE000FFFF18139FD9CFFFFFD3FFF9818B7FF3EE
:106BF000FFFFFFFFFFFFFFFFFFFFFFFFFFFFFFFFA5
:106C0000FFFFFFFFFFFFFFFFFFFFFFFFFFFFFFFF94
:106C1000FFFFFFFFE01FBD9AFFC7F8E3FFCD1DBFD9
:106C2000F9FEFFFCFFFFFFFFFFFFFFFFFFFFFFFF7E
:106C3000FFFFFFFFFFFFFFFFFFFFFFFFFFFFFFFF64
:106C4000FFFFFFFFFFFFE07FFE91FDEF17E3CCD9D1
:106C500084A744FFFDED7FFFFFFFFFFFFFFFFFFF66
:106C6000FFFFFFFFFFFFFFFFFFFFFFFFFFFFFFFF34
:106C7000FFFFFFFFFFFFFFFBC277F021FDF913EBE2
:106C800078FC37318FFFFFFFDFFFFFFFFFFFFFFFC4
:106C9000FFFFFFFFFFFFFFFFFFFFFFFFFFFFFFFF04
:106CA000FFFFFFFFFFFFFFFFFFFFC3F3F220F947E6
:106CB0006CF3F9840E13FDFBFFFFCFFFFFFFFFFF17
:106CC000FFFFFFFFFFFFFFFFFFFFFFFFFFFFFFFFD4
:106CD000FFFFFFFFFFFFFFFFFFFFFFFF77E3FE3F29
:106CE000F8E2DA7F7800ABFBF9BF7FFFBFFFFFFF61
:106CF000FFFFFFFFFFFFFFFFFFFFFFFFFFFFFFFFA4
:106D0000FFFFFFFFFFFFFFFFFFFFFFFFFFFFEFFFA3
:106D1000BE7F0D5877BF7C34FBFDFF3FFFFFFFFFB9
:106D2000FFFFFFFFFFFFFFFFFFFFFFFFFFFFFFFF73
:106D3000FFFFFFFFFFFFFFFFFFFFFFFFFFFFFFFF63
:106D4000FFFFFF7F790F00B7FC35F9EF7DCFEFFF35
:106D5000FFFFFFFFFFFFFFFFFFFFFFFFFFFFFFFF43
:106D6000FFFFFFFFFFFFFFFFFFFFFFFFFFFFFFFF33
:106D7000FFFBFFFFFF6EF3251BFFFC125BF7F1C863
:106D8000EFFFFFFFFFFFFFFFFFFFFFFFFFFFFFFF23
:106D9000FFFFFFFFFFFFFFFFFFFFFFFFFFFFFFFF03
:106DA000FFFFFFFFFFFBFF76DE178BFFFC429FFF1D
:106DB000F7FFFFFFFFFFFFFFFFFFFFFFFFFFFFFFEB
:106DC000FFFFFFFFFFFFFFFFFFFFFFFFFFFFFFFFD3
:106DD000FFFFFFFFFFFEFFFFFF7FCEC829FFDC7C28
:106DE0001FF7FFFFF7FFFFFFFFFFFFFFFFFFFFFFA3
:106DF000FFFFFFFFFFFFFFFFFFFFFFFFFFFFFFFFA3
:106E0000FFFFFFFFFFFFFF7DF7FFFFFF7FC5667FEF
:106E1000FE783FDFEFF71FFFFFFFFFFFFFFFFFFFE2
:106E2000FFFFFFFFFFFFFFFFFFFFFFFFFFFFFFFF72
:106E3000FFFFFFFFFFFFFFFFFFF98FFFE7E7F823EB
:106E40001BFFFC163FFFFFE79FFFFFFFFFFFFFFF5A
:106E5000FFFFFFFFFFFFFFFFFFFFFFFFFFFFFFFF42
:106E6000FFFFFFFFFFFFFFFFFFFFFFFECCFFDDFE89
:106E7000D127FBFFF8B37FFFFFFFBFFFFFFFFFFF3F
:106E8000FFFFFFFFFFFFFFFFFFFFFFFFFFFFFFFF12
:106E9000FFFFFFFFFFFFFFFFFFFFFFFFFFFECFFF33
:106EA0003CF8862FFFFFFF87FE7FFFFFFFFFFFFFFE
:106EB000FFFFFFFFFFFFFFFFFFFFFFFFFFFFFFFFE2
:106EC000FFFFFFFFFFFFFFFFFFFFFFFFFFFFFFFDD4
:106ED000FFFF307F83BFBFFFFFDE7FB8FFFFFFFFF5
:106EE000FFFFFFFFFFFFFFFFFFFFFFFFFFFFFFFFB2
:106EF000FFFFFFFFFFFFFFFFFFFFFFFFFFFFFFFFA2
:106F0000FFFFFFFFE0FFC51BEFFFFDCD7FFBFFF3A2
:106F1000FFFFFFFFFFFFFFFFFFFFFFFFFFFFFFFF81
:106F2000FFFFFFFFFFFFFFFFFFFFFFFFFFFFFFFF71
:106F3000FFFFFFFFFEFC6188C13FFFFFFF843FE7CB
:106F4000FFC6E7FFFFFFFFFFFFFFFFFFFFFFFFFFA2
:106F5000FFFFFFFFFFFFFFFFFFFFFFFFFFFFFFFF41
:106F6000FFFFFFFFFFFFFEFFA0A9E73FFFFBFF0FB3
:106F70007FF7FF8007FFFFFFFFFFFFFFFFFFFFFF20
:106F8000FFFFFFFFFFFFFFFFFFFFFFFFFFFFFFFF11
:106F9000FFFFFFFFFFFFFFFEFFC783DD80B7FDFBA5
:106FA000FF4FFFFFFF303FFFFFFFFFFFFFFFFFFF30
:106FB000FFFFFFFFFFFFFFFFFFFFFFFFFFFFFFFFE1
:106FC000FFFFFFFFFFFFFFFFFFFFFFF787FF007FD0
:106FD000FEFFEFFFFFFFFFB07FFFFFFFFFFFFFFFA1
:106FE000FFFFFFFFFFFFFFFFFFFFFFFFFFFFFFFFB1
:106FF000FFFFFFFFFFFFFFFFFFFFFFFFFFFFE8FFB8
:107000001F1F11E7EFFDFFFFDFF0F7FFFFFFFFFF9F
:10701000FFFFFFFFFFFFFFFFFFFFFFFFFFFFFFFF80
:10702000FFFFFFFFFFFFFFFFFFFFFFFFFFFFFFFF70
:10703000FD7F187FBFFBFFFFFFFFFFF8E7FFFFFFAC
:10704000FFFFFFFFFFFFFFFFFFFFFFFFFFFFFFFF50
:10705000FFFFFFFFFFFFFFFFFFFFFFFFFFFFFFFF40
:10706000FFFFFC7718FFFFF67CEFFFBFFFF0EFFF9D
:10707000FFFFFFFFFFFFFFFFFFFFFFFFFFFFFFFF20
:10708000FFFFFFFFFFFFFFFFFFFFFFFFFFFFFFFF10
:10709000FFFFFFFF9BD71CF7FFFF2B5FFFFFFFF7F3
:1070A000FFFFFFFFFFFFFFFFFFFFFFFFFFFFFFFFF0
:1070B000FFFFFFFFFFFFFFFFFFFFFFFFFFFFFFFFE0
:1070C000FFFFFFFFFFFFFFCA7FFFFAFFF7FFDFFFB2
:1070D000FFFFFFFFFFFFFFFFFFFFFFFFFFFFFFFFC0
:1070E000FFFFFFFFFFFFFFFFFFFFFFFFFFFFFFFFB0
:1070F000FFFFFFFFFFFFFFFFFFDFF0F1FFDDFFFFFF
:10710000FFFFFFFFFFFFFFFFFFFFFFFFFFFFFFFF8F
:10711000FFFFFFFFFFFFFFFFFFFFFFFFFFFFFFFF7F
:10712000FFFFFFFFFFFFFFFFFFFFF9FFF1FFB78D3D
:10713000FFFFFF7FFFFFFFFFFFFFFFFFFFFFFFFFDF
:10714000FFFFFFFFFFFFFFFFFFFFFFFFFFFFFFFF4F
:10715000FFFFFFFFFFFFFFFFFFFFFFFFFFFFFBC67C
:10716000870F7F3EFFFEFFFFFFFFFFFFFFFFFFFFD9
:10717000FFFFFFFFFFFFFFFFFFFFFFFFFFFFFFFF1F
:10718000FFFFFFFFFFFFFFFFFFFFFFFFFFFFFF7F8F
:10719000FFFE1F09BE7FFFFFFFFFFFFFFFFFFFFF97
:1071A000FFFFFFFFFFFFFFFFFFFFFFFFFFFFFFFFEF
:1071B000FFFFFFFFFFFFFFFFFFFFFFFFFFFFFFFFDF
:1071C000FFFEFFFE1DC3F87F7FFFFFFFFFFFFFFFF6
:1071D000FFFFFFFFFFFFFFFFFFFFFFFFFFFFFFFFBF
:1071E000FFFFFFFFFFFFFFFFFFFFFFFFFFFFFFFFAF
:1071F000FFFFFFFFFFE7F4E7FFFF6FFFFFFFFFFF6A
:10720000FFFFFFFFFFFFFFFFFFFFFFFFFFFFFFFF8E
:10721000FFFFFFFFFFFFFFFFFFFFFFFFFFFFFFFF7E
:10722000FFFFFFFFFFFFFFF7C2BFFFFFFFFFFFFFF3
:10723000FFFFFFFFFFFFFFFFFFFFFFFFFFFFFFFF5E
:10724000FFFFFFFFFFFFFFFFFFFFFFFFFFFFFFFF4E
:10725000FFFFFFFFFFFFDFFFFFEFF5FFFBE3F9FF9E
:10726000FFFFFFFFFFFFFFFFFFFFFFFFFFFFFFFF2E
:10727000FFFFFFFFFFFFFFFFFFFFFFFFFFFFFFFF1E
:10728000FFFFFFFFFFFFFFFFDFEFFFCF7FEFFFEF0E
:10729000FBFFFFFFFFFFFFFFFFFFFFFFFFFFFFFF02
:1072A000FFFFFFFFFFFFFFFFFFFFFFFFFFFFFFFFEE
:1072B000FFFFFFFFFFFFFFFFFFFFFFFFFFFEDFFFFF
:1072C0007FFFFFFFFFFFFFFFFFFFFFFFFFFFFFFF4E
:1072D000FFFFFFFFFFFFFFFFFFFFFFFFFFFFFFFFBE
:1072E000FFFFFFFFFFFFFFFFFFFFFFFFFFFFFFFFAE
:1072F000FFFFFFFFFFFFFFFFFFFFFFFFFFFFFFFF9E
:10730000FFFFFFFFFFFFFFFFFFFFFFFFFFFFFFFF8D
:10731000FFFFFFFFFFFFFFFFFFFFFFFFFFFFFFFF7D
:10732000FFFFFFBFDE7EFFFFFFFFFFFFFFFFFFFF4F
:10733000FFFFFFFFFFFFFFFFFFFFFFFFFFFFFFFF5D
:10734000FFFFFFFFFFFFFFFFFFFFFFFFFFFFFFFF4D
:10735000FFFFFFFFFFFFFEFFFFFFFFFFFFFFFFFF3E
:10736000FFFFFFFFFFFFFFFFFFFFFFFFFFFFFFFF2D
:10737000FFFFFFFFFFFFFFFFFFFFFFFFFFFFFFFF1D
:10738000FFFF7FFFFFFFFFFFFEEEFFFFFFFFFFFF9F
:10739000FFFFFFFFFFFFFFFFFFFFFFFFFFFFFFFFFD
:1073A000FFFFFFFFFFFFFFFFFFFFFFFFFFFFFFFFED
