:020000040800F2
:10000000D07C00209D0900087105000873050008D8
:10001000770500087B0500087F0500080000000048
:100020000000000000000000000000008305000840
:100030008505000800000000870500088905000804
:10004000B7090008B7090008B7090008B709000890
:10005000B7090008B7090008B7090008B709000880
:10006000B7090008B7090008B7090008B709000870
:10007000B7090008B7090008B7090008B709000860
:10008000B7090008B7090008B7090008B709000850
:10009000B7090008B7090008B7090008B709000840
:1000A000B7090008B7090008B7090008B709000830
:1000B000B7090008B7090008B7090008B709000820
:1000C000B7090008B7090008B7090008B709000810
:1000D000B709000811090008B7090008B7090008A6
:1000E000B7090008B7090008B7090008B7090008F0
:1000F000B7090008B7090008B7090008B7090008E0
:10010000B7090008B7090008B7090008B7090008CF
:10011000B7090008B7090008B7090008B7090008BF
:10012000B7090008B7090008B7090008B7090008AF
:1001300000F002F800F03AF80AA090E8000C8244BF
:100140008344AAF10107DA4501D100F02FF8AFF29C
:10015000090EBAE80F0013F0010F18BFFB1A43F0A5
:100160000103184748D8000068D80000103A24BF9F
:1001700078C878C1FAD8520724BF30C830C144BF0C
:1001800004680C607047000000230024002500264E
:10019000103A28BF78C1FBD8520728BF30C148BFEA
:1001A0000B6070471FB51FBD10B510BD02F0C8FA37
:1001B0001146FFF7F7FF00F009F802F0E6FA03B482
:1001C000FFF7F2FF03BC00F049FB00000EB500F0A2
:1001D000CBFA00F03DFB01F0B3FBACE101F054FAC7
:1001E000D549D64801F055FB01F048FB022000F04C
:1001F0001AFB01F049FA01F079FB01F03FFB022004
:1002000000F011FBFF2000234FF496724FF4C871E9
:100210000090CB4801F024FCFF2000234FF496729D
:100220004FF4C8710090C74801F01AFC01F0A9FA18
:10023000C34801F052FCFF2001F00AFD01200346F3
:1002400000220A210090052001F037FD0120022341
:10025000002219210090052001F02FFD0120032329
:10026000002228210090052001F027FD0120042311
:10027000002237210090052001F01FFD0120002100
:1002800000913C234622CDE901100A21142001F0FF
:1002900066FD0120002100913C231422CDE90110CC
:1002A0000A21462001F05BFD01200022CDE900205B
:1002B0003723AA220F210290104601F050FD0120A1
:1002C0000022CDE900202323BE2219460290962069
:1002D00001F045FD9B4801F000FCFF2001F0B8FC57
:1002E0000120002100913C234622CDE901100A2182
:1002F000142001F0B2FD01200022CDE900203C23B2
:1003000082220A210290552001F0A7FD0120002140
:100310000B466422CDE90010C821962001F0F6FDBD
:100320000120009000236422C8210190FA2001F0EE
:10033000EDFD8449824801F06CF901F09FFA02203A
:1003400000F071FA01F01DFA7D4801F0C6FBFF20B4
:1003500001F07EFC0020FF217B4B7CA2CDE9001048
:10036000014601F053FF0020FF217C4B77A2CDE92D
:1003700000100A2101F04AFF0020FF21784B73A2F0
:10038000CDE90010192101F041FF0020FF21754B3C
:100390006EA2CDE900102D2101F038FF0020FF21D1
:1003A000714B6AA2CDE90010462101F02FFF65488C
:1003B00001F093FBFF2001F04BFC0020FF21624B7A
:1003C00062A2CDE90010C821B42001F01FFF002077
:1003D000FF21624B5DA2CDE90010D221B42001F0D3
:1003E00015FF0020FF215E4B58A2CDE90010E1214E
:1003F000B42001F00BFF0020FF215A4B53A2CDE99E
:100400000010F521B42001F001FF0020FF21564B20
:100410004EA2CDE900104FF48771B42001F0F6FE32
:100420004849474801F0F5F801F028FA022000F0A9
:10043000FAF901F0A6F9424801F04FFBFF2001F064
:1004400007FC0020FF21404B484ACDE9001001463F
:1004500002F022F80020FF21404B444ACDE9001071
:100460000A2102F019F80020FF213D4B3F4ACDE957
:100470000010192102F010F80020FF21394B3B4AEF
:10048000CDE900102D2102F007F80020FF21364BA6
:10049000364ACDE90010462101F0FEFF294801F05F
:1004A0001CFBFF2001F0D4FB0020FF21264B2F4A2C
:1004B000CDE90010C821DC2001F0EEFF0020FF2173
:1004C000264B2A4ACDE90010D221DC2001F0E4FFBE
:1004D0000020FF21224B254ACDE90010E121DC203C
:1004E00001F0DAFF0020FF211E4B204ACDE9001069
:1004F000F521DC2001F0D0FF0020FF211A4B1B4A20
:10050000CDE900104FF48771DC2001F0C5FF0D49E3
:100510000B4801F07EF801F0B1F9022000F083F9F8
:1005200001F0B2F801F0E2F901F0A8F9022000F0C0
:100530007AF900BFFEE751E638620008A0270008FC
:100540005C000020F43A002034000020476F6F6404
:1005500020446973706C6179000000003C00002049
:10056000440000204C0000205400002015CD5B0703
:10057000704700BFFEE700BFFEE700BFFEE700BF19
:10058000FEE7704770477047704700000CB50020C9
:10059000019000906B48006840F480306949086021
:1005A00000BF6848006800F4003000900198401CCB
:1005B0000190009818B90198B0F5A06FF1D1614889
:1005C000006810F4003F02D00120009001E00020FC
:1005D00000900098012842D15B48006840F010006C
:1005E000594908600846006820F003000860084682
:1005F000006840F002000860524840685149486075
:100600000846406848600846406840F4806048609A
:100610000846406820F47C1048600846406840F472
:10062000E81048600846006840F08070086000BF2D
:100630004448006810F0007FFAD04248406820F03B
:100640000300404948600846406840F002004860A6
:1006500000BF3C48406800F00C000828F9D10CBDF0
:1006600010B5FFF793FF10BD10B53648006840F095
:10067000010034490860084640683449084031495F
:10068000486008460068324908402E49086008461C
:10069000006820F4802008600846406820F4FE00CE
:1006A00048604FF41F008860FFF7DAFF4FF00060EA
:1006B0002849086010BD10B5002100200022214B00
:1006C0005B6803F00C0121B1042906D0082928D168
:1006D00007E0214B214C236027E01F4B1F4C236078
:1006E00023E0184B5B6803F47010164B5B6803F44F
:1006F0008032022303EB904022B9194B4343174C3D
:1007000023600DE00F4B5B6813F4003F04D0144BE3
:100710004343124C236003E00F4B43430F4C2360D1
:1007200003E00D4B0D4C236000BF00BF054B5B6821
:10073000C3F303130B4CE15C084B1B68CB40074C25
:10074000236010BD00100240002002400000FFF8AE
:10075000FFFFF6FE08ED00E000127A000000002026
:1007600000093D000400002010B56FF0040000F007
:1007700085F9334800683349B0FBF1F0324908701D
:100780000846007800EB4001C1EBC0104FF6FF7146
:1007900001EAC0002D49088010BD01462A4A12789E
:1007A0004A434FF0E0235A6100229A611A461269C7
:1007B00042F001021A6100BF4FF0E022106910F010
:1007C000010F02D010F4803FF6D04FF0E022126902
:1007D00022F001024FF0E0231A6100229A61704773
:1007E00001461A4A12884A434FF0E0235A61002218
:1007F0009A611A46126942F001021A6100BF4FF075
:10080000E022106910F0010F02D010F4803FF6D002
:100810004FF0E022126922F001024FF0E0231A614A
:1008200000229A61704730B50446002505E04FF478
:100830007A70FFF7D5FF681C85B2A542F7DB30BDA3
:100840000000002000127A00140000201600002092
:1008500010B54FF4A06000F0C1F810BD014600BF14
:10086000704700BF494A128812F0400FFAD0C2B256
:10087000464B1B1D1A80704710B586B004460121F7
:1008800044F2050000F02EFC4FF40070ADF81400A7
:1008900003208DF8160018208DF8170005A93C4894
:1008A00000F06AF94FF48060ADF8140004208DF870
:1008B000170005A9364800F05FF925208DF80000E3
:1008C00003208DF801008DF8020001208DF803004F
:1008D000684600F088F801940020ADF80800ADF8F3
:1008E0000A00ADF80C00ADF810000C20ADF80E00B9
:1008F00001A9264800F0A1FC012240F2255123481D
:1009000000F033FD0121214800F023FD06B010BDA9
:1009100010B540F225511D4800F00CFE10B31B48E5
:1009200000F088FDC4B21B48008810F4004F2BD1A2
:100930001848008810F4804F0CD00A2C03D00020F7
:100940001449088020E01348008840F40040114911
:10095000088019E00D2C06D10E48008840F4804034
:100960000C49088010E00B480088C0F30D000A49CC
:100970000C5408480088401C064908800846008836
:10098000C72801DD0020088010BD000000380140AC
:1009900000080140180000208C750020094880479D
:1009A00009480047FEE7FEE7FEE7FEE7FEE7FEE751
:1009B000FEE7FEE7FEE7FEE704480549054A064B69
:1009C000704700006906000831010008D076002059
:1009D000D07C0020D0780020D0780020314901431D
:1009E000314A1160704770B5002100230F22C4788E
:1009F0000CB32D4C246804F4E064C4F5E064210ACF
:100A0000C1F10403CA40447804FA03F18478144025
:100A100021430901254C0678A155047804F01F05EF
:100A20000124AC4005786D114FF0E02606EB8505FA
:100A3000C5F8004109E0047804F01F050124AC402A
:100A40001B4D0678761145F8264070BD194A0A40BC
:100A50000243154B1B1F1A60704739B1124A121D11
:100A600012680243104B1B1D1A6006E00E4A121D4D
:100A7000126882430C4B1B1D1A607047042808D172
:100A80004FF0E021096941F004014FF0E0221161CB
:100A900007E04FF0E021096921F004014FF0E02266
:100AA000116170470000FA050CED00E000E400E081
:100AB00080E100E080FFFF1F10B50446CA48844271
:100AC00008D10121042000F027FB0021042000F0C0
:100AD00023FB46E0C548844208D10121082000F0EC
:100AE0001BFB0021082000F017FB3AE0C0488442BD
:100AF00008D10121102000F00FFB0021102000F090
:100B00000BFB2EE0BB48844208D10121202000F0DD
:100B100003FB0021202000F0FFFA22E0B6488442C7
:100B200008D10121402000F0F7FA0021402000F018
:100B3000F3FA16E0B148844208D10121802000F088
:100B4000EBFA0021802000F0E7FA0AE0AC4884428A
:100B500007D10121801500F0DFFA0021A01500F077
:100B6000DBFA10BD10B50121084600F0D5FA0021CE
:100B7000012000F0D1FA10BD2DE9F0410246002518
:100B80000026002000230024002791F803C00CF069
:100B90000F0591F803C01CF0100F03D091F802C0AC
:100BA0004CEA050591F800C0BCF1000F31D0146883
:100BB00000202BE04FF0010C0CFA00F3B1F800C05C
:100BC0000CEA03069E4220D183004FF00F0C0CFA72
:100BD00003F7BC4305FA03FC4CEA040491F803C094
:100BE000BCF1280F06D14FF0010C0CFA00FCC2F842
:100BF00014C00AE091F803C0BCF1480F05D14FF0D2
:100C0000010C0CFA00FCC2F810C0401C0828D1D31B
:100C10001460B1F800C0BCF1FF0F34DD546800204F
:100C20002EE000F1080C4FF0010808FA0CF3B1F8BF
:100C300000C00CEA03069E4221D183004FF00F0C46
:100C40000CFA03F7BC4305FA03FC4CEA040491F8E0
:100C500003C0BCF1280F05D100F1080C08FA0CF80C
:100C6000C2F8148091F803C0BCF1480F07D100F11D
:100C7000080C4FF0010808FA0CF8C2F81080401C6C
:100C80000828CED35460BDE8F0814FF6FF71018093
:100C9000022181700421C1707047024600209368D0
:100CA0000B4201D0012000E0002070470146886817
:100CB00080B2704702460020D3680B4201D0012069
:100CC00000E0002070470146C86880B270470161AB
:100CD0007047416170470AB1016100E041617047AE
:100CE000C16070474FF480320A4382618161826142
:100CF00082698269704702460020424B18684FF6AD
:100D00008073184040EA021008433E4B1860704759
:100D10003D49C8617047F0B50A4600230024002110
:100D2000002500F00046B6F1004F02D1354EF169C2
:100D300001E0344E7168C0F3034583B200F44016FD
:100D4000B6F5401F08D121F070612E4E766826F06E
:100D500070662C4F7E6012E000F48016B6F5801F9E
:100D600006D1032606FA05F4A14341F0706106E0BE
:100D7000460D360103FA06F6B14341F0706122B127
:100D8000460D360103FA06F6314300F00046B6F18F
:100D9000004F02D11B4EF16101E01A4E7160F0BDAF
:100DA00030B500228B071C0F0F2303FA04F2154BFA
:100DB00008338C1053F824309343124C08348D10B0
:100DC00044F8253023468C1053F824308C07240F28
:100DD00000FA04F423430B4C08348D1044F82530FA
:100DE00030BD0A490860704700080140000C01400E
:100DF000001001400014014000180140001C014097
:100E0000002001400000014000002042DC002042A0
:100E1000DD48006840F00100DB4908600846406892
:100E2000DA490840D849486008460068D84908406F
:100E3000D54908600846006820F48020086008460C
:100E4000406820F4FE0048604FF41F00886070473F
:100E5000CD49096821F48031CB4A116011460968F7
:100E600021F480211160B0F5803F03D0B0F5802FD0
:100E70000ED106E0C449096841F48031C24A1160CC
:100E800007E0C149096841F4A021BF4A116000E0B0
:100E900000BF00BF704710B50146002200230020AC
:100EA0004A11012A02D1B84C236806E0022A02D175
:100EB000B54C236A01E0B44C636A01F01F020124BF
:100EC00094401C4201D0012000E0002010BD38B544
:100ED000002000900024002500BF3120FFF7DBFF39
:100EE00005460098401C00900098B0F5A06F01D016
:100EF000002DF2D03120FFF7CEFF08B1012400E031
:100F00000024204638BD014600209F4A106820F08A
:100F1000F80040EAC100106070479E4908607047C1
:100F200002460020984B586820F47C1042EA0103E6
:100F30001843954B586070479649086670470146BC
:100F40000020914A506820F0030008435060704729
:100F50008D48406800F00C007047014600208A4A26
:100F6000506820F0F00008435060704701460020B0
:100F7000854A506820F4E06008435060704701469D
:100F80000020814A506820F4605040EAC10050605F
:100F9000704729B17C4A527A02437B4B5A7204E073
:100FA000794A527A8243784B5A7270477A4908607C
:100FB000704701460020744A506820F440400843BE
:100FC000506070470021754A11706F4A82F82010F6
:100FD000012802D0042808D103E001216F4A1170D2
:100FE00004E005216D4A117000E000BF00BF7047AA
:100FF0006B49086070476449096A0143624A11629B
:101000007047674944390860704730B500210022B5
:10101000002400235C4D6D6805F00C0121B104290A
:1010200005D0082923D105E05E4D056022E05D4D25
:1010300005601FE0544D6D6805F47012524D6D68E7
:1010400005F48034022505EB92421CB9564D5543F8
:1010500005600BE04C4D6D6815F4003F03D0524D18
:101060005543056002E04F4D5543056002E04D4D8C
:10107000056000BF00BF444D6D6805F0F00109092F
:101080004A4D6B5C0568DD4045603F4D6D6805F479
:10109000E061090A454D6B5C4568DD4085603A4D6D
:1010A0006D6805F46051C90A404D6B5C4568DD40D0
:1010B000C560354D6D6805F44041890B3C4D6B5C56
:1010C000C568B5FBF3F5056130BD29B12E4A5269FB
:1010D00002432D4B5A6104E02B4A526982432A4B4A
:1010E0005A61704729B1284A92690243264B9A6196
:1010F00004E0254A92698243234B9A61704729B1E3
:10110000214AD2690243204BDA6104E01E4AD269C7
:1011100082431D4BDA61704729B11B4AD2680243F2
:10112000194BDA6004E0184AD2688243164BDA6041
:10113000704729B1144A12690243134B1A6104E043
:10114000114A12698243104B1A61704714494039A1
:10115000086070470F49C86470470B49C8717047F1
:101160000948406A40F0807007494862704701466C
:101170000020054A92680A4201D0012000E00020C8
:101180007047014988727047001002400000FFF864
:10119000FFFFF6FE00004242D8004242201002400B
:1011A0008004424200127A0000093D002000002025
:1011B0003000002010B50446FB48844209D10121CB
:1011C0008803FFF7A9FF00214FF48040FFF7A4FF39
:1011D00032E0F648844209D101214804FFF7A9FF13
:1011E00000214FF40030FFF7A4FF25E0F0488442CF
:1011F00009D101218804FFF79CFF00214FF48020D2
:10120000FFF797FF18E0EB48844209D10121C80499
:10121000FFF78FFF00214FF40020FFF78AFF0BE05C
:10122000E548844208D101210805FFF782FF00212B
:101230004FF48010FFF77DFF10BD2DE9F04786B019
:1012400005460E460024A24600BFA1460027B089ED
:1012500000B100BF2F462C8A4CF6FF700440F08886
:1012600004432C82AC894EF6F3100440B0883189D7
:101270000843718908430443AC81AC8A4FF6FF40B0
:101280000440B0890443AC8201A8FFF7BEFEC64803
:10129000874202D1DDF810A001E0DDF80CA0A8899A
:1012A00010F4004F08D00AEBCA0000EB0A103168B6
:1012B0004900B0FBF1F807E00AEBCA0000EB0A10A6
:1012C00031688900B0FBF1F86420B8FBF0F004014C
:1012D0002009642101FB1089A88910F4004F08D06F
:1012E000322000EBC900B0FBF1F000F0070004432E
:1012F00008E0322000EB09106421B0FBF1F000F0AF
:101300000F0004432C8106B0BDE8F0874FF416515E
:10131000016000218180C18001810C214181002177
:101320008181704710B502460020108A4FF2FF03FA
:1013300018400B884C8823438C882343CC88234354
:101340001843108210BD0021018041808180C1803E
:10135000704721B1828942F40052828104E082897F
:101360004DF6FF731A4082817047F0B503460024A2
:10137000002600250020A1F510676A3F00D100BFBC
:101380001846C1F3421401F01F06012707FA06F5BB
:10139000012C01D10C3004E0022C01D1103000E00E
:1013A00014301AB107682F43076002E00768AF43A3
:1013B0000760F0BD1AB1838A0B43838202E0838AFF
:1013C0008B4383827047028A4FF6F0731A40028281
:1013D000028A0A430282704782894FF2FF731A40E1
:1013E000828182890A438281704721B1828942F0D9
:1013F0000202828104E082894FF6FD731A408281E5
:101400007047028A4FF6DF731A400282028A0A434B
:101410000282704721B1028A42F48042028204E0D3
:10142000028A4BF6FF731A4002827047C1F308022A
:101430008280704701468888C0F308007047818920
:1014400041F0010181817047028BD2B20283028B8D
:1014500042EA012202837047028B02F47F42028338
:10146000028B0A430283704721B1828A42F0200234
:10147000828204E0828A4FF6DF731A4082827047CC
:1014800021B1828A42F01002828204E0828A4FF601
:10149000EF731A408282704721B1828A42F00802BB
:1014A000828204E0828A4FF6F7731A408282704784
:1014B00021B1828942F40042828103E08289C2F331
:1014C0000E028281704721B1828A42F400628282D8
:1014D00004E0828A4FF2FF731A4082827047828A48
:1014E0004FF6FB731A408282828A0A4382827047D7
:1014F00021B1828A42F00202828204E0828A4FF69F
:10150000FD731A408282704702460020B1F5007FC9
:1015100000D100BF13880B4201D0012000E0002061
:10152000704701F40072B2F5007F00D100BFCA43DA
:101530000280704770B50246002400230025002079
:10154000A1F510666A3E00D100BFC1F3421501F05B
:101550001F03012606FA03F3012D02D196893340B9
:1015600006E0022D02D1168A334001E0968A33400C
:101570000C12012606FA04F41688344013B10CB19B
:10158000012000E0002070BD10B500220023A1F56D
:1015900010646A3C00D100BF0A1201249440A3B237
:1015A000DC43048010BD00000038014000440040CE
:1015B00000480040004C00400050004006E042F669
:1015C000E06100BF0A00A1F10101FBD10200A0F11E
:1015D0000100F4D1704710B54FF48041D748FFF7B0
:1015E00078FB0A20FFF7EAFF4FF48041D348FFF76A
:1015F0006EFB0A20FFF7E2FF10BD10B506E04FF4C6
:101600000051CE48FFF749FB00B900E0F7E700BF03
:1016100010BD2DE9F0470746884632264FF49679EB
:10162000242000F0EEF900250AE0002405E005FB87
:101630000641785C00F0FAF9641CB442F7D36D1CE3
:101640004D45F2D3262000F0DCF900250DE0002402
:1016500008E005FB064118F80110C943C8B200F0C4
:10166000E5F9641CB442F4D36D1C4D45EFD3222040
:1016700000F0C7F9C72000F0D9F9202000F0C1F927
:10168000FFF7BBFFBDE8F08710B5FFF7A4FF1220FE
:1016900000F0B7F9FFF7B1FF742000F0B2F9542061
:1016A00000F0C4F97E2000F0ACF93B2000F0BEF958
:1016B0002B2000F0A6F9042000F0B8F9632000F018
:1016C000B5F90C2000F09DF98B2000F0AFF99C20BB
:1016D00000F0ACF9962000F0A9F90F2000F0A6F96F
:1016E000012000F08EF92B2000F0A0F9012000F07D
:1016F0009DF9002000F09AF9112000F082F90120F4
:1017000000F094F9442000F07CF9002000F08EF9FC
:10171000312000F08BF9452000F073F92B2000F008
:1017200085F9012000F082F9002000F07FF9002007
:1017300000F07CF93C2000F064F9012000F076F91B
:10174000182000F05EF9802000F070F9222000F0EF
:1017500058F9B12000F06AF9202000F052F9FFF7A3
:101760004CFF4E2000F04DF9002000F05FF94F20B3
:1017700000F047F92B2000F059F9012000F056F94C
:1017800010BD10B5FFF727FF122000F03AF9FFF760
:1017900034FF742000F035F9542000F047F97E2022
:1017A00000F02FF93B2000F041F92B2000F029F93F
:1017B000042000F03BF9632000F038F90C2000F021
:1017C00020F98B2000F032F99C2000F02FF99620B0
:1017D00000F02CF90F2000F029F9012000F011F998
:1017E0002B2000F023F9012000F020F9012000F067
:1017F0001DF9112000F005F9012000F017F944202F
:1018000000F0FFF8002000F011F9312000F00EF98F
:10181000452000F0F6F82B2000F008F9012000F038
:1018200005F9002000F002F9002000F0FFF83C204C
:1018300000F0E7F8012000F0F9F8182000F0E1F8D6
:10184000802000F0F3F8222000F0DBF8B12000F057
:10185000EDF8202000F0D5F8FFF7CFFE4E2000F085
:10186000D0F8002000F0E2F84F2000F0CAF82B205A
:1018700000F0DCF8012000F0D9F810BD10B5102000
:1018800000F0BFF8012000F0D1F86420FFF796FEC9
:1018900010BD70B505460E46242000F0B2F80024B5
:1018A00004E0287800F0C2F86D1C641C43F6982010
:1018B0008442F6D3262000F0A4F8002406E0317814
:1018C000C943C8B200F0B2F8761C641C43F69820F5
:1018D0008442F4D3222000F094F8C72000F0A6F848
:1018E000202000F08EF8FFF788FE70BD10B5242090
:1018F00000F087F8002403E0FF2000F097F8641C54
:1019000043F698208442F7D3262000F07AF800248A
:1019100003E0002000F08AF8641C43F6982084421B
:10192000F7D3222000F06DF8C72000F07FF82020C8
:1019300000F067F8FFF761FE10BD000000180140DD
:1019400008B501216020FFF7CDFB4FF4E060ADF852
:10195000000010208DF8030002208DF80200694677
:101960003D48FFF709F94FF44040ADF80000102062
:101970008DF8030002208DF8020069463748FFF712
:10198000FBF84FF40050ADF8000048208DF803003C
:1019900002208DF8020069463048FFF7EDF84FF459
:1019A0008050ADF8000010208DF8030002208DF863
:1019B000020069462948FFF7DFF808BD70B5044604
:1019C00000251BE04FF400712348FFF782F914F063
:1019D000800F05D04FF480611F48FFF778F904E0CD
:1019E0004FF480611C48FFF774F96006040E4FF451
:1019F00000711948FFF76BF9681CC5B2082DE1DBCF
:101A000070BD10B504464FF480711348FFF761F9BB
:101A10004FF400411148FFF75CF92046FFF7CEFF75
:101A20004FF480710C48FFF752F910BD10B5044611
:101A30004FF480710848FFF74CF94FF40041074814
:101A4000FFF745F92046FFF7B9FF4FF480710248D0
:101A5000FFF73DF910BD00000014014000180140DF
:101A60002DE9F0410646069F0020F94C20602046F3
:101A700006600181428187810C464FEAE17C01EBDF
:101A80005C7C4FEAEC0CB1EBCC0C07D10D464FEA75
:101A9000E57C05EB5C7C4FEAEC0C08E008464FEA7D
:101AA000E17C01EB5C7C4FEAEC0C0CF1010CDFF803
:101AB000A083A8F812C040468282C3810020444619
:101AC00020820BB1B42B03D1E1488180C28002E0B7
:101AD000DF488280C180BDE8F081DD490860704741
:101AE00030B15A2804D0B42802D0B0F5877F01D194
:101AF000D749C881704728B1012803D0022801D0F6
:101B0000032801D1D249088270472DE9F0410346EC
:101B10000C461746CE4EB6889E4203DBCC4EF68866
:101B2000A64201DABDE8F081C94EF6893EB15A2ECF
:101B300008D0B42E0DD0B6F5877F1CD114E018461E
:101B4000214619E0C24E3689361B761EB0B21946C0
:101B500012E0BF4E3689F61A761EB0B2BC4E7689B8
:101B6000361B761EB1B207E02046B94E7689F61ACA
:101B7000761EB1B200E0D5E700BFB54E368A36B169
:101B8000012E05D0022E09D0032E18D10CE017E04B
:101B9000AF4E3689361A761EB0B211E0AC4E768959
:101BA000761A761EB1B20BE0A94E3689361A761E29
:101BB000B0B2A74E7689761A761EB1B200E0B1E7D0
:101BC00000BFA34E3689864203DBA14E76898E4242
:101BD00000DAA7E706464FEAE07C00EB5C7C4FEAC0
:101BE000EC0CDFF86C82B8F8128001FB08C2984E4A
:101BF0003668B55CAFB906464FEAE07C00EB5C7C2A
:101C00004FEAEC0CA0EBCC084FF0800C4CFA08FC2F
:101C100025EA0C0CDFF83882D8F8008008F802C0FA
:101C200014E006464FEAE07C00EB5C7C4FEAEC0CEB
:101C3000A0EBCC084FF0800C4CFA08FC4CEA050CE9
:101C4000DFF80C82D8F8008008F802C000BF69E70E
:101C500030B50246002110E0002008E07C4C648A88
:101C600001FB04037A4D2D68EA54441CA0B2784C61
:101C7000648A8442F2DC4C1CA1B2754CA48A8C426A
:101C8000EADC30BD2DE9F04706460F4690469946FE
:101C9000DDF820A03D460CE0344606E052462946D9
:101CA0002046FFF732FF601C84B24445F6DB681C17
:101CB00085B24D45F0DBBDE8F0872DE9F0470746DA
:101CC000884691461C46DDF820A061488088B842CD
:101CD00003DB5F48C088404501DABDE8F087BAF110
:101CE000010F24D100251DE0002614E007EB0500BC
:101CF000001B03D408EB0600001B00D50FE008EB27
:101D00000602121B91B27A19121B90B24A46FFF7D3
:101D1000FCFE701C06B26000401EB042E6DC00BF54
:101D2000681C05B26000401EA842DDDC15E00025FD
:101D300011E000260BE008EB0602521E91B27A1960
:101D4000521E90B24A46FFF7E0FE701C06B2A64251
:101D5000F1DB681C05B2A542EBDB00BFBDE72DE956
:101D6000F04F85B004460D4616461F463848808819
:101D7000A0420BDB3648C088A84207DB3448808885
:101D8000B04203DB3248C088B84202DA05B0BDE891
:101D9000F08FA046AA46301B01D4301B00E0A01BE8
:101DA0008346781B002801DC781B00E0E81B0490C8
:101DB000B44201DA012001E04FF0FF300390BD4250
:101DC00001DA012001E04FF0FF30029004980BEBA4
:101DD00000090020019000BF0198401CC0B2019092
:101DE0000F98012811D10321019890FBF1F201FB1A
:101DF000120050B901200090FF2251464046109B2E
:101E0000FFF75BFF0020019007E0012000905146A2
:101E10004046109B0E9AFFF750FF4FEA4901049885
:101E2000814208DBB04500D114E004988144039856
:101E300040441FFA80F84FEA49005845CCDCBA45C7
:101E400000D107E0D944029850441FFA80FAC3E752
:101E50005476002000BF00BF98E72DE9FE4F814671
:101E60000F4692469846DDE90DB50C9CFE488088E9
:101E700048450BDBFC48C088B84207DBFA4880883D
:101E8000504503DBF848C088404501DABDE8FE8FC5
:101E9000BBF1000F10D03E460BE000203346524607
:101EA0003146CDE9010500944846FFF758FF701C04
:101EB00086B24645F1DB27E000203B4652463946D4
:101EC000CDE9010500944846FFF749FF002043464D
:101ED0004A463946CDE9010500944846FFF73FFFE1
:101EE00000203B4652464146CDE90105009450464C
:101EF000FFF735FF002043464A464146CDE901053C
:101F000000945046FFF72BFF00BFBFE72DE9F84FC5
:101F100005460E4692469B46D3488088A84203DB7E
:101F2000D148C088B04201DCBDE8F88F00240FFA28
:101F30008AF70320A0EB4A000FFA80F90A980128DB
:101F400077D172E0A0465BE0012006EB080291B277
:101F50002A19009090B201235A46FFF7AEFE0120E5
:101F600006EB080291B22A1B009090B201235A4658
:101F7000FFF7A3FE0120321991B2A5EB08020090F1
:101F800090B201235A46FFF798FE0120321B91B20E
:101F9000A5EB0802009090B201235A46FFF78DFE90
:101FA0000120A6EB080291B22A1B009090B20123F7
:101FB0005A46FFF782FE0120A6EB080291B22A19C9
:101FC000009090B201235A46FFF777FE0120321BA2
:101FD00091B205EB0802009090B201235A46FFF738
:101FE0006CFE0120321991B205EB0802009090B20C
:101FF00001235A46FFF761FE08F101000FFA80F84D
:10200000B845A1DDB9F1000F05DAA000801D4844F4
:102010000FFA80F907E0E01B80000A3048440FFA0D
:1020200080F9781E07B2601C04B2BC428ADD66E00B
:10203000FFE762E00120F21991B22A19009090B2F4
:102040005A460B9BFFF739FE0120F21991B22A1B69
:10205000009090B25A460B9BFFF72FFE01203219D9
:1020600091B2EA1B009090B25A460B9BFFF725FEF7
:102070000120321B91B2EA1B009090B25A460B9B92
:10208000FFF71BFE0120F21B91B22A1B009090B2B9
:102090005A460B9BFFF711FE0120F21B91B22A1941
:1020A000009090B25A460B9BFFF707FE0120321BAF
:1020B00091B2EA19009090B25A460B9BFFF7FDFDD2
:1020C0000120321991B2EA19009090B25A460B9B46
:1020D000FFF7F3FDB9F1000F05DAA000801D4844B9
:1020E0000FFA80F907E0E01B80000A3048440FFA3D
:1020F00080F9781E07B2601C04B2BC429ADD00BFB2
:1021000012E72DE9F04F0746884692461D4656488D
:102110008088B84203DB5448C088404501DABDE8F6
:10212000F08FA988CA1701EB5272D2100846CB175C
:1021300001EB5373DB10B1EBC30301D0012300E0CB
:1021400000231344AAF12002B5F806C002FB0CF2EA
:1021500003FB02FB286800EB0B09002651E000247A
:1021600040E00998FF2814D1E11704EB5171C91020
:10217000A4EBC1028021114199F80020114225D021
:1021800008EB060291B23A1990B20A9AFFF7BDFC29
:102190001CE0E11704EB5171C910A4EBC1028021CE
:1021A000114199F80020114208D008EB060291B2C3
:1021B0003A1990B20A9AFFF7A8FC07E008EB06026A
:1021C00091B23A1990B2099AFFF79FFCE11704EB1C
:1021D0005171C910A4EBC101072901D109F101090D
:1021E000601C84B2A888A042BBDCA888C11700EBA1
:1021F0005171C910B0EBC10101D009F10109701C86
:1022000086B2E888B042AADC00BF88E72DE9FC4F1F
:1022100004460E4617461D46DDE90BABA046B14607
:1022200011488088A04203DB0F48C088B04201DA21
:10223000BDE8FC8F22E0A88840440B498988884289
:1022400004DDA046E88848441FFA80F9E88848443D
:102250000549C988884201DDA046B146CDE900ABF9
:102260003A782B46494601E0547600204046FFF775
:1022700048FF7F1CA88840441FFA80F8387800285F
:10228000D9D100BFD4E72DE9FF4F1D46DDF80890F6
:10229000DDF80080DDF804A0F7E099F800007F2861
:1022A00075DC002769E053207843296811F8100095
:1022B00099F8001088425FD153207843296801EBD8
:1022C000400000F1020B002652E0002442E00D988D
:1022D000FF2815D1E11704EB5171C910A4EBC1021D
:1022E000802111419BF80020114228D00AEB060200
:1022F00091B208EB040290B20E9AFFF706FC1EE0C2
:10230000E11704EB5171C910A4EBC1028021114106
:102310009BF80020114209D00AEB060291B208EBAB
:10232000040290B20E9AFFF7F0FB08E00AEB0602F7
:1023300091B208EB040290B20D9AFFF7E6FBE117A9
:1023400004EB5171C910A4EBC101072901D10BF1B4
:10235000010B641C2889A042B9DC2889C11700EB55
:102360005171C910B0EBC10101D00BF1010B761C0A
:102370006889B042A9DC03E07F1CA888B84292DCDF
:1023800000BF09F10109E88880447EE0FFE70027EB
:1023900073E053207843296811F8100099F8001071
:1023A000884269D153207843296801EB4000407886
:1023B00099F8011088425FD153207843296801EBD6
:1023C000400000F1020B002652E0002442E00D988C
:1023D000FF2815D1E11704EB5171C910A4EBC1021C
:1023E000802111419BF80020114228D00AEB0602FF
:1023F00091B208EB040290B20E9AFFF786FB1EE042
:10240000E11704EB5171C910A4EBC1028021114105
:102410009BF80020114209D00AEB060291B208EBAA
:10242000040290B20E9AFFF770FB08E00AEB060276
:1024300091B208EB040290B20D9AFFF766FBE11728
:1024400004EB5171C910A4EBC101072901D10BF1B3
:10245000010B641C2889A042B9DC2889C11700EB54
:102460005171C910B0EBC10101D00BF1010B761C09
:102470006889B042A9DC03E07F1CA888B84288DCE8
:1024800000BF09F102092889804499F8000000285A
:102490007FF403AFBDE8FF8F2DE9F04FADF5037D6D
:1024A00006460F4615469946DDF834B2DDF830A2EF
:1024B0000024A0464FF4807143A800F016F94FF4B1
:1024C000807103A800F011F943A802908248808827
:1024D000B04203DB8048C088B84203DA0DF5037DC3
:1024E000BDE8F08F0CE00A2095FBF0F100FB1150E5
:1024F000303003A90855601C04B20A2095FBF0F5A2
:10250000002DF0D10BE0601E03A9085C43A901F87F
:10251000080008F101000FFA80F8601E04B2002CD8
:10252000F1DC4B46CDE900AB39463046029AFFF765
:102530006DFE00BFD2E72DE9FF4F85B005469046FE
:102540009A46DDE9126765A207CA02AB07C3BAF86B
:10255000044098F804000A2190FBF1F002A911F858
:10256000009053464A46CDE9006728460699FFF792
:10257000C8FD98F804000A2190FBF1F201FB12005B
:1025800002A911F80090291988B253464A46CDE9AC
:1025900000670699FFF7B5FDA146E11704EB9171BD
:1025A0002A1902EBA101A34604EBDB7201EB6201E5
:1025B00088B253463A22CDE900670699FFF7A1FD9C
:1025C00098F805000A2190FBF1F002A911F800B07B
:1025D00004EBD97105EB440202EB610188B253466A
:1025E0005A46CDE900670699FFF78BFD98F805007C
:1025F0000A2190FBF1F201FB120002A911F800B0D0
:1026000004EBD97104EB44022A4402EB610188B265
:1026100053465A46CDE900670699FFF772FD04EB71
:10262000D97105EB840202EB6101A346E21704EBCA
:102630009272A1EBA20188B253463A22CDE900671B
:102640000699FFF75EFD98F806000A2190FBF1F06D
:1026500002A911F8009004EB8401294488B2534682
:102660004A46CDE900670699FFF74BFD98F806004A
:102670000A2190FBF1F201FB120002A911F800906F
:1026800004EB440105EB410188B253464A46CDE9CB
:1026900000670699FFF735FD09B0BDE8F08F30B54A
:1026A00002460023002111E0002009E00A4C648A60
:1026B00001FB0403D45C084D2D68EC54441CA0B20B
:1026C000054C648A8442F1DC4C1CA1B2024CA48A01
:1026D0008C42E9DC30BD00005476002030313233CA
:1026E000343536373839000070474FF0000200B5F6
:1026F000134694469646203922BFA0E80C50A0E825
:102700000C50B1F12001BFF4F7AF090728BFA0E8D2
:102710000C5048BF0CC05DF804EB890028BF40F89E
:10272000042B08BF704748BF20F8022B11F0804FE0
:1027300018BF00F8012B704770477047704770470B
:10274000754600F029F8AE4605006946534620F06C
:102750000700854618B020B5FEF72EF9BDE82040E9
:102760004FF000064FF000074FF000084FF0000B4D
:1027700021F00701AC46ACE8C009ACE8C009ACE800
:10278000C009ACE8C0098D4670470446AFF300802D
:102790002046FDF714FD0000004870476C760020CD
:1027A000FFFFFFFFFFFFFFFFFFFFFFFFFFFFFFFF39
:1027B000FFFFFFFFFFFFFFFFFFFFFFFFFFFFFFFF29
:1027C000FFFE000015545492D0401000008202A475
:1027D000802AFFFFFFFFFFFFFFFFFFFFFFFFFFFF5D
:1027E000FFFFFFFFFFFFFFFFFFFFFFFFFFFFFFFFF9
:1027F000FFFFFFE800000000024809124290524823
:1028000000000000FFFFFFFFFFFFFFFFFFFFFFFFD4
:10281000FFFFFFFFFFFFFFFFFFFFFFFFFFFFFFFFC8
:10282000FFFFFFFFFE00000000000512000008008F
:10283000000000000004FFFFFFFFFFFFFFFFFFFF9E
:10284000FFFFFFFFFFFFFFFFFFFFFFFFFFFFFFFF98
:10285000FFFFFFFFFFFFF01000000000004000003E
:102860000000000000000000FFFFFFFFFFFFFFFF70
:10287000FFFFFFFFFFFFFFFFFFFFFFFFFFFFFFFF68
:10288000FFFFFFFFFFFFFFFFE500002142A4400024
:1028900000000000000000000000FFFFFFFFFFFF3E
:1028A000FFFFFFFFFFFFFFFFFFFFFFFFFFFFFFFF38
:1028B000FFFFFFFFFFFFFFFFFFFFF08910152DFA5D
:1028C000B048AA810850200000000000FFFFFFFF71
:1028D000FFFFFFFFFFFFFFFFFFFFFFFFFFFFFFFF08
:1028E000FFFFFFFFFFFFFFFFFFFFFFFFA420442DBF
:1028F0005AA9A5B7EA2F776DD40034000000FFFF76
:10290000FFFFFFFFFFFFFFFFFFFFFFFFFFFFFFFFD7
:10291000FFFFFFFFFFFFFFFFFFFFFFFFFFFFD115DF
:1029200022C4B6F77FFD7FFFDDB777F7D5AA000099
:10293000FFFFFFFFFFFFFFFFFFFFFFFFFFFFFFFFA7
:10294000FFFFFFFFFFFFFFFFFFFFFFFFFFFFFFFF97
:10295000C4404D156AADDFEFDAFDB76DADFEBFFFC8
:10296000EACDFFFFFFFFFFFFFFFFFFFFFFFFFFFFBE
:10297000FFFFFFFFFFFFFFFFFFFFFFFFFFFFFFFF67
:10298000FFFF52680345BFF77EF7FF56DAB7F7FF40
:10299000EBFBFF7BFFFFFFFFFFFFFFFFFFFFFFFFE3
:1029A000FFFFFFFFFFFFFFFFFFFFFFFFFFFFFFFF37
:1029B000FFFFFFFED4129ABF6AFFFBFDF5FD77ED26
:1029C0005FD7DEB7FDEFFFFFFFFFFFFFFFFFFFFF5A
:1029D000FFFFFFFFFFFFFFFFFFFFFFFFFFFFFFFF07
:1029E000FFFFFFFFFFFFA84004B55FDAEDF7D75701
:1029F000DAB7FB7DF5DFD6BFFFFFFFFFFFFFFFFF6D
:102A0000FFFFFFFFFFFFFFFFFFFFFFFFFFFFFFFFD6
:102A1000FFFFFFFFFFFFFFFF70145BAFF577DBEFFA
:102A20007DFD77FDF7DFDD76DDAFFFFFFFFFFFFF09
:102A3000FFFFFFFFFFFFFFFFFFFFFFFFFFFFFFFFA6
:102A4000FFFFFFFFFFFFFFFFFFFFE842045BFFDB2D
:102A50006EBDD6DFDFFF5D7B77DBF6FBFFFFFFFFA1
:102A6000FFFFFFFFFFFFFFFFFFFFFFFFFFFFFFFF76
:102A7000FFFFFFFFFFFFFFFFFFFFFFFFC000293742
:102A80006EF6BBEBBDB5FEFBF7D6DD77FD56FFFF5F
:102A9000FFFFFFFFFFFFFFFFFFFFFFFFFFFFFFFF46
:102AA000FFFFFFFFFFFFFFFFFFFFFFDFFFFFF80854
:102AB0008897B7DBEEBEF7FFB7AEDD5B57BEF7FB1F
:102AC000FFFFFFFFFFFFFFFFFFFFFFFFFFFFFFFF16
:102AD000FFFFFFFFFFFFFFFFFFFFFFFFFFFFFFFF06
:102AE000F201227DFFB6BBEBBEAFFFFBB6D5B5EB67
:102AF000ADB5FFFFFFFFFFFFFFFFFFFFFFFFFFFF82
:102B0000FFFFFFFFFFFFFFFFFFFFFFFFFFFFFFFFD5
:102B1000FFFFFD000906BAFBD6BEFBFDDFAEDB36CC
:102B2000EEBEFEDFFFFFFFFFFFFFFFFFFFFFFFFF28
:102B3000FFFFFFFFFFFFFFFFFFFFFFFFFFFFFFFFA5
:102B4000FFFFFFFFFF004050AFB6BDABAED7FDF5B6
:102B5000B6EB5BEFEDB6FFFFFFFFFFFFFFFFFFFFF1
:102B6000FFFFFFFFFFFFFFFFFFFFFFFFFFFFFFFF75
:102B7000FFFFFFFFFFFFFFEA020AAADBD6FB7B7F16
:102B800077AEDBBDEFBDB7FBFFFFFFFFFFFFFFFF32
:102B9000FFFFFFFFFFFFFFFFFFFFFFFFFFFFFFFF45
:102BA000FFFFFFFFFFFFFFFFFFFC90B4097EB5AE04
:102BB000D5AADDFBB6D77D6B7DDFFFFFFFFFFFFFF3
:102BC000FFFFFFFFFFFFFFFFFFFFFFFFFFFFFFFF15
:102BD000FFFFFFFFFFFFFFFFFFFFFFFE0012A4B795
:102BE000DEFB5EFFF6AD6AADD6ADB77BFFFFFFFF44
:102BF000FFFFFFFFFFFFFFFFFFFFFFFFFFFFFFFFE5
:102C0000FFFFFFFFFFFFFFFFFFFFFFFFFFFFAA0C1C
:102C1000094FF5AFF5AAAD6A955B7BF76DD6FFFF5F
:102C2000FFFFFFFFFFFFFFFFFFFFFFFFFFFFFFFFB4
:102C3000FFFFFFFFFFFFFFFFFFFFFFFFFFFFFFFFA4
:102C4000FFA26A15BFFDDFFFDB556AAAD555B77B2A
:102C5000FFFFFFFFFFFFFFFFFFFFFFFFFFFFFFFF84
:102C6000FFFFFFFFFFFFFFFFFFFFFFFFFFFFFFFF74
:102C7000FFFFFFE880A16B7BBFFF75AA956AAD5D82
:102C80006DAEFFFFFFFFFFFFFFFFFFFFFFFFFFFF37
:102C9000FFFFFFFFFFFFFFFFFFFFFFFFFFFFFFFF44
:102CA000FFFFFFFFFFE0200494844F6AAAAB775F29
:102CB0007BEBAB6BFFFFFFFFFFFFFFFFFFFFFFFFA4
:102CC000FFFFFFFFFFFFFFFFFFFFFFFFFFFFFFFF14
:102CD000FFFFFFFFFFFFFFF42A0001217ADB6DBD3C
:102CE000ADEAD6BEFABDFFFFFFFFFFFFFFFFFFFF0C
:102CF000FFFFFFFFFFFFFFFFFFFFFFFFFFFFFFFFE4
:102D0000FFFFFFFFFFFFFFFFFFDA1D102004AB6D89
:102D1000B6D6B7BF5BF757D7FFFFFFFFFFFFFFFF39
:102D2000FFFFFFFFFFFFFFFFFFFFFFFFFFFFFFFFB3
:102D3000FFFFFFFFFFFFFFFFFFFFFD5480D64409A9
:102D4000555555B5DD6AF6DDFB7DFFFFFFFFFFFF43
:102D5000FFFFFFFFFFFFFFFFFFFFFFFFFFFFFFFF83
:102D6000FFFFFFFFFFFFFFFFFFEFD57EA0024052F6
:102D700012B5B595544A6AAB5B76ADD7FFFFFFFF3E
:102D8000FFFFFFFFFFFFFFFFFFFFFFFFFFFFFFFF53
:102D9000FFFFFFFFFFFFFFFFFFFFFFD8AA8000003C
:102DA00002C155DEEEFAD529955AEEDDF77DFFFF1B
:102DB000FFFFFFFFFFFFFFFFFFFFFFFFFFFFFFFF23
:102DC000FFFFFFFFFFFFFFFFFFFFFFFFEF220000FE
:102DD00000000824064BBB5FAAD6EDB6B5AB55552F
:102DE000FFFFFFFFFFFFFFFFFFFFFFFFFFFFFFFFF3
:102DF000FFFFFFFFFFFFFFFFFFFFFF6E8951108006
:102E00000000000412A481402EF4FDBDBB6BD55A16
:102E1000B6F7FFFFFFFFFFFFFFFFFFFFFFFFFFFF13
:102E2000FFFFFAD853FFFFFFFFFFFFFFFAB2A40036
:102E30000000000000034AB2DAA4455A96C6EDAD80
:102E40005DCDAD55FFFFFFFFFFFFFFFFFFFFFFFF62
:102E5000FFFFFFFF6A80002FFFFFFFFFF7750008ED
:102E6000000000089202545AB5ED2552480D251D68
:102E7000B6D6D6BADBDFFFFFFFFFFFFFFFFFFFFF86
:102E8000FFFFFFFFFFFE8000000052AFFD56988855
:102E900000000004DAAC58A96AA6D6B6DDD7B44261
:102EA000DFF6DDBB7AD56D75FFFFFFFFFFFFFFFF8C
:102EB000FFFFFFFFFFFFFFFC00376D001550000014
:102EC000A2200000295B6AB352AAA95BB5AB56B138
:102ED000552F755DB6AED6AB5B5FFFFFFFFFFFFF03
:102EE000FFFFFFFFFFFFFF843050095DBAF00000D5
:102EF000000008000005AFD555555555AAAADF7D3D
:102F00007DEAB5DADFF6DDDB7B54E6FDFFFFFFFF90
:102F1000FFFFFFFFFFFFFFFFFF000001FFFFF7DEE6
:102F2000800008000188CBFF7AA52AAB6AD6655AD3
:102F3000B4D7D55DEAB7B6EDF776D6AB5DABFFFF9C
:102F4000FFFFFFFFFFFFFFFFFFFFFF800003FFFD0D
:102F5000BB6BEA0ABB7411FF7D6AD6554AB4955B18
:102F6000BDA54B5557F75FFFFF7F5DADAB55B6BDB8
:102F7000FFFFFFFFFFFFFDFFFFFFFFFFFF80449FFD
:102F8000F7FFEFFFFABFF7AB6FB5DFDFB5AADBAD39
:102F90006955555554AAADBDF6B7ADD5F6AAA85595
:102FA0006DEBFFFFFFFFFFE11295FFFFFFFFFFF655
:102FB000105FFFDB7EF5BFEFBEFEBAD76D6ADAB5F4
:102FC000B6DB56D54D555554DED6DBDAF77F5B754B
:102FD00055AAAAADFFFFFFFFF41004A42FFFFFFFC7
:102FE000FFFF03B7FEB6DBAF7AFB7FDDEF7DDBFED5
:102FF000AD6D6AAAB56AB2AA9A8B75B5B6B7BDDBD4
:10300000F6D552295BAAFFFFFFFE0010803682FF33
:10301000FFFFFFFFF0DAFBDB6EFDAF5FDB76B5D7BE
:103020006D5BF7B6AB55ADAEAEDBF77D56DD5B6ADB
:10303000D76D5AB6A94AAD76FFFFFFF5401824AF09
:10304000683FFFFFFFFFFD05EFFFDBAB7BF6F7DD22
:10305000DEBADFF6ADAB6ED6CAB5B5B55AD7FBB69C
:10306000D6D6BDDADFD5AAB5EB5BFFFFFF80004007
:1030700002A95A8FFFFFFFFFFFA0B7FFFFFDED5B27
:103080005D776BEF755BFEEDA97D7ADB56554B7D69
:103090006EEBB555AB55555AD5535D6DFFFFFE5FD1
:1030A000EFF800AA7743FFFFFFFFFFD8097FF6FF85
:1030B0005BF6F7DDFEBBDFFFF7B77FEF57AADDEB6F
:1030C00075DBDBBD55555AAA977556ADB7DBFFFFCB
:1030D000FDFFFFFC022B33B9FFFFFFFFFFFF40AFF7
:1030E000FFFFFD5B5B77AFFFFFFEFEFBAF75FEFFF3
:1030F000F6ADDF6F76D75524AAA248AD59B2DAEF04
:10310000FFFFFFFFEFFE00944206FFFFFFFFFFFF00
:10311000E2FFFFFED016F6DAFBDD757BD7DEFBDFC4
:10312000ADAA009AB5DADDB4D555554892AAA64D98
:1031300057BEFFFFFFFFEFFFE851F8E83FFFFFFF3B
:10314000FFFFFFFFFFFFF11B5B6F6EF7DFDF7D6BA4
:10315000AD76F6FE040FDF6F6AAB6AAAAAA24AAA8E
:10316000A952B6F7FFFFFFFFEFFFFFFFFB17BFFFFF
:10317000FFFFFFFFFFFFFFFFF83FF6DADBAD6AB6A8
:10318000D7DEFBDDADAC090D75DADAD555555554F2
:1031900095AAAAB56DBDFFFFFFFFFFFFFFFFF7EF89
:1031A000DFFFFFFFFFFFFFFFFFFFF87FFFFFFFFFD6
:1031B000FFDF7D75AD76F6F60417DEB7B6B4AAAAC2
:1031C000B2AAAAB5554AB5D7FFFFFFFFEFFFFFFF31
:1031D000FFFFEFFFFFFFFFFFFFFFFFFFF87FFFFF96
:1031E000FFFFFFFDDFDF7BDDADAC101D75ED6DABCF
:1031F000B6DAAD5556D5AAB5DF7DFFFFFFFFFFFF5D
:10320000FFFFF7FFFFFFFFFFFFFFFFFFFFFFF8FFDD
:10321000FFFFFFFFFFF6000FED36FEF60417DFBBE2
:10322000B6BAD52ADA56AABB6DDB75B7FFFFFFFF2A
:10323000EFFFFFFFFBFFFFFFFFFFFFFFFFFFFFFFB2
:10324000FAFFFFFFFFFFFFF0000BC07FC12A001550
:1032500076AEEDEFBDF777FB5EEED56EDF6DFFFF6F
:10326000FFFFEFFFFFFFF7FFFFFFFFFFFFFFFFFF86
:10327000FFFFF87FFFFFFFFFFFF4800DB43FF4ABCB
:1032800000295E5396AAEAAD5AAAEBBB7FBB75B77D
:10329000FFFFFFFFFFFFFFFFFFFFFFFFFFFFFFFF3E
:1032A000FFFFFFFFF8FFFFFFFFFFFFEAA00B402E2D
:1032B000E914084B7E177DEFBFFFFFFFBEEFD56E11
:1032C000DFFFFFFFFFFFEFFFFFFFF7FFFFFFFFFF46
:1032D000FFFFFFFFFFFFF87FFFFFFFFFFFEE12156D
:1032E000D01FBC9704E03E2BF4B5FFFFFFFFFFFDAE
:1032F0007FFFFDFFFFFFFFFFFFFFFFFFF7FFFFFF68
:10330000FFFFFFFFFFFFFFFFF97FFFFFFFFFFFFA58
:10331000A0B6943FCA6A01D17E57ABCBFFFFFFFF37
:10332000FFFFFFFFFBCAFFFFFFFFFFFFFFFFFBFFEA
:10333000FFFFFFFFFFFFFFFFFFFFF93FFFFFFFFF63
:10334000FFFEAA0AE00FF52F08EDBE2BF77BFFFF6B
:10335000FFFFFFFFFFFFFC02FFFFFFFFFFFFFFFF7D
:10336000FFFFFFFFFFFFFFFFFFFFFFFFF13FFFFF3B
:10337000FFFFFFFFC015883FBDEE11DAAE07EDCFAE
:10338000FFFFFFFFFFFFFFFFE800FFFFFFFFFFFF63
:10339000FFFFF7FFFFFFFFFFFFFFFFFFFFFFFBBF89
:1033A000FFFFFFFFFFFD200DE41FEAFD014ABE13F2
:1033B000F6B7FBFFFFFFFFFFFFFFF400FFFFFFFF7C
:1033C000FFFFFFFFF7FFFFFFFFFFFFFFFFFFFFFF15
:1033D000F3DFFFFFFFFFFFF0800BD02CBBFD11B52B
:1033E0005E277DF7F7FFFFFFFFFFFFFFC000FFFF36
:1033F000FFFFFFFFFFFFFBFFFFFFFFFFFFFFFFFFE1
:10340000FFFFF3DFFFFFFFFFFFF80001E02FD57F95
:1034100010DBAE039ADFFBFFFFFFFFFF7FFFFA0029
:10342000FFFFFFFFFFFFFFFFFFFFFFFFFFFFFFFFAC
:10343000FFFFFFFFF3DFFFFFFFFFFFFE0002881F1C
:10344000FCDF01D67C2F7F6FABFFFFFFFFFEDFFFAE
:10345000D020FFFFFFFFFFFFFFFFF7FFFFFFFFFF92
:10346000FFFFFFFFFFFFE7CFFFFFFFFFFFFF200290
:10347000A00FB7AF20B59E03B5B3A3FFFFFFFFFFBB
:10348000AFFFEE00FFFFFFFFFFFFFFFFFFFFFFFFAC
:10349000FFFFFFFFFFFFFFFFE7EFFFFFFFFFFFFE65
:1034A000C007881EECAD11EEFC077FAF41FFFFFFA8
:1034B000F7FD5FFFD425FFFFFFFFFFFFFFFFFBFFCF
:1034C000FFFFFFFFFFFFFFFFFFFFE7D7FFFFFFFF4C
:1034D000FFFFD407E00FFE8F005ABE53BF7703FFF4
:1034E000FFFFDB7FEFFFFC20FFFFFFFFFFFFFFFF82
:1034F000F7FFFFFFFFFFFFFFFFFFFFFFCFDAFFFF39
:10350000FFFFFFFFFFF1001F592A20F6FC017F4F4C
:1035100003FFFFFFAFEF7FFFFC48FFFFFFFFFFFF51
:10352000FFFFFFFFFFFFFFFFFFFFFFFFFFFF9FDB2F
:10353000BFFFFFFFFFFFFFF7C80D6E8B00DFFC0131
:103540005FF701FFFFFEFABFBFFFF064FFFFFFFF61
:10355000FFFFFFFFF7FFFFFFFFFFFFFFFFFFFFFF83
:103560001B9DDFFFFFFFFFFFFFF7FB9FB96E087F8B
:10357000FC12BFEF6BFFFFFFDFF23FFFC088FFFFD2
:10358000FFFFFFFFFFFFFBFFFFFFFFFFFFFFFFFF4F
:10359000FFFC3FDFEFFFFFFFFFFFFFF809CFFFD288
:1035A0000C7FFC009DB72BFFFFFFF5BD5FFF00C048
:1035B000FFFFFFFFFFFFFFFFFFFFFFFFFFFFFFFF1B
:1035C000FFFFFFF877EEF7FFFFFFFFFFFFF00BE5D0
:1035D000FFFE087FFC12B2F6417FFFFFEFFF2FF0E6
:1035E0001900FFFFFFFFFFFFFFFFF7FFFFFFFFFFD8
:1035F000FFFFFFFFFF117FE773FFFFFFFFFFFFE00C
:1036000003FFBFF60C3FE0014C5F00BFFFFFF23746
:10361000A1C0F080FFFFFFFFFFFFFFFFFFFFFFFFE5
:10362000FFFFFFFFFFFFFCE77F562CBFFFFFFFFF01
:10363000FFF003FFC1FC1C3FE002D9AF017FFFFF99
:10364000CDF54E076000FFFFFFFFFFFFFFFFFFFF0D
:10365000FFFFFFFFFFF7F7B3E3CFB7D2476D7FFF61
:10366000FFFFFFF201FC39D60E3FE0011ADF42BF37
:10367000FFFFA84FDA05B000FFFFFFFFFFFFFFFFCE
:10368000FFFFFFFFFFFFFFEFF8E9B79F2B609C7F75
:10369000FFFFFFFFFFFC003805FC1F3FFE00175E29
:1036A00000FFFFFFD3B5306A7000FFFFFEFFFFFF92
:1036B000FFFFFFFFFFFFFFFFFFFF7626FF3F6DAA23
:1036C00042BBFFFFFFFFFFFFF00095EC1F1FFFF85D
:1036D00001B7007FFFFFBF6AF1B12640FFFFFBFF8C
:1036E000FFFFFFFFFFFFFFFFFFFFFFFBD741EE7E66
:1036F0004151A5CDBFFFFFFFFFFFFE0005F93F9F32
:10370000FFFF805E00BFFFFF7EAB62AAE410FFB741
:10371000FFFFFFFFFFFFFFFFFFFFFFFFFF7D3160A8
:10372000897F54040F775FFFFFFFFFFFFFF814FC52
:103730003FDFFFFFF80F01B6FFFFDD5DF555240009
:10374000FFFFFFFFFFFF7FFFFFFFFFFFFFFFFFD236
:103750004E4A167760CCDABEFFFFFFFFFFFFFFFF88
:1037600001E93FCFFFFFFF02075FFFFFB36F176A5B
:10377000C428FFFFFFFFFFFFFFFFFFFFFFFFFFFF6B
:10378000FF5D648A8E3EAA9342FAFFFFFFFFFFFFB0
:10379000FFC084F87FCFFFFFFFE0117DBFFFEDAEDC
:1037A00076B59E71FFEFFFFFFFFFFFFFFFFFFFFFFB
:1037B000FFFFFE292902216BC554BFDBBFFFFFFFBE
:1037C000FFFFFFF001F87FEFFFFFFFF000FFFFFEBC
:1037D0005B55AEAD1471FFFFFFFFFFFFFFFFFFFF63
:1037E000FFFFFFFFFFA56AE00A8EF49BFFEDFFFFDE
:1037F000FFFFFFFFFFFF00F87FE7FFFFFFFD407FB8
:10380000EFFF2B716AE65C38FFFFFFFFFFF5FFFF5C
:10381000FFFFFFFFFFFFFF56DD90A4BBBBB7FFFE1E
:10382000FFFFFFFFFFFFFFFFE0F07F67FFFFF7FDF8
:10383000521FFFFE92D754BCB468FFFFFF7FFFFF0B
:10384000FFFFFFFFFFFFFFFFFD9BEF8496D5EDFB22
:103850007FFFFFFFFFFFFFFFFFFFFC30FF87FFFF42
:10386000EAFF4907FFFD51295354D42CFEFFEBED2D
:10387000FFFFFFBFFFFFFFFFFFFFFF75F3B3D7DFC2
:103880007FBEDF7FFFFFFFFFFFFFFFFFFF00FF4364
:10389000FFFFD53FD561FFFEAFCEEEE9546AF7FFDB
:1038A0007EFFFB7FFFFFFFFFFFFFFFFFFFD7FCBD9A
:1038B000EEFDFFFBD7FFFFFFFFFFFFFFFFFFFFE175
:1038C000FF21FFFFECD7F490BFFFB7B6BEB3B42A19
:1038D000AD7FDDBFFFFFFFFF7FFFFFFFFFFFFFADFE
:1038E000FF73FFFACF7FFFFFFFFFFFFFFFFFFFFF29
:1038F000FFE07F01FFFFD35FFD4C3FFFEF456B64AF
:10390000AA56D7ADEFFFFFFFFFFFFFFFFFFFFFFF4F
:10391000FFFFFFFFFFD87FEEF7FFFFFFFFFFFFFF77
:10392000FFFFFFE00F003FFFED7DDD0237FFFD559C
:1039300055C7942BB6EDFFFFFFFFFFFFFFFFFFFF13
:10394000FFFFFFFFFFDEBEE51F8FDFFFFFFFFFFF73
:10395000FFFFFFFFFFC0C3C64FFFC0EFB8A0BFFF10
:10396000FAA9553F6A52DB97FFFF7FFFFFFFFFF782
:10397000FFFFFFFFFFBEB2BAFFF46EE1FFFFFFFFE4
:10398000FFFFFFFFFFFFFFC6F8EE63FF257FFE2866
:103990001FFFFEABAF2FAB15A57F7DFFEFED7FFFC8
:1039A000FFFFFFFFFFFFFFEA8787FEEBD93FFFFF27
:1039B000FFFFFFFFFFFFFFFFFF86FF0F39FE88DFDE
:1039C000EC8237FFFB6B6D76AA6A9215BF7DBEB79E
:1039D000BFEFBBFDFFFFFFFFFFEEB1A9DFF7CAEFAF
:1039E000BFFFFFFFFFFFFFFFFFFFFFA6FFC7BC7E7C
:1039F0002254BC401FFFFDBCD553AC158092D5EFBF
:103A0000F5ABF7FD6FEFFFFFFFFFFCCD59AFDF7F99
:103A10003FF7BFFFFFFFFFFFFFFFFFFFFF0EFFC9E5
:103A20009F3E84B7DC085BFFFBCB965DED1F8005F6
:103A30002AB6AA5FFFF7BAFB7FFFFFFFFFFE22FF58
:103A4000F7FD85FDFFFFFFFFFFFFFFFFFFFFFE0EFE
:103A5000FF9E0F8E515576A21FFFF4757F6EB08EBC
:103A6000801045A949FFFD7EEFBAFFFFFFFFFF5F12
:103A70006FEF6FF227FFEFFFFFFFFFFFFFFFFFFF7B
:103A8000FC1E3F1FCDC68B555C001DFFE5AB52CA27
:103A9000651A800554202F7FF7BFBDFD7FFFFFFF14
:103AA000FFBFA7ED6FF9CEBEFFFFFFFFFFFFFFFFD8
:103AB000FFFFC03EDF8FE773E9557EAA1FFFFA6A5A
:103AC000FC9CA3AA800001032BC24DA4EF79FFFF49
:103AD000FFFFFF771B967B541F7BFBFFFFFFFFFF62
:103AE000FFFFFFFF803EEFCFF3F9BE4BE4081FFF5F
:103AF000FFDDB125494A8800040054797EAA15DF0C
:103B0000FFFFFFFFFFFFFE9007EB7BB7FFFFFFFF0D
:103B1000FFFFFFFFFFFF80FDF7E3FB84CF23F000F3
:103B20001EFFFFFADE9554AA800040005941028131
:103B30004B723DFFFFFFFFFFFB423FB6DEFFBFFFC3
:103B4000FFFFFFFFFFFFFFFF01FEFBF3FBBEFE4B8E
:103B50005D0039FFFFFFFB252B858002120B25043A
:103B60002D4024CCAFFFFFFFFFFFF7605FF5FFFBA9
:103B7000FFFFFFFFFFFFDFFFFFFE40F6FBF97DFFCA
:103B80003EB7FF400F3FFFEFFE42B5BE9012146AF2
:103B900010012A1499DBBFFFFFFFFFFFFCD5DF57A1
:103BA000FFEFFFFFFFFFFFFFFFFFFC044CEFFDC92E
:103BB000ECFC2D41FFF81CFFFFFBFDDA8A72950536
:103BC000D14C84092B006D6DBFB7FFFFFFFF3E5F37
:103BD000FFEABFFFFFFFFFFFFFFFFFFFF0005CFEFC
:103BE000FDEDF01F5EBF5FFF052FFFFFB572555261
:103BF00080552A0120A28802AAD77B7FFFFFFFFF02
:103C00005ABFFFDFEFDBFFFFFFFFFFFFFFFFC3E058
:103C1000FCDEFF7879734715AFFFA14DDFFFA55498
:103C2000A944914AC880001220C6255AADDFFFFF83
:103C3000FFFEFEFF7FF7FFF7FFFFFBFFFFFFFFFE2B
:103C40001FE1DC8FF99E3163F0C0DBDFFC12FFFF68
:103C5000F54D4432945102000104890892A8FB7F7B
:103C6000FFFFFFFFBDBCEDFFFFF7FFF3FFDAF3EA55
:103C7000FFE4FFC3DCBEDE604E1851FEBA7FFF08D2
:103C8000EBFFED1A91F284A2280088894235095889
:103C90002EFFFFFFFFFFEDFFFF5FFFFFFFDBF9F9E7
:103CA00038603FE1FF87EC3CCF64C8CDF75FCD2A99
:103CB000DFC13FFFFEE7C5E090580083208A1094E3
:103CC0002AA8FBFFFFFFFFFFFF775EFFFFFFFFE775
:103CD000F7FAAEE8FF847F0FFCD43FF031098C6B1C
:103CE000E6DF3FF06DFFF7DC182B9B7280140811A4
:103CF00092A401286FFFFFFFFFFFFFEDEBFFFFFF27
:103D0000FFF373FCC6D6C67EFF1FEC110E1C0C031E
:103D1000A47F696FFFE83AFFEDF03C94F650082964
:103D200055402200816B3FFFFFFFFFFFFFFD5FBF9C
:103D3000FFFFFFD7EFD729C441FFDC3F78C79E05BF
:103D400006D2650EDE535A871FBADB837929E50454
:103D50000020802005500551BFFFFFFFFFFFFFFF40
:103D60007FFFFFFFFFF9FBF1E0B1BFFFFC7FF8F140
:103D700083E19180155FAF5DFE3FC6EF7C0FAEAE75
:103D8000AD11100228802104BFD7BFFFFFFFFFFF46
:103D9000FFFFFFFFFFFFFFFE7123DC013FEFF87F16
:103DA000E8682C741265FED5ABB2B5FFE3BBE07FCB
:103DB000D64DDA408109556915515F73DFFFFFFF6A
:103DC000FFFFFFFFFFBFFFFFFFFEDF1C4E8C06C79C
:103DD000E0FFFC4010821F3495F2CCDF5BFFF8EE71
:103DE00081FB567580000222929BEA4B56E78FFFBB
:103DF000FFFFFFFFFFFFFFF7FFFFE07D1BDD1990D7
:103E00000E0442FFF18487044616FFA7B95CAFFF9A
:103E1000FC380FEFF8AEA100148A6D6FB52C91CB72
:103E2000B5FFFEFFFFFFFFFFFFFFFFFFF7F4C164D9
:103E3000338039078E7FF49240804182D1FA79D362
:103E4000FFFFFE003FFFF8F78248841492094812F2
:103E50002F1BBF7FFFFBFFFFFFFFFFFFFFFFFFB039
:103E60009251C50CD1045CFFFDA80161E1955D1F75
:103E7000DEFFFFFFFF01FEF7F3CF80000041694244
:103E8000A54BF61FDDBFFFDFEFFFFFFFFFFFFFFFCB
:103E9000BC87404B5264012060FBFAA09B52F9C7DB
:103EA00034DF2B7FFFFFFFCFFFF8B7658842401458
:103EB0000C9D5207C99B49ABFDFFFFFFFFFFFFFFB2
:103EC000FFEFEEA80D96D082484AF2F8EB52279405
:103ED000159D5BBDB2DBFFFFFFFFFBAF492BA528A4
:103EE0002040A2601929B3CDA025BFFFFFFFFFFF2F
:103EF000FFFFFFFFC25493C1190C610FD27EF34A3A
:103F0000C2891ACA27DE1A5DFFFFFFEF7E5FF7D76F
:103F1000DA568D155E90665F2F11052B6FEFFFFF50
:103F2000FFFFFFFFFFFF94A530C482108A44867F05
:103F30001712309E71A0FFACE5FF7FFFFFFBFBFB7C
:103F4000BDA5A9D27DD54956FA9FD7C08056977F87
:103F5000FFFFFFFFFFFFFFFE5248982E284024403E
:103F60004AD77B6A5821F59FFBBF92BFBFFFFFED89
:103F7000FFACEFB792815BA6B52CAA2C46D22AAB38
:103F80007BFFFFFFFFFFFFFFFFFFE8922E5157006F
:103F900040208881FBD04F1B563F5FEFAFDF7FFF94
:103FA000FFBBDF7FDB6DCA6528005AA7B6A112A947
:103FB00025FE9FFFFFFFFFFFFFFFFFFFCA4911E53F
:103FC0002FE1101025BB57BBE34E8BEFFFF7B7FF78
:103FD000FFFFFFD5FFCF64B3BE8D52A5B7DA5A906D
:103FE000556ADBFFFFFFFFFFFFFFFFFFFFFFB1523F
:103FF000659E72400C86CC0EF7B4869CFDFFFDFEDC
:10400000EEBFFFFFFFD7FFBFDF2DBEA10A95CFF5A3
:104010006CAF6FBF777FFFFFFFFFFFFFFFFFFFFF6B
:10402000FD0D9FDA972800CD525D77BB56A5FF7B2B
:10403000FE7DEB7FFFFFFFADEBFF65B2C98540332F
:1040400077AAABEFFA6EFEBFFFFFFFFFFFFFFFFF98
:10405000FFFFB0AB2FBDAE060D31C6FB9D33BEFCDE
:10406000BBFFBFFF9CFFFFFFFFEB5D7AB94CAFEAE0
:10407000604DF8DAAAF7FC8F97FFFFFFFFFFFFFF05
:10408000FFFFFFFF4A54D7C7EC44908A7DEDABF9A0
:10409000BFBFAFEFFFFFFFFFFFFFFFFBD5ED66A246
:1040A000AFABF752D752A52DED294FFFFFFFFFFF12
:1040B000FFFFFFFFFFFF12C77FB5FCAAAD298B5C96
:1040C000EF77EB7F7D5FEFF7F7FFFFFFFFFAABDAEC
:1040D000BC99D5555B48BD551296B6EAFD7FFF7F6A
:1040E000DAB7BFFFFFFFFFFFFC38357ABC814F9185
:1040F000FDA7DEF9E6EEFAE7FFDFFFFFFFFFFFFFB8
:10410000697DB74DAD6B6EAFE95725B6EC85FBEB1E
:104110007ADFFF57FFFFFFFFFFFFF17977D2EB7CDC
:10412000C6EDF3BBD97FFECBEAEBF5BF7FFFFFFF08
:10413000FFFEDFD565B79495A37BD6ABD7BB5A05F9
:104140006EBFB56F3CD96DFFFFFFEFFFFDE6FFFAD5
:10415000EB7C3FEF6FFBB77FEE7EADCC3EDBFFFF2E
:10416000FFFFFFFFF56ABAABB95B7ADF555D9602D8
:1041700064B76BDFEEAAFB6FDBEFFFFFFFFFF28F91
:10418000BFBE979FBD93DBFBDFFFEAFF5EBB7FF502
:10419000FFFFFFFFFFFEEFD76AFBAD656D2AAF3F64
:1041A000FB01FEAEDD7FF555ED5AFF77FFFFFFFF08
:1041B000F4272FFEAAFF7FDFBBEF0B27FBFEFFA933
:1041C000FFFFFFFFFFFFFFFFBB6AFB75AB1AAA559E
:1041D0005AEF78DDFE4FF7FFAA5ABB57ADFFBFFF7E
:1041E000FFFFFBCA7E7BBCE057FBFBF6A789FEFF07
:1041F000FFB6F3FFFFFFFFFFFFFFEEBFDD55A4D5C6
:104200006969AB558E7B7FFFD5FFD544DDEDFFFEA1
:1042100077FFFFFFFF4BD7EBF5FF5FBFFFFF54EAD0
:10422000F9EBEFDE57FFFFFFFFFFFFFE75CB755584
:10423000CBAA9556DFDF39F2A7EDAFDFB297AAD64A
:10424000DDFFFFFFF7FFFEBEFDDF7FFF7DFBFA8294
:104250004BFFFFC7E3FD7FFFFFFFFFFFFFFDEEBE4C
:10426000FD57955AAD526557F65ED5B6BAFEEA4986
:1042700035BF75EDFFFFFFFFFEFFFFFF7EFDBFFFB8
:10428000F7F8082DFD71FBBFFFFFFFFFFFFFFFFFEA
:10429000DB6BD6B3A542ABF5BFFFFFE8FDD5AFB7EB
:1042A0009897CB7BB7EBEF5FFFFFEFFFFF76FD9BB0
:1042B000F63EFBEDB347F3CEFFBFFFFFFFFFFFFF6F
:1042C000FFFEF7BFB6DF91AD6A7B575FFFAAEEEA4C
:1042D0003BFB6510A48CE9BD77FFFFFFF7FFF77587
:1042E000EF9FE69797E5902FFB83DF93FFFFFFFF9C
:1042F000FFFFFFFFFED7C97FAA5B557EFD7FFFBF93
:10430000AF15EEBAB4456B7BAF7BFFF55FFFFBFFEC
:10431000E3F5E9B10FFFF7D96277FE63CBF3FFFF57
:10432000FFFFFFFFFFFFFFEF77FF95CDB776FADEC8
:10433000FFD9EDF5BEEED093D4D7D5FED7DEEFFF93
:10434000BEBDD430661B5EFF7BE931EDC3702FFF2D
:10435000FFFFFFFFFFFFFFFFFFDDFFFFAAB3557F5A
:10436000F7FFFFDFA96D7AB546054BAD76AB7FFD54
:10437000BFFFAFC9FC960C35FE6D76EC13BABDBC21
:104380007FFFFFFFFFFFFFFFFFFFFFF7FFFFD67875
:10439000FD7D6DF5FFF6B55BAF6EBAAABAEDAB7DEC
:1043A0003FD7EFFE7BA38200AF022FBEFBDA7DD5A5
:1043B000C72FFFFFFFFFFFFFFFFFFFFFFFFFFFFF15
:1043C00095A752FFDB7FFDC67BD6D5554315E2BAD4
:1043D000FE9BEDDFFFFBFB7E08C1FD927F3FF7F107
:1043E000F78D05BFBBFFFFFFFFFFFFFFFFFFFFFFD5
:1043F000FFFFD395F5BEEDFFFF7BBEABEADBAC93D1
:10440000BD7FDAE6AFEFFFFF2F67C8D81DA33FDF00
:1044100073B9FCD2F9E97F29FFFFFFFFFFFFFFFF20
:10442000FFFFFFFFAEEB5DB5FFFFFFDFEAEB52A53D
:1044300071557AD6B5DDFBE7FFFF7ECF36F09937B1
:10444000BFB7777B6F73F7E4EE3FFFFFFFFFFFFF20
:10445000FFFFFFFFFFFF959DE72BFFFEFFFDFED552
:104460005CBD9D0AF9DADAAAAD6FFFFF0F3BF41AC3
:1044700007DFD7DBBBFFA73FBBBF7FFFFFFFFFFF10
:10448000FFFFFFFFFFFFFFFFAD6AB6BFFFFFFFEBC0
:104490004DAAD35562577775A7AADBEFFFFDEF5EF4
:1044A0004105BFA6FD9C5FBB78873DFFDFFFF7FF9F
:1044B000FFFFFFFFFFFFFFFFFFFFADAB5ADFFFFF77
:1044C000FFFFB6ECAD2AA523BBDA9AB766EFFFFF74
:1044D000D7BEA080BEFBEF55DAF95A99C79FCFDF50
:1044E000FFFFFFFFFFFFFFFFFFFFFFFFBB56AD7F9B
:1044F000FFFFFFFBED5B7955494D756526CDBADFB2
:10450000FFF76973E7BBEBD7EEE1FF730680BFEF00
:10451000FFF5FFFFFFFFFFFFFFFFFFFFFFFFEBB513
:10452000D5FFFFFF7FECD5A4AEAB5491BB58D57A35
:10453000EF7FFFFF1D3BD9F5CFBFFFDBFFFD84C041
:104540007FF7EFBEFFFFFFFFFFFFFFFFFFFFFFFF54
:104550009D6B5FFFFFFFDEFFF55FDA56D35756AA6C
:10456000B5B757FFFFFFE55FB981BFD7FAD3FFCCDF
:104570005C75F9FCFB7DFFFFFFFFFFFFFFFFFFFF07
:10458000FFFFADB55FFFFFFFF55AAD556B5B6D5992
:1045900066AAAAABE8FFFFFFF07FFE15FDC741EA60
:1045A000CCDA2D27C67FFDEABFFFFFFFFFFFFFFF2D
:1045B000FFFFFFFFBB4D7FFFFFFFD2B57B6D555661
:1045C00056AE5D255ADFCAFFFFFBEAF3A969FDB9C4
:1045D0002A4AF9BC83079DBF7DFFBFFFFFFFFFFF96
:1045E000FFFFFFFFFFFFBDA6FFFFFFFF5FFFEDD651
:1045F000EC95EABBE7D9295FFFFFFFFFCBF2F4B4EC
:10460000FB16F5FBBAD6134BEDBB37FF5FFFFFFF81
:10461000FFFFFFFFFFFFFFFFAADDFFFFFFFFD5FE4C
:10462000F6ACA92D55DEDAA24AB7FFFFFFFF77E708
:10463000FD5D691040FB75A8E07BF9BF7FF7EFFFD8
:10464000FFFFFFFFFFFFFFFFFFFFAB66FFFFFDDF89
:10465000B75B7F53AAB2AF6FCB7524ADFFFFFFFFEF
:10466000EFFFBE7D164500007A553CBCFBBDFED772
:104670009FFFFFFFFFFFFFFFFFFFFFFFEEDDFFFFDD
:10468000F6D7AAF6DDAEA9555ABFDB4A4BFF7FFF2E
:10469000FFFFFFFFFFFFEC204437ECB54BCF7B9BC8
:1046A000FDFFFFFFFFFFFFFFFFFFFFFFFFFFBFBE9D
:1046B000FFFFFB7BB55AF7554AB6D5B7ADD52A975C
:1046C000FFFFFFFBFFFFFF6E3290623FFEB963F713
:1046D000ACACE7FFFFFFFFFFFFFFFFFFFFFFFFFFA8
:1046E000BB2BFFFFFF56EB557DAB52AD956D3B2AC3
:1046F000D57FFFFFFFFEFFFBF6F5D80408B3FCC231
:10470000DFBFFBFEDF5FFFFFFFFFFFFFFFFFFFFFDE
:10471000FFFFEEF5FFFFFF5215B756D55696E5574A
:10472000DEEED4B7FFFFFFFF7FFFFF78DAE24997A5
:10473000DEFD5EF9F7FFAFBFFFFFFFFFFFFFFFFFEB
:10474000FFFFFFFFDFD5FFFFF8550AAA9DA9292B20
:104750005ABEBDBD4AAFFFFFFFFDF7FFFFDB53CAE7
:104760000A2FFE78A696EFF75F7FFFFFFFFFFFFFA0
:10477000FFFFFFFFFFFFB555FFFFFF5441BD57553A
:1047800044ADED5B5F77A55DFFFFFFFDDFFFE7E772
:1047900021A40DBFFD5B1BFFFFEBBFFFFFFFFFFF72
:1047A000FFFFFFFFFFFFFFFFED55FFFFFCA9402BC1
:1047B0002B452A56EAF77AEF53FFFFFFFFFFCDFFA5
:1047C000DDDE4A25FBDFF9057BFFFFDDBFFFFFFFD5
:1047D000FFFFFFFFFFFFFFFFFFFFB283FFFFFE555D
:1047E000018495AAA94BBD5B3D6984AFFFFFFFFE25
:1047F000EFFFBEFAC6B5EBBFFDD57D9FFEF7DFFF2D
:10480000FFFFFFFFFFFFFFFFFFFFFFFF8647FFFFE9
:10481000FEAA1FF14B4A52BAF6BEEF52A5FFFFFFA8
:10482000FFFDFFFF34BF95BFBF6DFFFD6B7AFFFF3C
:10483000FFFFFFFFFFFFFFFFFFFFFFFFFFFF9147AE
:10484000FFFFFF10FFFE555289575D5BBEE5527FAB
:10485000FFFFFFFFF7FFF0F7C89AF5FFFDCD81DB03
:10486000FFF6B7FFFFFFFFFFFFFFFFFFFFFFFFFFA9
:10487000C00FFFFFFFD7FFFF7F2CAAADFAD6B7CB43
:1048800045FFFFFFFFFFFEFD6B8D637FFFFFFDAA6E
:104890003FD3DFC7EFFFFFFFFFFFFFFFFFFFFFFF7C
:1048A000FFFFA03FFFFFFFFFFFFFD6D352B7EE96FB
:1048B000AB6CC7FFFFFFFFFFFFFFB0DAD73FFFFF83
:1048C000FF2D7FF7FFD40FFFFFFFFFFFFFFFFFFF6D
:1048D000FFFFFFFF88FFFFFFFFFFFFFFCDAE6AADC9
:1048E000F52CDAEBB7FFFFFFFFFEFFE7CF5DA5BFBB
:1048F000EDF53F4DFFFFFF597FFFFFFFFFFFFFFF7C
:10490000FFFFFFFFFFFF8BFFFFFFFFFFFFFFF6AB88
:10491000AD57DD556F2AC7FFFFFFFFFFFFFFA7FF62
:10492000957FFDF7D7EF7FFFDFFCFFFFFFFFFFFF66
:10493000FFFFFFFFFFFFFFFFAFFFFFFFFFFFFFFFD7
:10494000E1F6555FAC525AED97FFFFFFFFFFFFFF07
:10495000C8FD3F5D12D7EFFDFFBFFFF1FFFFFFFF77
:10496000FFFFFFFFFFFFFFFFFFFFFFFFFFFFFFFF57
:10497000FFFFE0ADD2A9B76CBA252BFFFFFFFFFF09
:10498000FFFFFEFF5A7FCFEB7FFFFFDFFFFDE7FF5B
:10499000FFFFFFFFFFFFFFFFFFFFFFFFFFFFFFFF27
:1049A000FFFFFFFFE06AADBFED4145E957FFFFFFA5
:1049B000FFFFFFFFFC7F1AEFEBFED76FFBBFFFFA95
:1049C000FFFFFFFFFFFFFFFFFFFFFFFFFFFFFFFFF7
:1049D000FFFFFFFFFFFFF015D557F6A0BB5493FF75
:1049E000FFFFFFFFFFFFBFE39DF773E7092FFFFF07
:1049F000FFF7FFFFFFFFFFFFFFFFFFFFFFFFFFFFCF
:104A0000FFFFFFFFFFFFFFFFF40B576FDC22E28980
:104A100027FFFFFFFFFFFFFFDFC677FFFA5FF3FF10
:104A2000DFF7FFFFFFFFFFFFFFFFFFFFFFFFFFFFBE
:104A3000FFFFFFFFFFFFFFFFFFFFF10035B5FA802B
:104A40005077B3FFFFFFFFFFFFFFFFDBF9F1FE7DB4
:104A5000F5FFFFBFFFFFFFFFFFFFFFFFFFFFFFFFB0
:104A6000FFFFFFFFFFFFFFFFFFFFFFFFFA80D24BBB
:104A7000B1482A0D47FFFFFFFFFFFFFFFBFFF37762
:104A8000B5CDFFF6FDFFFFFFFFFFFFFFFFFFFFFFBD
:104A9000FFFFFFFFFFFFFFFFFFFFFFFFFFFFFA40EA
:104AA00055AAD44FA0B4A7FFFFFFFFFFFFFFFF7F72
:104AB000FBE6A74F7FBFDF7EFFFFFFFFFFFFFFFF8C
:104AC000FFFFFFFFFFFFFFFFFFFFFFFFFFFFFFFFF6
:104AD000FD280421691FD9352FFFFFFFFFFFFFFFCE
:104AE000FFFFFFFF5F1DBEBFFFFFFFFFFFFFFFFFD9
:104AF000FFFFFFFFFFFFFFFFFFFFFFFFFFFFFFFFC6
:104B0000FFFFFC8018CAB41FB47CAFFFFFFFFFFF9C
:104B1000FFFFFFFEFFFE1DCBFAFF6FFFFFFFFFFF52
:104B2000FFFFFFFFFFFFFFFFFFFFFFFFFFFFFFFF95
:104B3000FFFFFFFFFEA02126EB3F70FC5FFFFFFFA2
:104B4000FFFFFFFFFFFFFFEFF1EBFB7D5BFFFFFFD1
:104B5000FFFFFFFFFFFFFFFFFFFFFFFFFFFFFFFF65
:104B6000FFFFFFFFFFFFFE0498535A37C9FC3FFFCA
:104B7000FFFFFFFFFFFFFFFFFFFFE8BFEFF7FFFFB4
:104B8000FFFFFFFFFFFFFFFFFFFFFFFFFFFFFFFF35
:104B9000FFFFFFFFFFFFFFFFFF0A300AF4A91FFC22
:104BA0007FFFFFFFFFFFFFFFDFFFFFEFF5FFFBEBE7
:104BB000F3FFFFFFFFFFFFFFFFFFFFFFFFFFFFFF11
:104BC000FFFFFFFFFFFFFFFFFFFFFF80AC017A0247
:104BD000FFFDFFFFFFFFFFFFFFFFDFFFFFEE7FEFA8
:104BE000FFF7FFFFFFFFFFFFFFFFFFFFFFFFFFFFDD
:104BF000FFFFFFFFFFFFFFFFFFFFFFFFFF8BD8025D
:104C0000DAA7FFFFFFFFFFFFFFFFFFFFFFFFFFFE32
:104C1000DFFF7FDFDFFFFFFFFFFFFFFFFFFFFFFF84
:104C2000FFFFFFFFFFFFFFFFFFFFFFFFFFFFFFC6CD
:104C3000AC807D37FFFFFFFFFFFFFFFFFFFFFFFFA0
:104C4000FFFFFFFDFB7FFFFFFFFFFFFFFFFFFFFFFA
:104C5000FFFFFFFFFFFFFFFFFFFFFFFFFFFFFFFF64
:104C6000FFE0B801F52BFFFFFFFFFFFFFFFFFFFF96
:104C7000FFFFFFFFFFFFD6DEFFFFFFFFFFFFFFFF8E
:104C8000FFFFFFFFFFFFFFFFFFFFFFFFFFFFFFFF34
:104C9000FFFFFFF1CC00A8B5FFFFFFFFFFFFFFFF05
:104CA000FFFFFFFFFFFFFFFFFF6BFFFFFFFFFFFFA8
:104CB000FFFFFFFFFFFFFFFFFFFFFFFFFFFFFFFF04
:104CC000FFFFFFFFFFF53C205B69FFFFFFFFFFFFDA
:104CD000FFFFFFFFFFFFFFFFFFFFFDFEFFFFFFFFE7
:104CE000FFFFFFFFFFFFFFFFFFFFFFFFFFFFFFFFD4
:104CF000FFFFFFFFFFFFFFFDD6206DABFFFFFFFFB4
:104D0000FFFFFFFFFFFFFFFFFFFFFFFFFEEDFFFFC6
:104D1000FFFFFFFFFFFFFFFFFFFFFFFFFFFFFFFFA3
:104D2000FFFFFFFFFFFFFFFFFFFFBC006D4BFFFF1B
:104D3000FFFFFFFFFFFFFFFFFFFFFFFFFFFFFFE79B
:104D4000FFFFFFFFFFFFFFFFFFFFFFFFFFFFFFFF73
:104D5000FFFFFFFFFFFFFFFFFFFFFFFFFA0056AF60
:104D6000FFFFFFFFFFFFFFFFFFFFFFFFFFFFFFFE54
:104D7000FFFFFFFFFFFFFFFFFFFFFFFFFFFFFFFF43
:104D8000FFFFFFFFFFFFFFFFFFFFFFFFFFFFEC2025
:104D900019DFFFFFFFFFFFFFFFFFFFFFFFFFFFFF29
:104DA000FFFFFFFFFFFFFFFFFFFFFFFFFFFFFFFF13
:104DB000FFFFFFFFFFFFFFFFFFFFFFFFFFFFFFFF03
:104DC000F28816DFFFFFFFFFFFFFFFFFFFFFFFFF80
:104DD000FFFFFFFFFFDEFFFFFFFFFFFFFFFFFFFF04
:104DE000FFFFFFFFFFFFFFFFFFFFFFFFFFFFFFFFD3
:104DF000FFFFFA3A1C8FFFFFFFFFFFFFFFFFFFFFE0
:104E0000FFFFFFFFFFFFFFFFFFFFFFFFFFFFFFFFB2
:104E1000FFFFFFFFFFFFFFFFFFFFFFFFFFFFFFFFA2
:104E2000FFFFFFFFFEA2101FFFFFFFFFFFFFFFFFBF
:104E3000FFFFFFFFFFFFFFFFFFFFFFFFFFFFFFFF82
:104E4000FFFFFFFFFFFFFFFFFFFFFFFFFFFFFFFF72
:104E5000FFFFFFFFFFFFFE08007FFFFFFFFFFFFFD9
:104E6000FFFFFFFFFFFFFFFFFFFFFFFFFFFFFFFF52
:104E7000FFFFFFFFFFFFFFFFFFFFFFFFFFFFFFFF42
:104E8000FFFFFFFFFFFFFFFFFF02287FFFFFFFFF86
:104E9000FFFFFFFFFFFFFFFFFFFFFFFFFFFFFFFF22
:104EA000FFFFFFFFFFFFFFFFFFFFFFFFFFFFFFFF12
:104EB000FFFFFFFFFFFFFFFFFFFFFF5440FFFFFF6C
:104EC000FFFFFFFFFFFFFFFFFFFFFFFFFFFFFFFFF2
:104ED000FFFFFFFFFFFFFFFFFFFFFFFFFFFFFFFFE2
:104EE000FFFFFFFFFFFFFFFFFFFFFFFFFFCA03FF03
:104EF000FFFFFFFFFFFFFFFFFFFFFFFFFFFFFFFFC2
:104F0000FFFFFFFFFFFFFFFFFFFFFFFFFFFFFFFFB1
:104F1000FFFFFFFFFFFFFFFFFFFFFFFFFFFFFFA1FF
:104F200087FFFFFFFFFFFFFFFFFFFFFFFFFFFFFF09
:104F3000FFFFFFFFFFFFFFFFFFFFFFFFFFFFFFFF81
:104F4000FFFFFFFFFFFFFFFFFFFFFFFFFFFFFFFF71
:104F5000FF941FFFFFFFFFFFFFFFFFFFFFFFFFFFAC
:104F6000FFFFFFFFFFFFFFFFFFFFFFFFFFFFFFFF51
:104F7000FFFFFFFFFFFFFFFFFFFFFFFFFFFFFFFF41
:104F8000FFFFFFD53FFFFFFFFFFFFFFFFFFFFFFF1B
:104F9000FFFFFFFFFFFFFFFFFFFFFFFFFFFFFFFF21
:104FA000FFFFFFFFFFFFFFFFFFFFFFFFFFFFFFFF11
:104FB000FFFFFFFFFFE8FFFFFFFFFFFFFFFFFFFF18
:104FC000FFFFFFFFFFFFFFFFFFFFFFFFFFFFFFFFF1
:104FD000FFFFFFFFFFFFFFFFFFFFFFFFFFFFFFFFE1
:104FE000FFFFFFFFFFFFFFF7FFFFFFFFFFFFFFFFD9
:104FF000FFFFFFFFFFFFFFFFFFFFFFFFFFFFFFFFC1
:10500000FFFFFFFFFFFFFFFFFFFFFFFFFFFFFFFFB0
:10501000FFFFFFFFFFFFFFFFFFFFFFFFFFFFFFFFA0
:10502000FFFFFFFFFFFFFFFFFFFFFFFFFFFFFFFF90
:10546000FFFFFFFFFFFFFFFFFFF7FFFFFFFFFFFF54
:10547000FFFFFFFFFFFFFFFFFFFFFFFFFFFFFFFF3C
:10548000FFFFFFFFFFFFFFFFFFFFFFFFFFFFFFFF2C
:10549000FFFFFFFFFFFFFFFFFFFFFFE3FFFFFFFF38
:1054A000FFFFFFFFFFFFFFFFFFFFFFFFFFFFFFFF0C
:1054B000FFFFFFFFFFFFFFFFFFFFFFFFFFFFFFFFFC
:1054C000FFFFFFFFFFFFFFFFFFFFFFFFFFE9FFFF02
:1054D000FFFFFFFFFFFFFFFFFFFFFFFFFFFFFFFFDC
:1054E000FFFFFFFFFFFFFFFFFFFFFFFFFFFFFFFFCC
:1054F000FFFFFFFFFFFFFFFFFFFFFFFFFFFFF3ECDB
:105500003FFFFFFFFFFFFFFFFFFFFFFFFFFFFFFF6B
:10551000FFFFFFFFFFFFFFFFFFFFFFFFFFFFFFFF9B
:10552000FFFFFFFFFFFFFFFFFFFFFFFFFFFFFFFF8B
:10553000F0CFFFFFEFFFFFFFFFFFFFFFFFFFFFFFCA
:10554000FFFFFFFFFFFFFFFFFFFFFFFFFFFFFFFF6B
:10555000FFFFFFFFFFFFFFFFFFFFFFFFFFFFFFFF5B
:10556000FFFFE65FFFFF8F9FFFFFFFFFFFFFFFFFD4
:10557000FFFFFFFFFFFFFFFFFFFFFFFFFFFFFFFF3B
:10558000FFFFFFFFFFFFFFFFFFFFFFFFFFFFFFFF2B
:10559000FFFFFFFFE7FFFFE0373FFFFFFFFFFFFFDA
:1055A000FFFFFFFFFFFFFFFFFFFFFFFFFFFFFFFF0B
:1055B000FFFFFFFFFFFFFFFFFFFFFFFFFFFFFFFFFB
:1055C000FFFFFFFFFFFFCFFFFFDC707FFFFFFFFF4D
:1055D000FFFFFFFFFFFFFFFFFFFFFFFFFFFFFFFFDB
:1055E000FFFFFFFFFFFFFFFFFFFFFFFFFFFFFFFFCB
:1055F000FFFFFFFFFFFFFFFFFFFFFFFFFCFFFFFFBE
:10560000FFFFFFFFFFFFFFFFFFFFFFFFFFFFFFFFAA
:10561000FFFFFFFFFFFFFFFFFFFFFFFFFFFFFFFF9A
:10562000FFFFFFFFFFFFFFFFFFFFFFFFFFFFFFFF8A
:10563000FFFFFFFFFFFFFFFFFFFFFFFFFFFFFFFF7A
:10564000FFFFFFFFFFFFFFFFFFFFFFFFFFFFFFFF6A
:10565000FFFFFFFFFFFFFFFFFFFFFFFFFFFFFFFF5A
:10566000FFFFFFFFFFFFFFFFFFFFFFFFFFFFFFFF4A
:10567000FFFFFFFFFFFFFFFFFFFFFFFFFFFFFFFF3A
:10568000FFFFFFFFFFFFFFFFFFFFFFFFFFFFFFFF2A
:10569000FFFFFFFFFFFFFFFFFFFFFFFFFFFFFFFF1A
:1056A000FFFFFFFFFFFFFFFFFFFFFFFFFFFFFFFF0A
:1056B000FFFFFFFFFFFFFFFFFFFFFFFFFFFFFFFFFA
:1056C000FFFFFFFFFFFFFFFFFFFFFFFFFFFFFFFFEA
:1056D000FFFFFFFFFFFFFFFFFFFFFFFFFFFFFFFFDA
:1056E000FFFFFFFFFFFFFFFFFFFFFFFFFFFFFFFFCA
:1056F000FFFFFFFFFFFFFFFFFFFFFFFFFFFFFFFFBA
:10570000FFFFFFFFFFFFFFFFFFFFFFFFFFFFFFFFA9
:10571000FFFFFFFFFFFFFFFFFFFFFFFFFFFFFFFF99
:10572000FFFFFFFFFFFFFFFFFFFFFFFFFFFFFFFF89
:10573000FFFFFFFFFFFFFFFFFFFFFFFFFFFFFFFF79
:10574000FFFFFFFFFFFFFFFFFFFFFFFFFFFFFFFF69
:10575000FFFFFFFFFFFFFFFFFFFFFFFFFFFFFFFF59
:10576000FFFFFFFFFFFFFFFFFFFFFFFFFFFFFFFF49
:10577000FFFFFFFFFFFFFFFFFFFFFFFFFFFFFFFF39
:10578000FFFFFFFFFFFFFFFFFFFFFFFFFFFFFFE741
:10579000FFFFFFFFFFFFFFFFFFFFFFFFFFFFFFFF19
:1057A000FFFFFFFFFFFFFFFFFFFFFFFFFFFFFFFF09
:1057B000FFFFFFFFFFFFFFFFFFFFFFFFFFFFFFFFF9
:1057C000FFD07FFFFFFFFFFFFFFFFFFFFFFFFFFF98
:1057D000FFFFFFFFFFFFFFFFFFFFFFFFFFFFFFFFD9
:1057E000FFFFFFFFFFFFFFFFFFFFFFFFFFFFFFFFC9
:1057F000FFFFE7DFFFFFFFFFFFFFFFFFFFFFFFFFF1
:10580000FFFFFFFFFFFFFFFFFFFFFFFFFFFFFFFFA8
:10581000FFFFFFFFFFFFFFFFFFFFFFFFFFFFFFFF98
:10582000FFFFFFFFE99FFFFFFFFFFFFFFFFFFFFFFE
:10583000FFFFFFFFFFFFFFFFFFFFFFFFFFFFFFFF78
:10584000FFFFFFFFFFFFFFFFFFFFFFFFFFFFFFFF68
:10585000FFFFFFFFFFFFCCBFFFFFFFFFFFFFFFFFCB
:10586000FFFFFFFFFFFFFFFFFFFFFFFFFFFFFFFF48
:10587000FFFFFFFFFFFFFFFFFFFFFFFFFFFFFFFF38
:10588000FFFFFFFFFFFFFFFF1FFFFFFFFFFFFFFF08
:10589000FFFFFFFFFFFFFFFFFFFFFFFFFFFFFFFF18
:1058A000FFFFFFFFFFFFFFFFFFFFFFFFFFFFFFFF08
:1058B000FFFFFFFFFFFFFFFFFFFFFFFFFFFFFFFFF8
:1058C000FFFFFFFFFFFFFFFFFFFFFFFFFFFFFFFFE8
:1058D000FFFFFFFFFFFFFFFFFFFFFFFFFFFFFFFFD8
:1058E000FFFFFFFFFFFFFFFFFFFFFFFFFFFFFFFFC8
:1058F000FFFFFFFFFFFFFFFFFFFFFFFFFFFFFFFFB8
:10590000FFFFFFFFFFFFFFFFFFFFFFFFFFFFFFFFA7
:10591000FFFFFFFFFFFFFFFFFFFFFFFFFFFFFFFF97
:10592000FFFFFFFFFFFFFFFFFFFFFFFFFFFFFFFF87
:10593000FFFFFFFFFFFFFFFFFFFFFFFFFFFFFFFF77
:10594000FFFFFFFFFFFFFFFFFFFFFFFFFFFFFFFF67
:10595000FFFFFFFFFFFFFFFFFFFFFFFFFFFFFFFF57
:10596000FFFFFFFFFFFFFFFFFFFFFFFFFFFFFFFF47
:10597000FFFFFFFFFFFFFFFFFFFFFFFFFFFFFFFF37
:10598000FFFFFFFFFFFFFFFFFFFFFFFFFFFFFFFF27
:10599000FFFFFFFFFFFFFFFFFFFFFFFFFFFFFFFF17
:1059A000FFFFFFFFFFFFFFFFFFFFFFFFFFFFFFFF07
:1059B000FFFFFFFFFFFFFFFFFFFFFFFFFFFFFFFFF7
:1059C000FFFFFFFFFFFFFFFFFFFFFFFFFFFFFFFFE7
:1059D000FFFFFFFFFFFFFFFFFFFFFFFFFFFFFFFFD7
:1059E000FFFFFFFFFFFFFFFFFFFFFFFFFFFFFFFFC7
:1059F000FFFFFFFFFFFFFFFFFFFFFFFFFFFFFFFFB7
:105A0000FFFFFFFFFFFFFFFFFFFFFFFFFFFFFFFFA6
:105A1000FFFFFFFFFFFFEFFFFFFFFFFFFFFFFFFFA6
:105A2000FFFFFFFFFFFFFFFFFFFFFFFFFFFFFFFF86
:105A3000FFFFFFFFFFFFFFFFFFFFFFFFFFFFFFFF76
:105A4000FFFFFFFFFFFFFFFFDFFFFFFFFFFFFFFF86
:105A5000FFFFFFFFFFFFFFFFFFFFFFFFFFFFFFFF56
:105A6000FFFFFFFFFFFFFFFFFFFFFFFFFFFFFFFF46
:105A7000FFFFFFFFFFFFFFFFFFFFBFFFFFFFFFFF76
:105A8000FFFFFFFFFFFFFFFFFFFFFFFFFFFFFFFF26
:105A9000FFFFFFFFFFFFFFFFFFFFFFFFFFFFFFFF16
:105AA000FFFFFFFFFFFFFFFFFFFFFFF03FFFFFFFD5
:105AB000FFFFFFFFFFFFFFFFFFFFFFFFFFFFFFFFF6
:105AC000FFFFFFFFFFFFFFFFFFFFFFFFFFFFFFFFE6
:105AD000FFFFFFFFFFFFFFFFFFFFFFFFFFF7FFFFDE
:105AE000DFFFFFFFFFFFFFFFFFFFFFFFFFFFFFFFE6
:105AF000FFFFFFFFFFFFFFFFFFFFFFFFFFFFFFFFB6
:105B0000FFFFFFFFFFFFFFFFFFFFFFFFFFFFFF7F25
:105B1000FFFFBFFFFFFFFFFFFFFFFFFFFFFFFFFFD5
:105B2000FFFFFFFFFFFFFFFFFFFFFFFFFFFFFFFF85
:105B3000FFFFFFFFFFFFFFFFFFFFFFFFFFFFFFFF75
:105B4000FF7FFFFF3FFFFFFFFFFFFFFFFFFFFFFFA5
:105B5000FFFFFFFFFFFFFFFFFFFFFFFFFFFFFFFF55
:105B6000FFFFFFFFFFFFFFFFFFFFFFFFFFFFFFFF45
:105B7000FFFFFEFFFF00FFFFFFFFFFFFFFFFFFFF35
:105B8000FFFFFFFFFFFFFFFFFFFFFFFFFFFFFFFF25
:105B9000FFFFFFFFFFFFFFFFFFFFFFFFFFFFFFFF15
:105BA000FFFFFFFFFCFFFFE3FFFFFFFFFFFFFFFF24
:105BB000FFFFFFFFFFFFFFFFFFFFFFFFFFFFFFFFF5
:105BC000FFFFFFFFFFFFFFFFFFFFFFFFFFFFFFFFE5
:105BD000FFFFFFFFFFFFC0FFFFFFFFFFFFFFFFFF14
:105BE000FFFFFFFFFFFFFFFFFFFFFFFFFFFFFFFFC5
:105BF000FFFFFFFFFFFFFFFFFFFFFFFFFFFFFFFFB5
:105C0000FFFFFFFFFFFFFFFFFFFFFFFFFFFFFFFFA4
:105C1000FFFFFFFFFFFFFFFFFFFFFFFFFFFFFFFF94
:1070C000FFFFE8FFFFFFFFFFFFFFFFFFFFFFFFFFE7
:1070D000FFFFFFFFFFFFFFFFFFFFFFFFFFFFFFFFC0
:1070E000FFFFFFFFFFFFFFFFFFFFFFFFFFFFF3E3D8
:1070F000E7FFFFEF4F7FFFFFFFFFFFFFFFFFFFFFF8
:10710000FFFFFFFFFFFFFFFFFFFFFFFFFFFFFFFF8F
:10711000FFFFFFFFFFFFFFFFFFFFFFFFFFFFFFFF7F
:10712000F8A4F3FFFBFB083FFFFFFFFFFFFFFFFF9C
:10713000FFFFFFFFFFFFFFFFFFFFFFFFFFFFFFFF5F
:10714000FFFFFFFFFFFFFFFFFFFFFFFFFFFFFFFF4F
:10715000FFFF6620FFFFFDE9A03FFFFFFFFFFFFFEE
:10716000FFFFFFFFFFFFFFFFFFFFFFFFFFFFFFFF2F
:10717000FFFFFFFFFFFFFFFFFFFFFFFFFFFFFFFF1F
:10718000FFFFFFFF8191CFFFA26107C9FFFFFFFF54
:10719000FFFFFFFFFFFFFFFFFFFFFFFFFFFFFFFFFF
:1071A000FFFFFFFFFFFFFFFFFFFFFFFFFFFFFFFFEF
:1071B000FFFFFFFFFF7810542BFFC0876C76FFFFA7
:1071C000FFFFFFFFFFFFFFFFFFFFFFFFFFFFFFFFCF
:1071D000FFFFFFFFFFFFFFFFFFFFFFFFFFFFFFFFBF
:1071E000FFFFFFFFFFFFFFC806000FFFC0C3323ED7
:1071F000FFFFFFFFFFFFFFFFFFFFFFFFFFFFFFFF9F
:10720000FFFFFFFFFFFFFFFFFFFFFFFFFFFFFFFF8E
:10721000FFFFFFFFFFFFFFFFFE1D60400E3AC010A3
:1072200087B9FFFFFFFFFFFFFFFFFFFFFFFFFFFF2C
:10723000FFFFFFFFFFFFFFFFFFFFFFFFFFFFFFFF5E
:10724000FFFFFFFFFFFFFFFFFFFFFF402010818FC9
:10725000E004BFF9F7FFFFFFFFFFFFFFFFFFFFFFA6
:10726000FFFFFFFFFFFFFFFFFFFFFFFFFFFFFFFF2E
:10727000FFFFFFFFFFFFFFFFFFFFFFFFFF9178DC36
:107280000017F497FFFDFFFFFFFFFFFFFFFFFFFF6A
:10729000FFFFFFFFFFFFFFFFFFFFFFFFFFFFFFFFFE
:1072A000FFFFFFFFFFFFFFFFFFFFFFFFFFFFFF05E8
:1072B000CE840439EDF3FFFE7FFFFFFFFFFFFFFFEA
:1072C000FFFFFFFFFFFFFFFFFFFFFFFFFFFFFFFFCE
:1072D000FFFFFFFFFFFFFFFFFFFFFFFFFFFFFFFFBE
:1072E000FF13E7B08EDDE7FFFFFFFFFFFFFFFFFFAC
:1072F000FFFFFFFFFFFFFFFFFFFFFFFFFFFFFFFF9E
:10730000FFFFFFFFFFFFFFFFFFFFFFFFFFFFFFFF8D
:10731000FFFFFFF3FB91C6FF7FFE7FBFFFFFFFFF75
:10732000FFFFFFFFFFFFFFFFFFFFFFFFFFFFFFFF6D
:10733000FFFFFFFFFFFFFFFFFFFFFFFFFFFFFFFF5D
:10734000FFFFFFFFFFFDFCFBFFFDFFFBB7EFFFFFB4
:10735000FFFFFFFFFFFFFFFFFFFFFFFFFFFFFFFF3D
:10736000FFFFFFFFFFFFFFFFFFFFFFFFFFFFFFFF2D
:10737000FFFFFFFFFFFFFFDFFF7DFFFDCFFFFFFFF1
:10738000FFFFFFFFFFFFFFFFFFFFFFFFFFFFFFFF0D
:10739000FFFFFFFFFFFFFFFFFFFFFFFFFFFFFFFFFD
:1073A000FFFFFFFFFFFFFFFFFFFFFFFFFFFDFFCF1F
